{
  "_format": "hh-sol-artifact-1",
  "contractName": "DAO",
  "sourceName": "contracts/DAO.sol",
  "abi": [
    {
      "inputs": [
        {
          "internalType": "address",
          "name": "_realEstateNFTAddress",
          "type": "address"
        }
      ],
      "stateMutability": "nonpayable",
      "type": "constructor"
    },
    {
      "anonymous": false,
      "inputs": [
        {
          "indexed": false,
          "internalType": "uint256",
          "name": "id",
          "type": "uint256"
        },
        {
          "indexed": false,
          "internalType": "address",
          "name": "proposer",
          "type": "address"
        },
        {
          "indexed": false,
          "internalType": "string",
          "name": "description",
          "type": "string"
        }
      ],
      "name": "ProposalCreated",
      "type": "event"
    },
    {
      "anonymous": false,
      "inputs": [
        {
          "indexed": false,
          "internalType": "uint256",
          "name": "proposalId",
          "type": "uint256"
        },
        {
          "indexed": false,
          "internalType": "address",
          "name": "voter",
          "type": "address"
        },
        {
          "indexed": false,
          "internalType": "bool",
          "name": "voteYes",
          "type": "bool"
        }
      ],
      "name": "Voted",
      "type": "event"
    },
    {
      "inputs": [
        {
          "internalType": "uint256",
          "name": "_tokenId",
          "type": "uint256"
        },
        {
          "internalType": "string",
          "name": "_description",
          "type": "string"
        }
      ],
      "name": "createProposal",
      "outputs": [],
      "stateMutability": "nonpayable",
      "type": "function"
    },
    {
      "inputs": [
        {
          "internalType": "uint256",
          "name": "_proposalId",
          "type": "uint256"
        }
      ],
      "name": "executeProposal",
      "outputs": [],
      "stateMutability": "nonpayable",
      "type": "function"
    },
    {
      "inputs": [
        {
          "internalType": "uint256",
          "name": "_proposalId",
          "type": "uint256"
        }
      ],
      "name": "getProposal",
      "outputs": [
        {
          "internalType": "uint256",
          "name": "id",
          "type": "uint256"
        },
        {
          "internalType": "string",
          "name": "description",
          "type": "string"
        },
        {
          "internalType": "uint256",
          "name": "yesVotes",
          "type": "uint256"
        },
        {
          "internalType": "uint256",
          "name": "noVotes",
          "type": "uint256"
        },
        {
          "internalType": "bool",
          "name": "executed",
          "type": "bool"
        },
        {
          "internalType": "address",
          "name": "proposer",
          "type": "address"
        }
      ],
      "stateMutability": "view",
      "type": "function"
    },
    {
      "inputs": [
        {
          "internalType": "uint256",
          "name": "_proposalId",
          "type": "uint256"
        },
        {
          "internalType": "address",
          "name": "_voter",
          "type": "address"
        }
      ],
      "name": "hasVoted",
      "outputs": [
        {
          "internalType": "bool",
          "name": "",
          "type": "bool"
        }
      ],
      "stateMutability": "view",
      "type": "function"
    },
    {
      "inputs": [],
      "name": "proposalCount",
      "outputs": [
        {
          "internalType": "uint256",
          "name": "",
          "type": "uint256"
        }
      ],
      "stateMutability": "view",
      "type": "function"
    },
    {
      "inputs": [
        {
          "internalType": "uint256",
          "name": "",
          "type": "uint256"
        }
      ],
      "name": "proposals",
      "outputs": [
        {
          "internalType": "uint256",
          "name": "id",
          "type": "uint256"
        },
        {
          "internalType": "uint256",
          "name": "tokenId",
          "type": "uint256"
        },
        {
          "internalType": "string",
          "name": "description",
          "type": "string"
        },
        {
          "internalType": "uint256",
          "name": "yesVotes",
          "type": "uint256"
        },
        {
          "internalType": "uint256",
          "name": "noVotes",
          "type": "uint256"
        },
        {
          "internalType": "bool",
          "name": "executed",
          "type": "bool"
        },
        {
          "internalType": "address",
          "name": "proposer",
          "type": "address"
        }
      ],
      "stateMutability": "view",
      "type": "function"
    },
    {
      "inputs": [],
      "name": "realEstateNFT",
      "outputs": [
        {
          "internalType": "contract RealEstate",
          "name": "",
          "type": "address"
        }
      ],
      "stateMutability": "view",
      "type": "function"
    },
    {
      "inputs": [
        {
          "internalType": "uint256",
          "name": "_proposalId",
          "type": "uint256"
        },
        {
          "internalType": "bool",
          "name": "_voteYes",
          "type": "bool"
        }
      ],
      "name": "vote",
      "outputs": [],
      "stateMutability": "nonpayable",
      "type": "function"
    }
  ],
  "bytecode": "0x608060405234801561001057600080fd5b5060405161186c38038061186c833981810160405281019061003291906100db565b806000806101000a81548173ffffffffffffffffffffffffffffffffffffffff021916908373ffffffffffffffffffffffffffffffffffffffff16021790555050610108565b600080fd5b600073ffffffffffffffffffffffffffffffffffffffff82169050919050565b60006100a88261007d565b9050919050565b6100b88161009d565b81146100c357600080fd5b50565b6000815190506100d5816100af565b92915050565b6000602082840312156100f1576100f0610078565b5b60006100ff848285016100c6565b91505092915050565b611755806101176000396000f3fe608060405234801561001057600080fd5b50600436106100885760003560e01c8063708cfe491161005b578063708cfe491461012b578063c7f758a814610149578063c9d27afe1461017e578063da35c6641461019a57610088565b8063013cf08b1461008d57806302d52fa4146100c35780630d61b519146100df57806343859632146100fb575b600080fd5b6100a760048036038101906100a29190610a41565b6101b8565b6040516100ba9796959493929190610b69565b60405180910390f35b6100dd60048036038101906100d89190610d14565b6102af565b005b6100f960048036038101906100f49190610a41565b61046a565b005b61011560048036038101906101109190610d9c565b6105ea565b6040516101229190610ddc565b60405180910390f35b610133610655565b6040516101409190610e56565b60405180910390f35b610163600480360381019061015e9190610a41565b610679565b60405161017596959493929190610e71565b60405180910390f35b61019860048036038101906101939190610f05565b610786565b005b6101a26109f1565b6040516101af9190610f45565b60405180910390f35b60026020528060005260406000206000915090508060000154908060010154908060020180546101e790610f8f565b80601f016020809104026020016040519081016040528092919081815260200182805461021390610f8f565b80156102605780601f1061023557610100808354040283529160200191610260565b820191906000526020600020905b81548152906001019060200180831161024357829003601f168201915b5050505050908060030154908060040154908060050160009054906101000a900460ff16908060050160019054906101000a900473ffffffffffffffffffffffffffffffffffffffff16905087565b60008060009054906101000a900473ffffffffffffffffffffffffffffffffffffffff1673ffffffffffffffffffffffffffffffffffffffff166317c6ab4084336040518363ffffffff1660e01b815260040161030d929190610fc0565b602060405180830381865afa15801561032a573d6000803e3d6000fd5b505050506040513d601f19601f8201168201806040525081019061034e9190610ffe565b1161038e576040517f08c379a0000000000000000000000000000000000000000000000000000000008152600401610385906110c3565b60405180910390fd5b600060026000600154815260200190815260200160002090506001548160000181905550828160010181905550818160020190816103cc9190611285565b50338160050160016101000a81548173ffffffffffffffffffffffffffffffffffffffff021916908373ffffffffffffffffffffffffffffffffffffffff1602179055507f7585f467599d0f008985f231af99293be388626ac16ca59505c2f8f88969cd63600154338460405161044593929190611357565b60405180910390a160016000815480929190610460906113c4565b9190505550505050565b600060026000838152602001908152602001600020905060008060009054906101000a900473ffffffffffffffffffffffffffffffffffffffff1673ffffffffffffffffffffffffffffffffffffffff16633709417983600101546040518263ffffffff1660e01b81526004016104e19190610f45565b602060405180830381865afa1580156104fe573d6000803e3d6000fd5b505050506040513d601f19601f820116820180604052508101906105229190610ffe565b90508160050160009054906101000a900460ff1615610576576040517f08c379a000000000000000000000000000000000000000000000000000000000815260040161056d90611458565b60405180910390fd5b60028161058391906114a7565b8260030154116105c8576040517f08c379a00000000000000000000000000000000000000000000000000000000081526004016105bf90611570565b60405180910390fd5b60018260050160006101000a81548160ff021916908315150217905550505050565b60006002600084815260200190815260200160002060060160008373ffffffffffffffffffffffffffffffffffffffff1673ffffffffffffffffffffffffffffffffffffffff16815260200190815260200160002060009054906101000a900460ff16905092915050565b60008054906101000a900473ffffffffffffffffffffffffffffffffffffffff1681565b600060606000806000806000600260008981526020019081526020016000209050806000015481600201826003015483600401548460050160009054906101000a900460ff168560050160019054906101000a900473ffffffffffffffffffffffffffffffffffffffff168480546106f090610f8f565b80601f016020809104026020016040519081016040528092919081815260200182805461071c90610f8f565b80156107695780601f1061073e57610100808354040283529160200191610769565b820191906000526020600020905b81548152906001019060200180831161074c57829003601f168201915b505050505094509650965096509650965096505091939550919395565b600060026000848152602001908152602001600020905060008060009054906101000a900473ffffffffffffffffffffffffffffffffffffffff1673ffffffffffffffffffffffffffffffffffffffff166317c6ab408360010154336040518363ffffffff1660e01b81526004016107ff929190610fc0565b602060405180830381865afa15801561081c573d6000803e3d6000fd5b505050506040513d601f19601f820116820180604052508101906108409190610ffe565b905060008111610885576040517f08c379a000000000000000000000000000000000000000000000000000000000815260040161087c90611628565b60405180910390fd5b8160060160003373ffffffffffffffffffffffffffffffffffffffff1673ffffffffffffffffffffffffffffffffffffffff16815260200190815260200160002060009054906101000a900460ff1615610914576040517f08c379a000000000000000000000000000000000000000000000000000000000815260040161090b90611694565b60405180910390fd5b60018260060160003373ffffffffffffffffffffffffffffffffffffffff1673ffffffffffffffffffffffffffffffffffffffff16815260200190815260200160002060006101000a81548160ff0219169083151502179055508215610994578082600301600082825461098891906116b4565b925050819055506109b0565b808260040160008282546109a891906116b4565b925050819055505b7ff2913dbe661ee2acc4a046d8fbcdc792373bda34c41c6086484b5345e5785e5f8433856040516109e3939291906116e8565b60405180910390a150505050565b60015481565b6000604051905090565b600080fd5b600080fd5b6000819050919050565b610a1e81610a0b565b8114610a2957600080fd5b50565b600081359050610a3b81610a15565b92915050565b600060208284031215610a5757610a56610a01565b5b6000610a6584828501610a2c565b91505092915050565b610a7781610a0b565b82525050565b600081519050919050565b600082825260208201905092915050565b60005b83811015610ab7578082015181840152602081019050610a9c565b60008484015250505050565b6000601f19601f8301169050919050565b6000610adf82610a7d565b610ae98185610a88565b9350610af9818560208601610a99565b610b0281610ac3565b840191505092915050565b60008115159050919050565b610b2281610b0d565b82525050565b600073ffffffffffffffffffffffffffffffffffffffff82169050919050565b6000610b5382610b28565b9050919050565b610b6381610b48565b82525050565b600060e082019050610b7e600083018a610a6e565b610b8b6020830189610a6e565b8181036040830152610b9d8188610ad4565b9050610bac6060830187610a6e565b610bb96080830186610a6e565b610bc660a0830185610b19565b610bd360c0830184610b5a565b98975050505050505050565b600080fd5b600080fd5b7f4e487b7100000000000000000000000000000000000000000000000000000000600052604160045260246000fd5b610c2182610ac3565b810181811067ffffffffffffffff82111715610c4057610c3f610be9565b5b80604052505050565b6000610c536109f7565b9050610c5f8282610c18565b919050565b600067ffffffffffffffff821115610c7f57610c7e610be9565b5b610c8882610ac3565b9050602081019050919050565b82818337600083830152505050565b6000610cb7610cb284610c64565b610c49565b905082815260208101848484011115610cd357610cd2610be4565b5b610cde848285610c95565b509392505050565b600082601f830112610cfb57610cfa610bdf565b5b8135610d0b848260208601610ca4565b91505092915050565b60008060408385031215610d2b57610d2a610a01565b5b6000610d3985828601610a2c565b925050602083013567ffffffffffffffff811115610d5a57610d59610a06565b5b610d6685828601610ce6565b9150509250929050565b610d7981610b48565b8114610d8457600080fd5b50565b600081359050610d9681610d70565b92915050565b60008060408385031215610db357610db2610a01565b5b6000610dc185828601610a2c565b9250506020610dd285828601610d87565b9150509250929050565b6000602082019050610df16000830184610b19565b92915050565b6000819050919050565b6000610e1c610e17610e1284610b28565b610df7565b610b28565b9050919050565b6000610e2e82610e01565b9050919050565b6000610e4082610e23565b9050919050565b610e5081610e35565b82525050565b6000602082019050610e6b6000830184610e47565b92915050565b600060c082019050610e866000830189610a6e565b8181036020830152610e988188610ad4565b9050610ea76040830187610a6e565b610eb46060830186610a6e565b610ec16080830185610b19565b610ece60a0830184610b5a565b979650505050505050565b610ee281610b0d565b8114610eed57600080fd5b50565b600081359050610eff81610ed9565b92915050565b60008060408385031215610f1c57610f1b610a01565b5b6000610f2a85828601610a2c565b9250506020610f3b85828601610ef0565b9150509250929050565b6000602082019050610f5a6000830184610a6e565b92915050565b7f4e487b7100000000000000000000000000000000000000000000000000000000600052602260045260246000fd5b60006002820490506001821680610fa757607f821691505b602082108103610fba57610fb9610f60565b5b50919050565b6000604082019050610fd56000830185610a6e565b610fe26020830184610b5a565b9392505050565b600081519050610ff881610a15565b92915050565b60006020828403121561101457611013610a01565b5b600061102284828501610fe9565b91505092915050565b7f536f6c6f206c6f732070726f706965746172696f73206465206672616363696f60008201527f6e6573206465206573746520696e6d7565626c652070756564656e206372656160208201527f722070726f707565737461730000000000000000000000000000000000000000604082015250565b60006110ad604c83610a88565b91506110b88261102b565b606082019050919050565b600060208201905081810360008301526110dc816110a0565b9050919050565b60008190508160005260206000209050919050565b60006020601f8301049050919050565b600082821b905092915050565b6000600883026111457fffffffffffffffffffffffffffffffffffffffffffffffffffffffffffffffff82611108565b61114f8683611108565b95508019841693508086168417925050509392505050565b600061118261117d61117884610a0b565b610df7565b610a0b565b9050919050565b6000819050919050565b61119c83611167565b6111b06111a882611189565b848454611115565b825550505050565b600090565b6111c56111b8565b6111d0818484611193565b505050565b5b818110156111f4576111e96000826111bd565b6001810190506111d6565b5050565b601f8211156112395761120a816110e3565b611213846110f8565b81016020851015611222578190505b61123661122e856110f8565b8301826111d5565b50505b505050565b600082821c905092915050565b600061125c6000198460080261123e565b1980831691505092915050565b6000611275838361124b565b9150826002028217905092915050565b61128e82610a7d565b67ffffffffffffffff8111156112a7576112a6610be9565b5b6112b18254610f8f565b6112bc8282856111f8565b600060209050601f8311600181146112ef57600084156112dd578287015190505b6112e78582611269565b86555061134f565b601f1984166112fd866110e3565b60005b8281101561132557848901518255600182019150602085019450602081019050611300565b86831015611342578489015161133e601f89168261124b565b8355505b6001600288020188555050505b505050505050565b600060608201905061136c6000830186610a6e565b6113796020830185610b5a565b818103604083015261138b8184610ad4565b9050949350505050565b7f4e487b7100000000000000000000000000000000000000000000000000000000600052601160045260246000fd5b60006113cf82610a0b565b91507fffffffffffffffffffffffffffffffffffffffffffffffffffffffffffffffff820361140157611400611395565b5b600182019050919050565b7f4c612070726f7075657374612079612066756520656a65637574616461000000600082015250565b6000611442601d83610a88565b915061144d8261140c565b602082019050919050565b6000602082019050818103600083015261147181611435565b9050919050565b7f4e487b7100000000000000000000000000000000000000000000000000000000600052601260045260246000fd5b60006114b282610a0b565b91506114bd83610a0b565b9250826114cd576114cc611478565b5b828204905092915050565b7f4c612070726f707565737461206e6f20616c63616e7a6f206c61206d61796f7260008201527f696120646520766f746f7320286d61732064656c20353025206465206c61732060208201527f6672616363696f6e657329000000000000000000000000000000000000000000604082015250565b600061155a604b83610a88565b9150611565826114d8565b606082019050919050565b600060208201905081810360008301526115898161154d565b9050919050565b7f536f6c6f206c6f732070726f706965746172696f73206465206672616363696f60008201527f6e6573206465206573746520696e6d7565626c652070756564656e20766f746160208201527f7200000000000000000000000000000000000000000000000000000000000000604082015250565b6000611612604183610a88565b915061161d82611590565b606082019050919050565b6000602082019050818103600083015261164181611605565b9050919050565b7f59612068617320766f7461646f20656e20657374612070726f70756573746100600082015250565b600061167e601f83610a88565b915061168982611648565b602082019050919050565b600060208201905081810360008301526116ad81611671565b9050919050565b60006116bf82610a0b565b91506116ca83610a0b565b92508282019050808211156116e2576116e1611395565b5b92915050565b60006060820190506116fd6000830186610a6e565b61170a6020830185610b5a565b6117176040830184610b19565b94935050505056fea2646970667358221220f17c112be796d6520fecab23fd72e1db869119a5d1aaac7c0a6ec1a485185b6864736f6c634300081c0033",
  "linkReferences": {},
  "deployedLinkReferences": {}
}