{
  "_format": "hh-sol-artifact-1",
  "contractName": "DAO",
  "sourceName": "contracts/DAO.sol",
  "abi": [
    {
      "inputs": [
        {
          "internalType": "address",
          "name": "_realEstateNFTAddress",
          "type": "address"
        }
      ],
      "stateMutability": "nonpayable",
      "type": "constructor"
    },
    {
      "anonymous": false,
      "inputs": [
        {
          "indexed": false,
          "internalType": "uint256",
          "name": "id",
          "type": "uint256"
        },
        {
          "indexed": false,
          "internalType": "address",
          "name": "proposer",
          "type": "address"
        },
        {
          "indexed": false,
          "internalType": "string",
          "name": "description",
          "type": "string"
        }
      ],
      "name": "ProposalCreated",
      "type": "event"
    },
    {
      "anonymous": false,
      "inputs": [
        {
          "indexed": false,
          "internalType": "uint256",
          "name": "proposalId",
          "type": "uint256"
        },
        {
          "indexed": false,
          "internalType": "address",
          "name": "voter",
          "type": "address"
        },
        {
          "indexed": false,
          "internalType": "bool",
          "name": "voteYes",
          "type": "bool"
        }
      ],
      "name": "Voted",
      "type": "event"
    },
    {
      "inputs": [
        {
          "internalType": "uint256",
          "name": "_tokenId",
          "type": "uint256"
        },
        {
          "internalType": "string",
          "name": "_description",
          "type": "string"
        }
      ],
      "name": "createProposal",
      "outputs": [],
      "stateMutability": "nonpayable",
      "type": "function"
    },
    {
      "inputs": [
        {
          "internalType": "uint256",
          "name": "_proposalId",
          "type": "uint256"
        }
      ],
      "name": "executeProposal",
      "outputs": [],
      "stateMutability": "nonpayable",
      "type": "function"
    },
    {
      "inputs": [
        {
          "internalType": "uint256",
          "name": "_proposalId",
          "type": "uint256"
        }
      ],
      "name": "getProposal",
      "outputs": [
        {
          "internalType": "uint256",
          "name": "id",
          "type": "uint256"
        },
        {
          "internalType": "string",
          "name": "description",
          "type": "string"
        },
        {
          "internalType": "uint256",
          "name": "yesVotes",
          "type": "uint256"
        },
        {
          "internalType": "uint256",
          "name": "noVotes",
          "type": "uint256"
        },
        {
          "internalType": "bool",
          "name": "executed",
          "type": "bool"
        },
        {
          "internalType": "address",
          "name": "proposer",
          "type": "address"
        }
      ],
      "stateMutability": "view",
      "type": "function"
    },
    {
      "inputs": [
        {
          "internalType": "uint256",
          "name": "_proposalId",
          "type": "uint256"
        },
        {
          "internalType": "address",
          "name": "_voter",
          "type": "address"
        }
      ],
      "name": "hasVoted",
      "outputs": [
        {
          "internalType": "bool",
          "name": "",
          "type": "bool"
        }
      ],
      "stateMutability": "view",
      "type": "function"
    },
    {
      "inputs": [],
      "name": "proposalCount",
      "outputs": [
        {
          "internalType": "uint256",
          "name": "",
          "type": "uint256"
        }
      ],
      "stateMutability": "view",
      "type": "function"
    },
    {
      "inputs": [
        {
          "internalType": "uint256",
          "name": "",
          "type": "uint256"
        }
      ],
      "name": "proposals",
      "outputs": [
        {
          "internalType": "uint256",
          "name": "id",
          "type": "uint256"
        },
        {
          "internalType": "uint256",
          "name": "tokenId",
          "type": "uint256"
        },
        {
          "internalType": "string",
          "name": "description",
          "type": "string"
        },
        {
          "internalType": "uint256",
          "name": "yesVotes",
          "type": "uint256"
        },
        {
          "internalType": "uint256",
          "name": "noVotes",
          "type": "uint256"
        },
        {
          "internalType": "bool",
          "name": "executed",
          "type": "bool"
        },
        {
          "internalType": "address",
          "name": "proposer",
          "type": "address"
        }
      ],
      "stateMutability": "view",
      "type": "function"
    },
    {
      "inputs": [],
      "name": "realEstateNFT",
      "outputs": [
        {
          "internalType": "contract RealEstate",
          "name": "",
          "type": "address"
        }
      ],
      "stateMutability": "view",
      "type": "function"
    },
    {
      "inputs": [
        {
          "internalType": "uint256",
          "name": "_proposalId",
          "type": "uint256"
        },
        {
          "internalType": "bool",
          "name": "_voteYes",
          "type": "bool"
        }
      ],
      "name": "vote",
      "outputs": [],
      "stateMutability": "nonpayable",
      "type": "function"
    }
  ],
  "bytecode": "0x6080604052348015600f57600080fd5b50604051610d98380380610d98833981016040819052602c916050565b600080546001600160a01b0319166001600160a01b0392909216919091179055607e565b600060208284031215606157600080fd5b81516001600160a01b0381168114607757600080fd5b9392505050565b610d0b8061008d6000396000f3fe608060405234801561001057600080fd5b50600436106100885760003560e01c8063708cfe491161005b578063708cfe4914610107578063c7f758a814610132578063c9d27afe14610157578063da35c6641461016a57600080fd5b8063013cf08b1461008d57806302d52fa4146100bc5780630d61b519146100d157806343859632146100e4575b600080fd5b6100a061009b3660046108aa565b610181565b6040516100b39796959493929190610909565b60405180910390f35b6100cf6100ca36600461096d565b610255565b005b6100cf6100df3660046108aa565b6103f5565b6100f76100f2366004610a30565b61057e565b60405190151581526020016100b3565b60005461011a906001600160a01b031681565b6040516001600160a01b0390911681526020016100b3565b6101456101403660046108aa565b6105ae565b6040516100b396959493929190610a6c565b6100cf610165366004610ab3565b61069d565b61017360015481565b6040519081526020016100b3565b6002602081905260009182526040909120805460018201549282018054919392916101ab90610add565b80601f01602080910402602001604051908101604052809291908181526020018280546101d790610add565b80156102245780601f106101f957610100808354040283529160200191610224565b820191906000526020600020905b81548152906001019060200180831161020757829003601f168201915b50505050600383015460048401546005909401549293909290915060ff81169061010090046001600160a01b031687565b60008054604051625f1aad60e61b8152600481018590523360248201526001600160a01b03909116906317c6ab4090604401602060405180830381865afa1580156102a4573d6000803e3d6000fd5b505050506040513d601f19601f820116820180604052508101906102c89190610b17565b116103555760405162461bcd60e51b815260206004820152604c60248201527f536f6c6f206c6f732070726f706965746172696f73206465206672616363696f60448201527f6e6573206465206573746520696e6d7565626c652070756564656e206372656160648201526b722070726f7075657374617360a01b608482015260a4015b60405180910390fd5b6001805460008181526002602081905260409091209182559181018490559081016103808382610b7f565b50600581018054610100600160a81b031916336101008102919091179091556001546040517f7585f467599d0f008985f231af99293be388626ac16ca59505c2f8f88969cd63926103d392918690610c3e565b60405180910390a1600180549060006103eb83610c87565b9190505550505050565b600081815260026020526040808220825460018201549251633709417960e01b81529193926001600160a01b039091169163370941799161043c9160040190815260200190565b602060405180830381865afa158015610459573d6000803e3d6000fd5b505050506040513d601f19601f8201168201806040525081019061047d9190610b17565b600583015490915060ff16156104d55760405162461bcd60e51b815260206004820152601d60248201527f4c612070726f7075657374612079612066756520656a65637574616461000000604482015260640161034c565b6104e0600282610ca0565b82600301541161056c5760405162461bcd60e51b815260206004820152604b60248201527f4c612070726f707565737461206e6f20616c63616e7a6f206c61206d61796f7260448201527f696120646520766f746f7320286d61732064656c20353025206465206c61732060648201526a6672616363696f6e65732960a81b608482015260a40161034c565b50600501805460ff1916600117905550565b60008281526002602090815260408083206001600160a01b038516845260060190915290205460ff165b92915050565b6000818152600260208190526040822080546003820154600483015460058401549484018054606096889687968796879692959194919390929160ff82169161010090046001600160a01b031690859061060790610add565b80601f016020809104026020016040519081016040528092919081815260200182805461063390610add565b80156106805780601f1061065557610100808354040283529160200191610680565b820191906000526020600020905b81548152906001019060200180831161066357829003601f168201915b505050505094509650965096509650965096505091939550919395565b600082815260026020526040808220825460018201549251625f1aad60e61b815260048101939093523360248401529092916001600160a01b03909116906317c6ab4090604401602060405180830381865afa158015610701573d6000803e3d6000fd5b505050506040513d601f19601f820116820180604052508101906107259190610b17565b9050600081116107a75760405162461bcd60e51b815260206004820152604160248201527f536f6c6f206c6f732070726f706965746172696f73206465206672616363696f60448201527f6e6573206465206573746520696e6d7565626c652070756564656e20766f74616064820152603960f91b608482015260a40161034c565b33600090815260068301602052604090205460ff16156108095760405162461bcd60e51b815260206004820152601f60248201527f59612068617320766f7461646f20656e20657374612070726f70756573746100604482015260640161034c565b3360009081526006830160205260409020805460ff19166001179055821561084a578082600301600082825461083f9190610cc2565b909155506108649050565b8082600401600082825461085e9190610cc2565b90915550505b604080518581523360208201528415158183015290517ff2913dbe661ee2acc4a046d8fbcdc792373bda34c41c6086484b5345e5785e5f9181900360600190a150505050565b6000602082840312156108bc57600080fd5b5035919050565b6000815180845260005b818110156108e9576020818501810151868301820152016108cd565b506000602082860101526020601f19601f83011685010191505092915050565b87815286602082015260e06040820152600061092860e08301886108c3565b606083019690965250608081019390935290151560a08301526001600160a01b031660c0909101529392505050565b634e487b7160e01b600052604160045260246000fd5b6000806040838503121561098057600080fd5b82359150602083013567ffffffffffffffff81111561099e57600080fd5b8301601f810185136109af57600080fd5b803567ffffffffffffffff8111156109c9576109c9610957565b604051601f8201601f19908116603f0116810167ffffffffffffffff811182821017156109f8576109f8610957565b604052818152828201602001871015610a1057600080fd5b816020840160208301376000602083830101528093505050509250929050565b60008060408385031215610a4357600080fd5b8235915060208301356001600160a01b0381168114610a6157600080fd5b809150509250929050565b86815260c060208201526000610a8560c08301886108c3565b604083019690965250606081019390935290151560808301526001600160a01b031660a09091015292915050565b60008060408385031215610ac657600080fd5b8235915060208301358015158114610a6157600080fd5b600181811c90821680610af157607f821691505b602082108103610b1157634e487b7160e01b600052602260045260246000fd5b50919050565b600060208284031215610b2957600080fd5b5051919050565b601f821115610b7a57806000526020600020601f840160051c81016020851015610b575750805b601f840160051c820191505b81811015610b775760008155600101610b63565b50505b505050565b815167ffffffffffffffff811115610b9957610b99610957565b610bad81610ba78454610add565b84610b30565b6020601f821160018114610be15760008315610bc95750848201515b600019600385901b1c1916600184901b178455610b77565b600084815260208120601f198516915b82811015610c115787850151825560209485019460019092019101610bf1565b5084821015610c2f5786840151600019600387901b60f8161c191681555b50505050600190811b01905550565b8381526001600160a01b0383166020820152606060408201819052600090610c68908301846108c3565b95945050505050565b634e487b7160e01b600052601160045260246000fd5b600060018201610c9957610c99610c71565b5060010190565b600082610cbd57634e487b7160e01b600052601260045260246000fd5b500490565b808201808211156105a8576105a8610c7156fea26469706673582212208281c154d17a8e0961eadad68a6449cee68bc096e2b0787d84e4944e3a6e7f2464736f6c634300081c0033",
  "linkReferences": {},
  "deployedLinkReferences": {}
}