{
  "_format": "hh-sol-artifact-1",
  "contractName": "Fraction",
  "sourceName": "contracts/Fraction.sol",
  "abi": [
    {
      "inputs": [
        {
          "internalType": "string",
          "name": "_name",
          "type": "string"
        },
        {
          "internalType": "string",
          "name": "_symbol",
          "type": "string"
        }
      ],
      "stateMutability": "nonpayable",
      "type": "constructor"
    },
    {
      "inputs": [
        {
          "internalType": "address",
          "name": "spender",
          "type": "address"
        },
        {
          "internalType": "uint256",
          "name": "allowance",
          "type": "uint256"
        },
        {
          "internalType": "uint256",
          "name": "needed",
          "type": "uint256"
        }
      ],
      "name": "ERC20InsufficientAllowance",
      "type": "error"
    },
    {
      "inputs": [
        {
          "internalType": "address",
          "name": "sender",
          "type": "address"
        },
        {
          "internalType": "uint256",
          "name": "balance",
          "type": "uint256"
        },
        {
          "internalType": "uint256",
          "name": "needed",
          "type": "uint256"
        }
      ],
      "name": "ERC20InsufficientBalance",
      "type": "error"
    },
    {
      "inputs": [
        {
          "internalType": "address",
          "name": "approver",
          "type": "address"
        }
      ],
      "name": "ERC20InvalidApprover",
      "type": "error"
    },
    {
      "inputs": [
        {
          "internalType": "address",
          "name": "receiver",
          "type": "address"
        }
      ],
      "name": "ERC20InvalidReceiver",
      "type": "error"
    },
    {
      "inputs": [
        {
          "internalType": "address",
          "name": "sender",
          "type": "address"
        }
      ],
      "name": "ERC20InvalidSender",
      "type": "error"
    },
    {
      "inputs": [
        {
          "internalType": "address",
          "name": "spender",
          "type": "address"
        }
      ],
      "name": "ERC20InvalidSpender",
      "type": "error"
    },
    {
      "inputs": [
        {
          "internalType": "address",
          "name": "owner",
          "type": "address"
        }
      ],
      "name": "OwnableInvalidOwner",
      "type": "error"
    },
    {
      "inputs": [
        {
          "internalType": "address",
          "name": "account",
          "type": "address"
        }
      ],
      "name": "OwnableUnauthorizedAccount",
      "type": "error"
    },
    {
      "anonymous": false,
      "inputs": [
        {
          "indexed": true,
          "internalType": "address",
          "name": "owner",
          "type": "address"
        },
        {
          "indexed": true,
          "internalType": "address",
          "name": "spender",
          "type": "address"
        },
        {
          "indexed": false,
          "internalType": "uint256",
          "name": "value",
          "type": "uint256"
        }
      ],
      "name": "Approval",
      "type": "event"
    },
    {
      "anonymous": false,
      "inputs": [
        {
          "indexed": true,
          "internalType": "address",
          "name": "previousOwner",
          "type": "address"
        },
        {
          "indexed": true,
          "internalType": "address",
          "name": "newOwner",
          "type": "address"
        }
      ],
      "name": "OwnershipTransferred",
      "type": "event"
    },
    {
      "anonymous": false,
      "inputs": [
        {
          "indexed": false,
          "internalType": "address",
          "name": "from",
          "type": "address"
        },
        {
          "indexed": false,
          "internalType": "uint256",
          "name": "amount",
          "type": "uint256"
        }
      ],
      "name": "PaymentReceived",
      "type": "event"
    },
    {
      "anonymous": false,
      "inputs": [
        {
          "indexed": false,
          "internalType": "address",
          "name": "to",
          "type": "address"
        },
        {
          "indexed": false,
          "internalType": "uint256",
          "name": "amount",
          "type": "uint256"
        }
      ],
      "name": "PaymentReleased",
      "type": "event"
    },
    {
      "anonymous": false,
      "inputs": [
        {
          "indexed": true,
          "internalType": "address",
          "name": "from",
          "type": "address"
        },
        {
          "indexed": true,
          "internalType": "address",
          "name": "to",
          "type": "address"
        },
        {
          "indexed": false,
          "internalType": "uint256",
          "name": "value",
          "type": "uint256"
        }
      ],
      "name": "Transfer",
      "type": "event"
    },
    {
      "inputs": [
        {
          "internalType": "address",
          "name": "owner",
          "type": "address"
        },
        {
          "internalType": "address",
          "name": "spender",
          "type": "address"
        }
      ],
      "name": "allowance",
      "outputs": [
        {
          "internalType": "uint256",
          "name": "",
          "type": "uint256"
        }
      ],
      "stateMutability": "view",
      "type": "function"
    },
    {
      "inputs": [
        {
          "internalType": "address",
          "name": "spender",
          "type": "address"
        },
        {
          "internalType": "uint256",
          "name": "value",
          "type": "uint256"
        }
      ],
      "name": "approve",
      "outputs": [
        {
          "internalType": "bool",
          "name": "",
          "type": "bool"
        }
      ],
      "stateMutability": "nonpayable",
      "type": "function"
    },
    {
      "inputs": [
        {
          "internalType": "address",
          "name": "account",
          "type": "address"
        }
      ],
      "name": "balanceOf",
      "outputs": [
        {
          "internalType": "uint256",
          "name": "",
          "type": "uint256"
        }
      ],
      "stateMutability": "view",
      "type": "function"
    },
    {
      "inputs": [],
      "name": "decimals",
      "outputs": [
        {
          "internalType": "uint8",
          "name": "",
          "type": "uint8"
        }
      ],
      "stateMutability": "view",
      "type": "function"
    },
    {
      "inputs": [],
      "name": "initialOwner",
      "outputs": [
        {
          "internalType": "address",
          "name": "",
          "type": "address"
        }
      ],
      "stateMutability": "view",
      "type": "function"
    },
    {
      "inputs": [
        {
          "internalType": "address",
          "name": "_realEstateNFTAddress",
          "type": "address"
        },
        {
          "internalType": "uint256",
          "name": "_tokenId",
          "type": "uint256"
        },
        {
          "internalType": "uint256",
          "name": "_supply",
          "type": "uint256"
        },
        {
          "internalType": "address",
          "name": "_initialOwner",
          "type": "address"
        },
        {
          "internalType": "uint256",
          "name": "_pricePerFraction",
          "type": "uint256"
        }
      ],
      "name": "initialize",
      "outputs": [],
      "stateMutability": "nonpayable",
      "type": "function"
    },
    {
      "inputs": [],
      "name": "name",
      "outputs": [
        {
          "internalType": "string",
          "name": "",
          "type": "string"
        }
      ],
      "stateMutability": "view",
      "type": "function"
    },
    {
      "inputs": [],
      "name": "owner",
      "outputs": [
        {
          "internalType": "address",
          "name": "",
          "type": "address"
        }
      ],
      "stateMutability": "view",
      "type": "function"
    },
    {
      "inputs": [],
      "name": "pricePerFraction",
      "outputs": [
        {
          "internalType": "uint256",
          "name": "",
          "type": "uint256"
        }
      ],
      "stateMutability": "view",
      "type": "function"
    },
    {
      "inputs": [
        {
          "internalType": "uint256",
          "name": "numberOfTokens",
          "type": "uint256"
        }
      ],
      "name": "purchase",
      "outputs": [],
      "stateMutability": "payable",
      "type": "function"
    },
    {
      "inputs": [],
      "name": "realEstateNFT",
      "outputs": [
        {
          "internalType": "contract IERC721",
          "name": "",
          "type": "address"
        }
      ],
      "stateMutability": "view",
      "type": "function"
    },
    {
      "inputs": [],
      "name": "redeem",
      "outputs": [],
      "stateMutability": "nonpayable",
      "type": "function"
    },
    {
      "inputs": [
        {
          "internalType": "address",
          "name": "",
          "type": "address"
        }
      ],
      "name": "released",
      "outputs": [
        {
          "internalType": "uint256",
          "name": "",
          "type": "uint256"
        }
      ],
      "stateMutability": "view",
      "type": "function"
    },
    {
      "inputs": [],
      "name": "renounceOwnership",
      "outputs": [],
      "stateMutability": "nonpayable",
      "type": "function"
    },
    {
      "inputs": [],
      "name": "symbol",
      "outputs": [
        {
          "internalType": "string",
          "name": "",
          "type": "string"
        }
      ],
      "stateMutability": "view",
      "type": "function"
    },
    {
      "inputs": [],
      "name": "tokenId",
      "outputs": [
        {
          "internalType": "uint256",
          "name": "",
          "type": "uint256"
        }
      ],
      "stateMutability": "view",
      "type": "function"
    },
    {
      "inputs": [],
      "name": "totalReleased",
      "outputs": [
        {
          "internalType": "uint256",
          "name": "",
          "type": "uint256"
        }
      ],
      "stateMutability": "view",
      "type": "function"
    },
    {
      "inputs": [],
      "name": "totalSupply",
      "outputs": [
        {
          "internalType": "uint256",
          "name": "",
          "type": "uint256"
        }
      ],
      "stateMutability": "view",
      "type": "function"
    },
    {
      "inputs": [
        {
          "internalType": "address",
          "name": "to",
          "type": "address"
        },
        {
          "internalType": "uint256",
          "name": "value",
          "type": "uint256"
        }
      ],
      "name": "transfer",
      "outputs": [
        {
          "internalType": "bool",
          "name": "",
          "type": "bool"
        }
      ],
      "stateMutability": "nonpayable",
      "type": "function"
    },
    {
      "inputs": [
        {
          "internalType": "address",
          "name": "from",
          "type": "address"
        },
        {
          "internalType": "address",
          "name": "to",
          "type": "address"
        },
        {
          "internalType": "uint256",
          "name": "value",
          "type": "uint256"
        }
      ],
      "name": "transferFrom",
      "outputs": [
        {
          "internalType": "bool",
          "name": "",
          "type": "bool"
        }
      ],
      "stateMutability": "nonpayable",
      "type": "function"
    },
    {
      "inputs": [
        {
          "internalType": "address",
          "name": "newOwner",
          "type": "address"
        }
      ],
      "name": "transferOwnership",
      "outputs": [],
      "stateMutability": "nonpayable",
      "type": "function"
    },
    {
      "inputs": [],
      "name": "withdraw",
      "outputs": [],
      "stateMutability": "nonpayable",
      "type": "function"
    },
    {
      "stateMutability": "payable",
      "type": "receive"
    }
  ],
  "bytecode": "0x608060405234801561001057600080fd5b50604051612abe380380612abe8339818101604052810190610032919061031b565b338282816003908161004491906105b4565b50806004908161005491906105b4565b505050600073ffffffffffffffffffffffffffffffffffffffff168173ffffffffffffffffffffffffffffffffffffffff16036100c95760006040517f1e4fbdf70000000000000000000000000000000000000000000000000000000081526004016100c091906106c7565b60405180910390fd5b6100d8816100e060201b60201c565b5050506106e2565b6000600560009054906101000a900473ffffffffffffffffffffffffffffffffffffffff16905081600560006101000a81548173ffffffffffffffffffffffffffffffffffffffff021916908373ffffffffffffffffffffffffffffffffffffffff1602179055508173ffffffffffffffffffffffffffffffffffffffff168173ffffffffffffffffffffffffffffffffffffffff167f8be0079c531659141344cd1fd0a4f28419497f9722a3daafe3b4186f6b6457e060405160405180910390a35050565b6000604051905090565b600080fd5b600080fd5b600080fd5b600080fd5b6000601f19601f8301169050919050565b7f4e487b7100000000000000000000000000000000000000000000000000000000600052604160045260246000fd5b61020d826101c4565b810181811067ffffffffffffffff8211171561022c5761022b6101d5565b5b80604052505050565b600061023f6101a6565b905061024b8282610204565b919050565b600067ffffffffffffffff82111561026b5761026a6101d5565b5b610274826101c4565b9050602081019050919050565b60005b8381101561029f578082015181840152602081019050610284565b60008484015250505050565b60006102be6102b984610250565b610235565b9050828152602081018484840111156102da576102d96101bf565b5b6102e5848285610281565b509392505050565b600082601f830112610302576103016101ba565b5b81516103128482602086016102ab565b91505092915050565b60008060408385031215610332576103316101b0565b5b600083015167ffffffffffffffff8111156103505761034f6101b5565b5b61035c858286016102ed565b925050602083015167ffffffffffffffff81111561037d5761037c6101b5565b5b610389858286016102ed565b9150509250929050565b600081519050919050565b7f4e487b7100000000000000000000000000000000000000000000000000000000600052602260045260246000fd5b600060028204905060018216806103e557607f821691505b6020821081036103f8576103f761039e565b5b50919050565b60008190508160005260206000209050919050565b60006020601f8301049050919050565b600082821b905092915050565b6000600883026104607fffffffffffffffffffffffffffffffffffffffffffffffffffffffffffffffff82610423565b61046a8683610423565b95508019841693508086168417925050509392505050565b6000819050919050565b6000819050919050565b60006104b16104ac6104a784610482565b61048c565b610482565b9050919050565b6000819050919050565b6104cb83610496565b6104df6104d7826104b8565b848454610430565b825550505050565b600090565b6104f46104e7565b6104ff8184846104c2565b505050565b5b81811015610523576105186000826104ec565b600181019050610505565b5050565b601f82111561056857610539816103fe565b61054284610413565b81016020851015610551578190505b61056561055d85610413565b830182610504565b50505b505050565b600082821c905092915050565b600061058b6000198460080261056d565b1980831691505092915050565b60006105a4838361057a565b9150826002028217905092915050565b6105bd82610393565b67ffffffffffffffff8111156105d6576105d56101d5565b5b6105e082546103cd565b6105eb828285610527565b600060209050601f83116001811461061e576000841561060c578287015190505b6106168582610598565b86555061067e565b601f19841661062c866103fe565b60005b828110156106545784890151825560018201915060208501945060208101905061062f565b86831015610671578489015161066d601f89168261057a565b8355505b6001600288020188555050505b505050505050565b600073ffffffffffffffffffffffffffffffffffffffff82169050919050565b60006106b182610686565b9050919050565b6106c1816106a6565b82525050565b60006020820190506106dc60008301846106b8565b92915050565b6123cd806106f16000396000f3fe6080604052600436106101395760003560e01c8063715018a6116100ab578063a9059cbb1161006f578063a9059cbb1461044c578063be040fb014610489578063dd62ed3e146104a0578063e33b7de3146104dd578063efef39a114610508578063f2fde38b1461052457610179565b8063715018a6146103775780637f82ed471461038e5780638da5cb5b146103b957806395d89b41146103e45780639852595c1461040f57610179565b806323b872dd116100fd57806323b872dd1461026557806329ba7bb2146102a2578063313ce567146102cd5780633ccfd60b146102f8578063708cfe491461030f57806370a082311461033a57610179565b806306fdde031461017e578063095ea7b3146101a957806317d70f7c146101e657806318160ddd146102115780631a1ff6c01461023c57610179565b36610179577f6ef95f06320e7a25a04a175ca677b7052bdd97131872c2192525a629f51be770333460405161016f92919061189d565b60405180910390a1005b600080fd5b34801561018a57600080fd5b5061019361054d565b6040516101a09190611956565b60405180910390f35b3480156101b557600080fd5b506101d060048036038101906101cb91906119d5565b6105df565b6040516101dd9190611a30565b60405180910390f35b3480156101f257600080fd5b506101fb610602565b6040516102089190611a4b565b60405180910390f35b34801561021d57600080fd5b50610226610608565b6040516102339190611a4b565b60405180910390f35b34801561024857600080fd5b50610263600480360381019061025e9190611a66565b610612565b005b34801561027157600080fd5b5061028c60048036038101906102879190611ae1565b61079c565b6040516102999190611a30565b60405180910390f35b3480156102ae57600080fd5b506102b76107cb565b6040516102c49190611b34565b60405180910390f35b3480156102d957600080fd5b506102e26107f1565b6040516102ef9190611b6b565b60405180910390f35b34801561030457600080fd5b5061030d6107fa565b005b34801561031b57600080fd5b50610324610a4b565b6040516103319190611be5565b60405180910390f35b34801561034657600080fd5b50610361600480360381019061035c9190611c00565b610a71565b60405161036e9190611a4b565b60405180910390f35b34801561038357600080fd5b5061038c610ab9565b005b34801561039a57600080fd5b506103a3610acd565b6040516103b09190611a4b565b60405180910390f35b3480156103c557600080fd5b506103ce610ad3565b6040516103db9190611b34565b60405180910390f35b3480156103f057600080fd5b506103f9610afd565b6040516104069190611956565b60405180910390f35b34801561041b57600080fd5b5061043660048036038101906104319190611c00565b610b8f565b6040516104439190611a4b565b60405180910390f35b34801561045857600080fd5b50610473600480360381019061046e91906119d5565b610ba7565b6040516104809190611a30565b60405180910390f35b34801561049557600080fd5b5061049e610bca565b005b3480156104ac57600080fd5b506104c760048036038101906104c29190611c2d565b610cde565b6040516104d49190611a4b565b60405180910390f35b3480156104e957600080fd5b506104f2610d65565b6040516104ff9190611a4b565b60405180910390f35b610522600480360381019061051d9190611c6d565b610d6b565b005b34801561053057600080fd5b5061054b60048036038101906105469190611c00565b610fcd565b005b60606003805461055c90611cc9565b80601f016020809104026020016040519081016040528092919081815260200182805461058890611cc9565b80156105d55780601f106105aa576101008083540402835291602001916105d5565b820191906000526020600020905b8154815290600101906020018083116105b857829003601f168201915b5050505050905090565b6000806105ea611053565b90506105f781858561105b565b600191505092915050565b60075481565b6000600254905090565b600060075414610657576040517f08c379a000000000000000000000000000000000000000000000000000000000815260040161064e90611d46565b60405180910390fd5b84600660006101000a81548173ffffffffffffffffffffffffffffffffffffffff021916908373ffffffffffffffffffffffffffffffffffffffff1602179055508360078190555081600860006101000a81548173ffffffffffffffffffffffffffffffffffffffff021916908373ffffffffffffffffffffffffffffffffffffffff1602179055508060098190555061070482670de0b6b3a7640000856106ff9190611d95565b61106d565b600660009054906101000a900473ffffffffffffffffffffffffffffffffffffffff1673ffffffffffffffffffffffffffffffffffffffff166323b872dd8330876040518463ffffffff1660e01b815260040161076393929190611dd7565b600060405180830381600087803b15801561077d57600080fd5b505af1158015610791573d6000803e3d6000fd5b505050505050505050565b6000806107a7611053565b90506107b48582856110ef565b6107bf858585611184565b60019150509392505050565b600860009054906101000a900473ffffffffffffffffffffffffffffffffffffffff1681565b60006012905090565b6000600b544761080a9190611e0e565b9050600061081733610a71565b90506000610823610608565b905060008214806108345750600081145b1561084157505050610a49565b60008183856108509190611d95565b61085a9190611e71565b90506000600a60003373ffffffffffffffffffffffffffffffffffffffff1673ffffffffffffffffffffffffffffffffffffffff16815260200190815260200160002054826108a99190611ea2565b9050600081116108ee576040517f08c379a00000000000000000000000000000000000000000000000000000000081526004016108e590611f22565b60405180910390fd5b80600a60003373ffffffffffffffffffffffffffffffffffffffff1673ffffffffffffffffffffffffffffffffffffffff168152602001908152602001600020600082825461093d9190611e0e565b9250508190555080600b60008282546109569190611e0e565b9250508190555060003373ffffffffffffffffffffffffffffffffffffffff168260405161098390611f73565b60006040518083038185875af1925050503d80600081146109c0576040519150601f19603f3d011682016040523d82523d6000602084013e6109c5565b606091505b5050905080610a09576040517f08c379a0000000000000000000000000000000000000000000000000000000008152600401610a0090611fd4565b60405180910390fd5b7fdf20fd1e76bc69d672e4814fafb2c449bba3a5369d8359adf9e05e6fde87b0563383604051610a3a92919061189d565b60405180910390a15050505050505b565b600660009054906101000a900473ffffffffffffffffffffffffffffffffffffffff1681565b60008060008373ffffffffffffffffffffffffffffffffffffffff1673ffffffffffffffffffffffffffffffffffffffff168152602001908152602001600020549050919050565b610ac1611278565b610acb60006112ff565b565b60095481565b6000600560009054906101000a900473ffffffffffffffffffffffffffffffffffffffff16905090565b606060048054610b0c90611cc9565b80601f0160208091040260200160405190810160405280929190818152602001828054610b3890611cc9565b8015610b855780601f10610b5a57610100808354040283529160200191610b85565b820191906000526020600020905b815481529060010190602001808311610b6857829003601f168201915b5050505050905090565b600a6020528060005260406000206000915090505481565b600080610bb2611053565b9050610bbf818585611184565b600191505092915050565b610bd2611278565b610bda610608565b610bea610be5610ad3565b610a71565b14610c2a576040517f08c379a0000000000000000000000000000000000000000000000000000000008152600401610c2190612066565b60405180910390fd5b610c42610c35610ad3565b610c3d610608565b6113c5565b600660009054906101000a900473ffffffffffffffffffffffffffffffffffffffff1673ffffffffffffffffffffffffffffffffffffffff166323b872dd30610c89610ad3565b6007546040518463ffffffff1660e01b8152600401610caa93929190611dd7565b600060405180830381600087803b158015610cc457600080fd5b505af1158015610cd8573d6000803e3d6000fd5b50505050565b6000600160008473ffffffffffffffffffffffffffffffffffffffff1673ffffffffffffffffffffffffffffffffffffffff16815260200190815260200160002060008373ffffffffffffffffffffffffffffffffffffffff1673ffffffffffffffffffffffffffffffffffffffff16815260200190815260200160002054905092915050565b600b5481565b600060095411610db0576040517f08c379a0000000000000000000000000000000000000000000000000000000008152600401610da7906120f8565b60405180910390fd5b60008111610df3576040517f08c379a0000000000000000000000000000000000000000000000000000000008152600401610dea9061218a565b60405180910390fd5b6000600954670de0b6b3a764000083610e0c9190611e71565b610e169190611d95565b9050803414610e5a576040517f08c379a0000000000000000000000000000000000000000000000000000000008152600401610e519061221c565b60405180910390fd5b6000610e87600860009054906101000a900473ffffffffffffffffffffffffffffffffffffffff16610a71565b905082811015610ecc576040517f08c379a0000000000000000000000000000000000000000000000000000000008152600401610ec3906122ae565b60405180910390fd5b610ef9600860009054906101000a900473ffffffffffffffffffffffffffffffffffffffff163385611184565b6000600860009054906101000a900473ffffffffffffffffffffffffffffffffffffffff1673ffffffffffffffffffffffffffffffffffffffff1634604051610f4190611f73565b60006040518083038185875af1925050503d8060008114610f7e576040519150601f19603f3d011682016040523d82523d6000602084013e610f83565b606091505b5050905080610fc7576040517f08c379a0000000000000000000000000000000000000000000000000000000008152600401610fbe90612340565b60405180910390fd5b50505050565b610fd5611278565b600073ffffffffffffffffffffffffffffffffffffffff168173ffffffffffffffffffffffffffffffffffffffff16036110475760006040517f1e4fbdf700000000000000000000000000000000000000000000000000000000815260040161103e9190611b34565b60405180910390fd5b611050816112ff565b50565b600033905090565b6110688383836001611447565b505050565b600073ffffffffffffffffffffffffffffffffffffffff168273ffffffffffffffffffffffffffffffffffffffff16036110df5760006040517fec442f050000000000000000000000000000000000000000000000000000000081526004016110d69190611b34565b60405180910390fd5b6110eb6000838361161e565b5050565b60006110fb8484610cde565b90507fffffffffffffffffffffffffffffffffffffffffffffffffffffffffffffffff81101561117e578181101561116e578281836040517ffb8f41b200000000000000000000000000000000000000000000000000000000815260040161116593929190612360565b60405180910390fd5b61117d84848484036000611447565b5b50505050565b600073ffffffffffffffffffffffffffffffffffffffff168373ffffffffffffffffffffffffffffffffffffffff16036111f65760006040517f96c6fd1e0000000000000000000000000000000000000000000000000000000081526004016111ed9190611b34565b60405180910390fd5b600073ffffffffffffffffffffffffffffffffffffffff168273ffffffffffffffffffffffffffffffffffffffff16036112685760006040517fec442f0500000000000000000000000000000000000000000000000000000000815260040161125f9190611b34565b60405180910390fd5b61127383838361161e565b505050565b611280611053565b73ffffffffffffffffffffffffffffffffffffffff1661129e610ad3565b73ffffffffffffffffffffffffffffffffffffffff16146112fd576112c1611053565b6040517f118cdaa70000000000000000000000000000000000000000000000000000000081526004016112f49190611b34565b60405180910390fd5b565b6000600560009054906101000a900473ffffffffffffffffffffffffffffffffffffffff16905081600560006101000a81548173ffffffffffffffffffffffffffffffffffffffff021916908373ffffffffffffffffffffffffffffffffffffffff1602179055508173ffffffffffffffffffffffffffffffffffffffff168173ffffffffffffffffffffffffffffffffffffffff167f8be0079c531659141344cd1fd0a4f28419497f9722a3daafe3b4186f6b6457e060405160405180910390a35050565b600073ffffffffffffffffffffffffffffffffffffffff168273ffffffffffffffffffffffffffffffffffffffff16036114375760006040517f96c6fd1e00000000000000000000000000000000000000000000000000000000815260040161142e9190611b34565b60405180910390fd5b6114438260008361161e565b5050565b600073ffffffffffffffffffffffffffffffffffffffff168473ffffffffffffffffffffffffffffffffffffffff16036114b95760006040517fe602df050000000000000000000000000000000000000000000000000000000081526004016114b09190611b34565b60405180910390fd5b600073ffffffffffffffffffffffffffffffffffffffff168373ffffffffffffffffffffffffffffffffffffffff160361152b5760006040517f94280d620000000000000000000000000000000000000000000000000000000081526004016115229190611b34565b60405180910390fd5b81600160008673ffffffffffffffffffffffffffffffffffffffff1673ffffffffffffffffffffffffffffffffffffffff16815260200190815260200160002060008573ffffffffffffffffffffffffffffffffffffffff1673ffffffffffffffffffffffffffffffffffffffff168152602001908152602001600020819055508015611618578273ffffffffffffffffffffffffffffffffffffffff168473ffffffffffffffffffffffffffffffffffffffff167f8c5be1e5ebec7d5bd14f71427d1e84f3dd0314c0f7b2291e5b200ac8c7c3b9258460405161160f9190611a4b565b60405180910390a35b50505050565b600073ffffffffffffffffffffffffffffffffffffffff168373ffffffffffffffffffffffffffffffffffffffff16036116705780600260008282546116649190611e0e565b92505081905550611743565b60008060008573ffffffffffffffffffffffffffffffffffffffff1673ffffffffffffffffffffffffffffffffffffffff168152602001908152602001600020549050818110156116fc578381836040517fe450d38c0000000000000000000000000000000000000000000000000000000081526004016116f393929190612360565b60405180910390fd5b8181036000808673ffffffffffffffffffffffffffffffffffffffff1673ffffffffffffffffffffffffffffffffffffffff16815260200190815260200160002081905550505b600073ffffffffffffffffffffffffffffffffffffffff168273ffffffffffffffffffffffffffffffffffffffff160361178c57806002600082825403925050819055506117d9565b806000808473ffffffffffffffffffffffffffffffffffffffff1673ffffffffffffffffffffffffffffffffffffffff168152602001908152602001600020600082825401925050819055505b8173ffffffffffffffffffffffffffffffffffffffff168373ffffffffffffffffffffffffffffffffffffffff167fddf252ad1be2c89b69c2b068fc378daa952ba7f163c4a11628f55a4df523b3ef836040516118369190611a4b565b60405180910390a3505050565b600073ffffffffffffffffffffffffffffffffffffffff82169050919050565b600061186e82611843565b9050919050565b61187e81611863565b82525050565b6000819050919050565b61189781611884565b82525050565b60006040820190506118b26000830185611875565b6118bf602083018461188e565b9392505050565b600081519050919050565b600082825260208201905092915050565b60005b838110156119005780820151818401526020810190506118e5565b60008484015250505050565b6000601f19601f8301169050919050565b6000611928826118c6565b61193281856118d1565b93506119428185602086016118e2565b61194b8161190c565b840191505092915050565b60006020820190508181036000830152611970818461191d565b905092915050565b600080fd5b61198681611863565b811461199157600080fd5b50565b6000813590506119a38161197d565b92915050565b6119b281611884565b81146119bd57600080fd5b50565b6000813590506119cf816119a9565b92915050565b600080604083850312156119ec576119eb611978565b5b60006119fa85828601611994565b9250506020611a0b858286016119c0565b9150509250929050565b60008115159050919050565b611a2a81611a15565b82525050565b6000602082019050611a456000830184611a21565b92915050565b6000602082019050611a60600083018461188e565b92915050565b600080600080600060a08688031215611a8257611a81611978565b5b6000611a9088828901611994565b9550506020611aa1888289016119c0565b9450506040611ab2888289016119c0565b9350506060611ac388828901611994565b9250506080611ad4888289016119c0565b9150509295509295909350565b600080600060608486031215611afa57611af9611978565b5b6000611b0886828701611994565b9350506020611b1986828701611994565b9250506040611b2a868287016119c0565b9150509250925092565b6000602082019050611b496000830184611875565b92915050565b600060ff82169050919050565b611b6581611b4f565b82525050565b6000602082019050611b806000830184611b5c565b92915050565b6000819050919050565b6000611bab611ba6611ba184611843565b611b86565b611843565b9050919050565b6000611bbd82611b90565b9050919050565b6000611bcf82611bb2565b9050919050565b611bdf81611bc4565b82525050565b6000602082019050611bfa6000830184611bd6565b92915050565b600060208284031215611c1657611c15611978565b5b6000611c2484828501611994565b91505092915050565b60008060408385031215611c4457611c43611978565b5b6000611c5285828601611994565b9250506020611c6385828601611994565b9150509250929050565b600060208284031215611c8357611c82611978565b5b6000611c91848285016119c0565b91505092915050565b7f4e487b7100000000000000000000000000000000000000000000000000000000600052602260045260246000fd5b60006002820490506001821680611ce157607f821691505b602082108103611cf457611cf3611c9a565b5b50919050565b7f416c726561647920696e697469616c697a656400000000000000000000000000600082015250565b6000611d306013836118d1565b9150611d3b82611cfa565b602082019050919050565b60006020820190508181036000830152611d5f81611d23565b9050919050565b7f4e487b7100000000000000000000000000000000000000000000000000000000600052601160045260246000fd5b6000611da082611884565b9150611dab83611884565b9250828202611db981611884565b91508282048414831517611dd057611dcf611d66565b5b5092915050565b6000606082019050611dec6000830186611875565b611df96020830185611875565b611e06604083018461188e565b949350505050565b6000611e1982611884565b9150611e2483611884565b9250828201905080821115611e3c57611e3b611d66565b5b92915050565b7f4e487b7100000000000000000000000000000000000000000000000000000000600052601260045260246000fd5b6000611e7c82611884565b9150611e8783611884565b925082611e9757611e96611e42565b5b828204905092915050565b6000611ead82611884565b9150611eb883611884565b9250828203905081811115611ed057611ecf611d66565b5b92915050565b7f4e6f2066756e647320746f207769746864726177000000000000000000000000600082015250565b6000611f0c6014836118d1565b9150611f1782611ed6565b602082019050919050565b60006020820190508181036000830152611f3b81611eff565b9050919050565b600081905092915050565b50565b6000611f5d600083611f42565b9150611f6882611f4d565b600082019050919050565b6000611f7e82611f50565b9150819050919050565b7f4661696c656420746f2073656e64204574686572000000000000000000000000600082015250565b6000611fbe6014836118d1565b9150611fc982611f88565b602082019050919050565b60006020820190508181036000830152611fed81611fb1565b9050919050565b7f446562657320706f7365657220746f646173206c6173206672616363696f6e6560008201527f73207061726120726564696d697220656c204e46540000000000000000000000602082015250565b60006120506035836118d1565b915061205b82611ff4565b604082019050919050565b6000602082019050818103600083015261207f81612043565b9050919050565b7f4c612076656e7461206465206672616363696f6e6573206e6f2065737461206860008201527f6162696c69746164610000000000000000000000000000000000000000000000602082015250565b60006120e26029836118d1565b91506120ed82612086565b604082019050919050565b60006020820190508181036000830152612111816120d5565b9050919050565b7f4465626520636f6d7072617220616c206d656e6f7320756e612066726163636960008201527f6f6e000000000000000000000000000000000000000000000000000000000000602082015250565b60006121746022836118d1565b915061217f82612118565b604082019050919050565b600060208201905081810360008301526121a381612167565b9050919050565b7f466f6e646f7320696e737566696369656e7465732070617261206c6120636f6d60008201527f7072610000000000000000000000000000000000000000000000000000000000602082015250565b60006122066023836118d1565b9150612211826121aa565b604082019050919050565b60006020820190508181036000830152612235816121f9565b9050919050565b7f456c2070726f706965746172696f206e6f207469656e6520737566696369656e60008201527f746573206672616363696f6e657320706172612076656e646572000000000000602082015250565b6000612298603a836118d1565b91506122a38261223c565b604082019050919050565b600060208201905081810360008301526122c78161228b565b9050919050565b7f4572726f7220616c207472616e73666572697220666f6e646f7320616c20707260008201527f6f706965746172696f0000000000000000000000000000000000000000000000602082015250565b600061232a6029836118d1565b9150612335826122ce565b604082019050919050565b600060208201905081810360008301526123598161231d565b9050919050565b60006060820190506123756000830186611875565b612382602083018561188e565b61238f604083018461188e565b94935050505056fea2646970667358221220e6b1b87002c8ae4987b7efdda753c0449d83e02310ab1101df3e8b86839eabf964736f6c634300081c0033",
  "linkReferences": {},
  "deployedLinkReferences": {}
}