{
  "_format": "hh-sol-artifact-1",
  "contractName": "Fraction",
  "sourceName": "contracts/Fraction.sol",
  "abi": [
    {
      "inputs": [
        {
          "internalType": "string",
          "name": "_name",
          "type": "string"
        },
        {
          "internalType": "string",
          "name": "_symbol",
          "type": "string"
        }
      ],
      "stateMutability": "nonpayable",
      "type": "constructor"
    },
    {
      "inputs": [
        {
          "internalType": "address",
          "name": "spender",
          "type": "address"
        },
        {
          "internalType": "uint256",
          "name": "allowance",
          "type": "uint256"
        },
        {
          "internalType": "uint256",
          "name": "needed",
          "type": "uint256"
        }
      ],
      "name": "ERC20InsufficientAllowance",
      "type": "error"
    },
    {
      "inputs": [
        {
          "internalType": "address",
          "name": "sender",
          "type": "address"
        },
        {
          "internalType": "uint256",
          "name": "balance",
          "type": "uint256"
        },
        {
          "internalType": "uint256",
          "name": "needed",
          "type": "uint256"
        }
      ],
      "name": "ERC20InsufficientBalance",
      "type": "error"
    },
    {
      "inputs": [
        {
          "internalType": "address",
          "name": "approver",
          "type": "address"
        }
      ],
      "name": "ERC20InvalidApprover",
      "type": "error"
    },
    {
      "inputs": [
        {
          "internalType": "address",
          "name": "receiver",
          "type": "address"
        }
      ],
      "name": "ERC20InvalidReceiver",
      "type": "error"
    },
    {
      "inputs": [
        {
          "internalType": "address",
          "name": "sender",
          "type": "address"
        }
      ],
      "name": "ERC20InvalidSender",
      "type": "error"
    },
    {
      "inputs": [
        {
          "internalType": "address",
          "name": "spender",
          "type": "address"
        }
      ],
      "name": "ERC20InvalidSpender",
      "type": "error"
    },
    {
      "inputs": [
        {
          "internalType": "address",
          "name": "owner",
          "type": "address"
        }
      ],
      "name": "OwnableInvalidOwner",
      "type": "error"
    },
    {
      "inputs": [
        {
          "internalType": "address",
          "name": "account",
          "type": "address"
        }
      ],
      "name": "OwnableUnauthorizedAccount",
      "type": "error"
    },
    {
      "anonymous": false,
      "inputs": [
        {
          "indexed": true,
          "internalType": "address",
          "name": "owner",
          "type": "address"
        },
        {
          "indexed": true,
          "internalType": "address",
          "name": "spender",
          "type": "address"
        },
        {
          "indexed": false,
          "internalType": "uint256",
          "name": "value",
          "type": "uint256"
        }
      ],
      "name": "Approval",
      "type": "event"
    },
    {
      "anonymous": false,
      "inputs": [
        {
          "indexed": true,
          "internalType": "address",
          "name": "previousOwner",
          "type": "address"
        },
        {
          "indexed": true,
          "internalType": "address",
          "name": "newOwner",
          "type": "address"
        }
      ],
      "name": "OwnershipTransferred",
      "type": "event"
    },
    {
      "anonymous": false,
      "inputs": [
        {
          "indexed": false,
          "internalType": "address",
          "name": "from",
          "type": "address"
        },
        {
          "indexed": false,
          "internalType": "uint256",
          "name": "amount",
          "type": "uint256"
        }
      ],
      "name": "PaymentReceived",
      "type": "event"
    },
    {
      "anonymous": false,
      "inputs": [
        {
          "indexed": false,
          "internalType": "address",
          "name": "to",
          "type": "address"
        },
        {
          "indexed": false,
          "internalType": "uint256",
          "name": "amount",
          "type": "uint256"
        }
      ],
      "name": "PaymentReleased",
      "type": "event"
    },
    {
      "anonymous": false,
      "inputs": [
        {
          "indexed": true,
          "internalType": "address",
          "name": "from",
          "type": "address"
        },
        {
          "indexed": true,
          "internalType": "address",
          "name": "to",
          "type": "address"
        },
        {
          "indexed": false,
          "internalType": "uint256",
          "name": "value",
          "type": "uint256"
        }
      ],
      "name": "Transfer",
      "type": "event"
    },
    {
      "inputs": [
        {
          "internalType": "address",
          "name": "owner",
          "type": "address"
        },
        {
          "internalType": "address",
          "name": "spender",
          "type": "address"
        }
      ],
      "name": "allowance",
      "outputs": [
        {
          "internalType": "uint256",
          "name": "",
          "type": "uint256"
        }
      ],
      "stateMutability": "view",
      "type": "function"
    },
    {
      "inputs": [
        {
          "internalType": "address",
          "name": "spender",
          "type": "address"
        },
        {
          "internalType": "uint256",
          "name": "value",
          "type": "uint256"
        }
      ],
      "name": "approve",
      "outputs": [
        {
          "internalType": "bool",
          "name": "",
          "type": "bool"
        }
      ],
      "stateMutability": "nonpayable",
      "type": "function"
    },
    {
      "inputs": [
        {
          "internalType": "address",
          "name": "account",
          "type": "address"
        }
      ],
      "name": "balanceOf",
      "outputs": [
        {
          "internalType": "uint256",
          "name": "",
          "type": "uint256"
        }
      ],
      "stateMutability": "view",
      "type": "function"
    },
    {
      "inputs": [],
      "name": "decimals",
      "outputs": [
        {
          "internalType": "uint8",
          "name": "",
          "type": "uint8"
        }
      ],
      "stateMutability": "view",
      "type": "function"
    },
    {
      "inputs": [],
      "name": "initialOwner",
      "outputs": [
        {
          "internalType": "address",
          "name": "",
          "type": "address"
        }
      ],
      "stateMutability": "view",
      "type": "function"
    },
    {
      "inputs": [
        {
          "internalType": "address",
          "name": "_realEstateNFTAddress",
          "type": "address"
        },
        {
          "internalType": "uint256",
          "name": "_tokenId",
          "type": "uint256"
        },
        {
          "internalType": "uint256",
          "name": "_supply",
          "type": "uint256"
        },
        {
          "internalType": "address",
          "name": "_initialOwner",
          "type": "address"
        },
        {
          "internalType": "uint256",
          "name": "_pricePerFraction",
          "type": "uint256"
        }
      ],
      "name": "initialize",
      "outputs": [],
      "stateMutability": "nonpayable",
      "type": "function"
    },
    {
      "inputs": [],
      "name": "name",
      "outputs": [
        {
          "internalType": "string",
          "name": "",
          "type": "string"
        }
      ],
      "stateMutability": "view",
      "type": "function"
    },
    {
      "inputs": [],
      "name": "owner",
      "outputs": [
        {
          "internalType": "address",
          "name": "",
          "type": "address"
        }
      ],
      "stateMutability": "view",
      "type": "function"
    },
    {
      "inputs": [],
      "name": "pricePerFraction",
      "outputs": [
        {
          "internalType": "uint256",
          "name": "",
          "type": "uint256"
        }
      ],
      "stateMutability": "view",
      "type": "function"
    },
    {
      "inputs": [
        {
          "internalType": "uint256",
          "name": "numberOfTokens",
          "type": "uint256"
        }
      ],
      "name": "purchase",
      "outputs": [],
      "stateMutability": "payable",
      "type": "function"
    },
    {
      "inputs": [],
      "name": "realEstateNFT",
      "outputs": [
        {
          "internalType": "contract IERC721",
          "name": "",
          "type": "address"
        }
      ],
      "stateMutability": "view",
      "type": "function"
    },
    {
      "inputs": [],
      "name": "redeem",
      "outputs": [],
      "stateMutability": "nonpayable",
      "type": "function"
    },
    {
      "inputs": [
        {
          "internalType": "address",
          "name": "",
          "type": "address"
        }
      ],
      "name": "released",
      "outputs": [
        {
          "internalType": "uint256",
          "name": "",
          "type": "uint256"
        }
      ],
      "stateMutability": "view",
      "type": "function"
    },
    {
      "inputs": [],
      "name": "renounceOwnership",
      "outputs": [],
      "stateMutability": "nonpayable",
      "type": "function"
    },
    {
      "inputs": [],
      "name": "symbol",
      "outputs": [
        {
          "internalType": "string",
          "name": "",
          "type": "string"
        }
      ],
      "stateMutability": "view",
      "type": "function"
    },
    {
      "inputs": [],
      "name": "tokenId",
      "outputs": [
        {
          "internalType": "uint256",
          "name": "",
          "type": "uint256"
        }
      ],
      "stateMutability": "view",
      "type": "function"
    },
    {
      "inputs": [],
      "name": "totalReleased",
      "outputs": [
        {
          "internalType": "uint256",
          "name": "",
          "type": "uint256"
        }
      ],
      "stateMutability": "view",
      "type": "function"
    },
    {
      "inputs": [],
      "name": "totalSupply",
      "outputs": [
        {
          "internalType": "uint256",
          "name": "",
          "type": "uint256"
        }
      ],
      "stateMutability": "view",
      "type": "function"
    },
    {
      "inputs": [
        {
          "internalType": "address",
          "name": "to",
          "type": "address"
        },
        {
          "internalType": "uint256",
          "name": "value",
          "type": "uint256"
        }
      ],
      "name": "transfer",
      "outputs": [
        {
          "internalType": "bool",
          "name": "",
          "type": "bool"
        }
      ],
      "stateMutability": "nonpayable",
      "type": "function"
    },
    {
      "inputs": [
        {
          "internalType": "address",
          "name": "from",
          "type": "address"
        },
        {
          "internalType": "address",
          "name": "to",
          "type": "address"
        },
        {
          "internalType": "uint256",
          "name": "value",
          "type": "uint256"
        }
      ],
      "name": "transferFrom",
      "outputs": [
        {
          "internalType": "bool",
          "name": "",
          "type": "bool"
        }
      ],
      "stateMutability": "nonpayable",
      "type": "function"
    },
    {
      "inputs": [
        {
          "internalType": "address",
          "name": "newOwner",
          "type": "address"
        }
      ],
      "name": "transferOwnership",
      "outputs": [],
      "stateMutability": "nonpayable",
      "type": "function"
    },
    {
      "inputs": [],
      "name": "withdraw",
      "outputs": [],
      "stateMutability": "nonpayable",
      "type": "function"
    },
    {
      "stateMutability": "payable",
      "type": "receive"
    }
  ],
  "bytecode": "0x608060405234801561001057600080fd5b506040516115ee3803806115ee83398101604081905261002f91610198565b338282600361003e838261028a565b50600461004b828261028a565b5050506001600160a01b03811661007c57604051631e4fbdf760e01b81526000600482015260240160405180910390fd5b6100858161008d565b505050610348565b600580546001600160a01b038381166001600160a01b0319831681179093556040519116919082907f8be0079c531659141344cd1fd0a4f28419497f9722a3daafe3b4186f6b6457e090600090a35050565b634e487b7160e01b600052604160045260246000fd5b600082601f83011261010657600080fd5b81516001600160401b0381111561011f5761011f6100df565b604051601f8201601f19908116603f011681016001600160401b038111828210171561014d5761014d6100df565b60405281815283820160200185101561016557600080fd5b60005b8281101561018457602081860181015183830182015201610168565b506000918101602001919091529392505050565b600080604083850312156101ab57600080fd5b82516001600160401b038111156101c157600080fd5b6101cd858286016100f5565b602085015190935090506001600160401b038111156101eb57600080fd5b6101f7858286016100f5565b9150509250929050565b600181811c9082168061021557607f821691505b60208210810361023557634e487b7160e01b600052602260045260246000fd5b50919050565b601f82111561028557806000526020600020601f840160051c810160208510156102625750805b601f840160051c820191505b81811015610282576000815560010161026e565b50505b505050565b81516001600160401b038111156102a3576102a36100df565b6102b7816102b18454610201565b8461023b565b6020601f8211600181146102eb57600083156102d35750848201515b600019600385901b1c1916600184901b178455610282565b600084815260208120601f198516915b8281101561031b57878501518255602094850194600190920191016102fb565b50848210156103395786840151600019600387901b60f8161c191681555b50505050600190811b01905550565b611297806103576000396000f3fe6080604052600436106101395760003560e01c8063715018a6116100ab578063a9059cbb1161006f578063a9059cbb1461039d578063be040fb0146103bd578063dd62ed3e146103d2578063e33b7de314610418578063efef39a11461042e578063f2fde38b1461044157600080fd5b8063715018a6146103125780637f82ed47146103275780638da5cb5b1461033d57806395d89b411461035b5780639852595c1461037057600080fd5b806323b872dd116100fd57806323b872dd1461023357806329ba7bb214610253578063313ce5671461028b5780633ccfd60b146102a7578063708cfe49146102bc57806370a08231146102dc57600080fd5b806306fdde031461017d578063095ea7b3146101a857806317d70f7c146101d857806318160ddd146101fc5780631a1ff6c01461021157600080fd5b3661017857604080513381523460208201527f6ef95f06320e7a25a04a175ca677b7052bdd97131872c2192525a629f51be770910160405180910390a1005b600080fd5b34801561018957600080fd5b50610192610461565b60405161019f9190611025565b60405180910390f35b3480156101b457600080fd5b506101c86101c336600461108f565b6104f3565b604051901515815260200161019f565b3480156101e457600080fd5b506101ee60075481565b60405190815260200161019f565b34801561020857600080fd5b506002546101ee565b34801561021d57600080fd5b5061023161022c3660046110b9565b61050d565b005b34801561023f57600080fd5b506101c861024e366004611107565b610620565b34801561025f57600080fd5b50600854610273906001600160a01b031681565b6040516001600160a01b03909116815260200161019f565b34801561029757600080fd5b506040516012815260200161019f565b3480156102b357600080fd5b50610231610644565b3480156102c857600080fd5b50600654610273906001600160a01b031681565b3480156102e857600080fd5b506101ee6102f7366004611144565b6001600160a01b031660009081526020819052604090205490565b34801561031e57600080fd5b5061023161080b565b34801561033357600080fd5b506101ee60095481565b34801561034957600080fd5b506005546001600160a01b0316610273565b34801561036757600080fd5b5061019261081f565b34801561037c57600080fd5b506101ee61038b366004611144565b600a6020526000908152604090205481565b3480156103a957600080fd5b506101c86103b836600461108f565b61082e565b3480156103c957600080fd5b5061023161083c565b3480156103de57600080fd5b506101ee6103ed366004611166565b6001600160a01b03918216600090815260016020908152604080832093909416825291909152205490565b34801561042457600080fd5b506101ee600b5481565b61023161043c366004611199565b610974565b34801561044d57600080fd5b5061023161045c366004611144565b610c0f565b606060038054610470906111b2565b80601f016020809104026020016040519081016040528092919081815260200182805461049c906111b2565b80156104e95780601f106104be576101008083540402835291602001916104e9565b820191906000526020600020905b8154815290600101906020018083116104cc57829003601f168201915b5050505050905090565b600033610501818585610c4d565b60019150505b92915050565b600754156105585760405162461bcd60e51b8152602060048201526013602482015272105b1c9958591e481a5b9a5d1a585b1a5e9959606a1b60448201526064015b60405180910390fd5b600680546001600160a01b038088166001600160a01b0319928316179092556007869055600880549285169290911691909117905560098190556105ad826105a885670de0b6b3a7640000611202565b610c5f565b6006546040516323b872dd60e01b81526001600160a01b03848116600483015230602483015260448201879052909116906323b872dd90606401600060405180830381600087803b15801561060157600080fd5b505af1158015610615573d6000803e3d6000fd5b505050505050505050565b60003361062e858285610c99565b610639858585610d12565b506001949350505050565b6000600b54476106549190611219565b3360009081526020819052604090205460025491925090811580610676575080155b1561068057505050565b60008161068d8486611202565b610697919061122c565b336000908152600a6020526040812054919250906106b5908361124e565b9050600081116106fe5760405162461bcd60e51b81526020600482015260146024820152734e6f2066756e647320746f20776974686472617760601b604482015260640161054f565b336000908152600a60205260408120805483929061071d908490611219565b9250508190555080600b60008282546107369190611219565b9091555050604051600090339083908381818185875af1925050503d806000811461077d576040519150601f19603f3d011682016040523d82523d6000602084013e610782565b606091505b50509050806107ca5760405162461bcd60e51b81526020600482015260146024820152732330b4b632b2103a379039b2b7321022ba3432b960611b604482015260640161054f565b60408051338152602081018490527fdf20fd1e76bc69d672e4814fafb2c449bba3a5369d8359adf9e05e6fde87b056910160405180910390a1505050505050565b610813610d71565b61081d6000610d9e565b565b606060048054610470906111b2565b600033610501818585610d12565b610844610d71565b60025461085c6102f76005546001600160a01b031690565b146108c75760405162461bcd60e51b815260206004820152603560248201527f446562657320706f7365657220746f646173206c6173206672616363696f6e656044820152741cc81c185c98481c99591a5b5a5c88195b08139195605a1b606482015260840161054f565b6108e46108dc6005546001600160a01b031690565b600254610df0565b6006546001600160a01b03166323b872dd306109086005546001600160a01b031690565b6007546040516001600160e01b031960e086901b1681526001600160a01b0393841660048201529290911660248301526044820152606401600060405180830381600087803b15801561095a57600080fd5b505af115801561096e573d6000803e3d6000fd5b50505050565b6000600954116109d85760405162461bcd60e51b815260206004820152602960248201527f4c612076656e7461206465206672616363696f6e6573206e6f206573746120686044820152686162696c697461646160b81b606482015260840161054f565b60008111610a335760405162461bcd60e51b815260206004820152602260248201527f4465626520636f6d7072617220616c206d656e6f7320756e612066726163636960448201526137b760f11b606482015260840161054f565b600954600090610a4b670de0b6b3a76400008461122c565b610a559190611202565b9050803414610ab25760405162461bcd60e51b815260206004820152602360248201527f466f6e646f7320696e737566696369656e7465732070617261206c6120636f6d60448201526270726160e81b606482015260840161054f565b6008546001600160a01b031660009081526020819052604090205482811015610b435760405162461bcd60e51b815260206004820152603a60248201527f456c2070726f706965746172696f206e6f207469656e6520737566696369656e60448201527f746573206672616363696f6e657320706172612076656e646572000000000000606482015260840161054f565b600854610b5a906001600160a01b03163385610d12565b6008546040516000916001600160a01b03169034908381818185875af1925050503d8060008114610ba7576040519150601f19603f3d011682016040523d82523d6000602084013e610bac565b606091505b505090508061096e5760405162461bcd60e51b815260206004820152602960248201527f4572726f7220616c207472616e73666572697220666f6e646f7320616c2070726044820152686f706965746172696f60b81b606482015260840161054f565b610c17610d71565b6001600160a01b038116610c4157604051631e4fbdf760e01b81526000600482015260240161054f565b610c4a81610d9e565b50565b610c5a8383836001610e26565b505050565b6001600160a01b038216610c895760405163ec442f0560e01b81526000600482015260240161054f565b610c9560008383610efb565b5050565b6001600160a01b0383811660009081526001602090815260408083209386168352929052205460001981101561096e5781811015610d0357604051637dc7a0d960e11b81526001600160a01b0384166004820152602481018290526044810183905260640161054f565b61096e84848484036000610e26565b6001600160a01b038316610d3c57604051634b637e8f60e11b81526000600482015260240161054f565b6001600160a01b038216610d665760405163ec442f0560e01b81526000600482015260240161054f565b610c5a838383610efb565b6005546001600160a01b0316331461081d5760405163118cdaa760e01b815233600482015260240161054f565b600580546001600160a01b038381166001600160a01b0319831681179093556040519116919082907f8be0079c531659141344cd1fd0a4f28419497f9722a3daafe3b4186f6b6457e090600090a35050565b6001600160a01b038216610e1a57604051634b637e8f60e11b81526000600482015260240161054f565b610c9582600083610efb565b6001600160a01b038416610e505760405163e602df0560e01b81526000600482015260240161054f565b6001600160a01b038316610e7a57604051634a1406b160e11b81526000600482015260240161054f565b6001600160a01b038085166000908152600160209081526040808320938716835292905220829055801561096e57826001600160a01b0316846001600160a01b03167f8c5be1e5ebec7d5bd14f71427d1e84f3dd0314c0f7b2291e5b200ac8c7c3b92584604051610eed91815260200190565b60405180910390a350505050565b6001600160a01b038316610f26578060026000828254610f1b9190611219565b90915550610f989050565b6001600160a01b03831660009081526020819052604090205481811015610f795760405163391434e360e21b81526001600160a01b0385166004820152602481018290526044810183905260640161054f565b6001600160a01b03841660009081526020819052604090209082900390555b6001600160a01b038216610fb457600280548290039055610fd3565b6001600160a01b03821660009081526020819052604090208054820190555b816001600160a01b0316836001600160a01b03167fddf252ad1be2c89b69c2b068fc378daa952ba7f163c4a11628f55a4df523b3ef8360405161101891815260200190565b60405180910390a3505050565b602081526000825180602084015260005b818110156110535760208186018101516040868401015201611036565b506000604082850101526040601f19601f83011684010191505092915050565b80356001600160a01b038116811461108a57600080fd5b919050565b600080604083850312156110a257600080fd5b6110ab83611073565b946020939093013593505050565b600080600080600060a086880312156110d157600080fd5b6110da86611073565b945060208601359350604086013592506110f660608701611073565b949793965091946080013592915050565b60008060006060848603121561111c57600080fd5b61112584611073565b925061113360208501611073565b929592945050506040919091013590565b60006020828403121561115657600080fd5b61115f82611073565b9392505050565b6000806040838503121561117957600080fd5b61118283611073565b915061119060208401611073565b90509250929050565b6000602082840312156111ab57600080fd5b5035919050565b600181811c908216806111c657607f821691505b6020821081036111e657634e487b7160e01b600052602260045260246000fd5b50919050565b634e487b7160e01b600052601160045260246000fd5b8082028115828204841417610507576105076111ec565b80820180821115610507576105076111ec565b60008261124957634e487b7160e01b600052601260045260246000fd5b500490565b81810381811115610507576105076111ec56fea2646970667358221220b4abf243cbb4372d4ccbe5b6571f9cf5bf62c7bb26e9cf7044c60bf1cebe0bc164736f6c634300081c0033",
  "linkReferences": {},
  "deployedLinkReferences": {}
}