{
  "_format": "hh-sol-artifact-1",
  "contractName": "RealEstate",
  "sourceName": "contracts/RealEstate.sol",
  "abi": [
    {
      "inputs": [
        {
          "internalType": "address",
          "name": "initialOwner",
          "type": "address"
        }
      ],
      "stateMutability": "nonpayable",
      "type": "constructor"
    },
    {
      "inputs": [],
      "name": "ERC721EnumerableForbiddenBatchMint",
      "type": "error"
    },
    {
      "inputs": [
        {
          "internalType": "address",
          "name": "sender",
          "type": "address"
        },
        {
          "internalType": "uint256",
          "name": "tokenId",
          "type": "uint256"
        },
        {
          "internalType": "address",
          "name": "owner",
          "type": "address"
        }
      ],
      "name": "ERC721IncorrectOwner",
      "type": "error"
    },
    {
      "inputs": [
        {
          "internalType": "address",
          "name": "operator",
          "type": "address"
        },
        {
          "internalType": "uint256",
          "name": "tokenId",
          "type": "uint256"
        }
      ],
      "name": "ERC721InsufficientApproval",
      "type": "error"
    },
    {
      "inputs": [
        {
          "internalType": "address",
          "name": "approver",
          "type": "address"
        }
      ],
      "name": "ERC721InvalidApprover",
      "type": "error"
    },
    {
      "inputs": [
        {
          "internalType": "address",
          "name": "operator",
          "type": "address"
        }
      ],
      "name": "ERC721InvalidOperator",
      "type": "error"
    },
    {
      "inputs": [
        {
          "internalType": "address",
          "name": "owner",
          "type": "address"
        }
      ],
      "name": "ERC721InvalidOwner",
      "type": "error"
    },
    {
      "inputs": [
        {
          "internalType": "address",
          "name": "receiver",
          "type": "address"
        }
      ],
      "name": "ERC721InvalidReceiver",
      "type": "error"
    },
    {
      "inputs": [
        {
          "internalType": "address",
          "name": "sender",
          "type": "address"
        }
      ],
      "name": "ERC721InvalidSender",
      "type": "error"
    },
    {
      "inputs": [
        {
          "internalType": "uint256",
          "name": "tokenId",
          "type": "uint256"
        }
      ],
      "name": "ERC721NonexistentToken",
      "type": "error"
    },
    {
      "inputs": [
        {
          "internalType": "address",
          "name": "owner",
          "type": "address"
        },
        {
          "internalType": "uint256",
          "name": "index",
          "type": "uint256"
        }
      ],
      "name": "ERC721OutOfBoundsIndex",
      "type": "error"
    },
    {
      "inputs": [
        {
          "internalType": "address",
          "name": "owner",
          "type": "address"
        }
      ],
      "name": "OwnableInvalidOwner",
      "type": "error"
    },
    {
      "inputs": [
        {
          "internalType": "address",
          "name": "account",
          "type": "address"
        }
      ],
      "name": "OwnableUnauthorizedAccount",
      "type": "error"
    },
    {
      "inputs": [],
      "name": "ReentrancyGuardReentrantCall",
      "type": "error"
    },
    {
      "anonymous": false,
      "inputs": [
        {
          "indexed": true,
          "internalType": "address",
          "name": "owner",
          "type": "address"
        },
        {
          "indexed": true,
          "internalType": "address",
          "name": "approved",
          "type": "address"
        },
        {
          "indexed": true,
          "internalType": "uint256",
          "name": "tokenId",
          "type": "uint256"
        }
      ],
      "name": "Approval",
      "type": "event"
    },
    {
      "anonymous": false,
      "inputs": [
        {
          "indexed": true,
          "internalType": "address",
          "name": "owner",
          "type": "address"
        },
        {
          "indexed": true,
          "internalType": "address",
          "name": "operator",
          "type": "address"
        },
        {
          "indexed": false,
          "internalType": "bool",
          "name": "approved",
          "type": "bool"
        }
      ],
      "name": "ApprovalForAll",
      "type": "event"
    },
    {
      "anonymous": false,
      "inputs": [
        {
          "indexed": false,
          "internalType": "uint256",
          "name": "_fromTokenId",
          "type": "uint256"
        },
        {
          "indexed": false,
          "internalType": "uint256",
          "name": "_toTokenId",
          "type": "uint256"
        }
      ],
      "name": "BatchMetadataUpdate",
      "type": "event"
    },
    {
      "anonymous": false,
      "inputs": [
        {
          "indexed": true,
          "internalType": "uint256",
          "name": "tokenId",
          "type": "uint256"
        },
        {
          "indexed": true,
          "internalType": "address",
          "name": "buyer",
          "type": "address"
        },
        {
          "indexed": false,
          "internalType": "uint256",
          "name": "count",
          "type": "uint256"
        },
        {
          "indexed": false,
          "internalType": "uint256",
          "name": "totalCost",
          "type": "uint256"
        }
      ],
      "name": "FractionsPurchased",
      "type": "event"
    },
    {
      "anonymous": false,
      "inputs": [
        {
          "indexed": false,
          "internalType": "uint256",
          "name": "_tokenId",
          "type": "uint256"
        }
      ],
      "name": "MetadataUpdate",
      "type": "event"
    },
    {
      "anonymous": false,
      "inputs": [
        {
          "indexed": true,
          "internalType": "uint256",
          "name": "tokenId",
          "type": "uint256"
        },
        {
          "indexed": true,
          "internalType": "address",
          "name": "owner",
          "type": "address"
        },
        {
          "indexed": true,
          "internalType": "address",
          "name": "offerer",
          "type": "address"
        },
        {
          "indexed": false,
          "internalType": "uint256",
          "name": "amount",
          "type": "uint256"
        }
      ],
      "name": "OfferAccepted",
      "type": "event"
    },
    {
      "anonymous": false,
      "inputs": [
        {
          "indexed": true,
          "internalType": "uint256",
          "name": "tokenId",
          "type": "uint256"
        },
        {
          "indexed": true,
          "internalType": "address",
          "name": "offerer",
          "type": "address"
        },
        {
          "indexed": false,
          "internalType": "uint256",
          "name": "amount",
          "type": "uint256"
        }
      ],
      "name": "OfferMade",
      "type": "event"
    },
    {
      "anonymous": false,
      "inputs": [
        {
          "indexed": true,
          "internalType": "uint256",
          "name": "tokenId",
          "type": "uint256"
        },
        {
          "indexed": true,
          "internalType": "address",
          "name": "offerer",
          "type": "address"
        }
      ],
      "name": "OfferWithdrawn",
      "type": "event"
    },
    {
      "anonymous": false,
      "inputs": [
        {
          "indexed": true,
          "internalType": "address",
          "name": "previousOwner",
          "type": "address"
        },
        {
          "indexed": true,
          "internalType": "address",
          "name": "newOwner",
          "type": "address"
        }
      ],
      "name": "OwnershipTransferred",
      "type": "event"
    },
    {
      "anonymous": false,
      "inputs": [
        {
          "indexed": true,
          "internalType": "uint256",
          "name": "tokenId",
          "type": "uint256"
        },
        {
          "indexed": true,
          "internalType": "address",
          "name": "fractionContract",
          "type": "address"
        }
      ],
      "name": "PropertyFractionalized",
      "type": "event"
    },
    {
      "anonymous": false,
      "inputs": [
        {
          "indexed": true,
          "internalType": "uint256",
          "name": "tokenId",
          "type": "uint256"
        },
        {
          "indexed": false,
          "internalType": "uint256",
          "name": "pricePerDay",
          "type": "uint256"
        }
      ],
      "name": "PropertyListedForRent",
      "type": "event"
    },
    {
      "anonymous": false,
      "inputs": [
        {
          "indexed": true,
          "internalType": "uint256",
          "name": "tokenId",
          "type": "uint256"
        },
        {
          "indexed": true,
          "internalType": "address",
          "name": "tenant",
          "type": "address"
        },
        {
          "indexed": false,
          "internalType": "uint256",
          "name": "rentedUntil",
          "type": "uint256"
        }
      ],
      "name": "PropertyRented",
      "type": "event"
    },
    {
      "anonymous": false,
      "inputs": [
        {
          "indexed": true,
          "internalType": "uint256",
          "name": "tokenId",
          "type": "uint256"
        }
      ],
      "name": "PropertyUnlistedForRent",
      "type": "event"
    },
    {
      "anonymous": false,
      "inputs": [
        {
          "indexed": true,
          "internalType": "address",
          "name": "rater",
          "type": "address"
        },
        {
          "indexed": true,
          "internalType": "address",
          "name": "rated",
          "type": "address"
        },
        {
          "indexed": true,
          "internalType": "uint256",
          "name": "tokenId",
          "type": "uint256"
        },
        {
          "indexed": false,
          "internalType": "uint8",
          "name": "rating",
          "type": "uint8"
        }
      ],
      "name": "Rated",
      "type": "event"
    },
    {
      "anonymous": false,
      "inputs": [
        {
          "indexed": true,
          "internalType": "address",
          "name": "owner",
          "type": "address"
        },
        {
          "indexed": false,
          "internalType": "uint256",
          "name": "amount",
          "type": "uint256"
        }
      ],
      "name": "RentWithdrawn",
      "type": "event"
    },
    {
      "anonymous": false,
      "inputs": [
        {
          "indexed": true,
          "internalType": "address",
          "name": "from",
          "type": "address"
        },
        {
          "indexed": true,
          "internalType": "address",
          "name": "to",
          "type": "address"
        },
        {
          "indexed": true,
          "internalType": "uint256",
          "name": "tokenId",
          "type": "uint256"
        }
      ],
      "name": "Transfer",
      "type": "event"
    },
    {
      "inputs": [],
      "name": "TOTAL_FRACTIONS_PER_PROPERTY",
      "outputs": [
        {
          "internalType": "uint256",
          "name": "",
          "type": "uint256"
        }
      ],
      "stateMutability": "view",
      "type": "function"
    },
    {
      "inputs": [
        {
          "internalType": "uint256",
          "name": "tokenId",
          "type": "uint256"
        }
      ],
      "name": "acceptOffer",
      "outputs": [],
      "stateMutability": "nonpayable",
      "type": "function"
    },
    {
      "inputs": [
        {
          "internalType": "address",
          "name": "to",
          "type": "address"
        },
        {
          "internalType": "uint256",
          "name": "tokenId",
          "type": "uint256"
        }
      ],
      "name": "approve",
      "outputs": [],
      "stateMutability": "nonpayable",
      "type": "function"
    },
    {
      "inputs": [
        {
          "internalType": "address",
          "name": "owner",
          "type": "address"
        }
      ],
      "name": "balanceOf",
      "outputs": [
        {
          "internalType": "uint256",
          "name": "",
          "type": "uint256"
        }
      ],
      "stateMutability": "view",
      "type": "function"
    },
    {
      "inputs": [
        {
          "internalType": "uint256",
          "name": "",
          "type": "uint256"
        }
      ],
      "name": "fractionContracts",
      "outputs": [
        {
          "internalType": "address",
          "name": "",
          "type": "address"
        }
      ],
      "stateMutability": "view",
      "type": "function"
    },
    {
      "inputs": [],
      "name": "fractionPriceInWei",
      "outputs": [
        {
          "internalType": "uint256",
          "name": "",
          "type": "uint256"
        }
      ],
      "stateMutability": "view",
      "type": "function"
    },
    {
      "inputs": [
        {
          "internalType": "uint256",
          "name": "",
          "type": "uint256"
        },
        {
          "internalType": "address",
          "name": "",
          "type": "address"
        }
      ],
      "name": "fractionalOwnership",
      "outputs": [
        {
          "internalType": "uint256",
          "name": "",
          "type": "uint256"
        }
      ],
      "stateMutability": "view",
      "type": "function"
    },
    {
      "inputs": [
        {
          "internalType": "uint256",
          "name": "",
          "type": "uint256"
        }
      ],
      "name": "fractionsSold",
      "outputs": [
        {
          "internalType": "uint256",
          "name": "",
          "type": "uint256"
        }
      ],
      "stateMutability": "view",
      "type": "function"
    },
    {
      "inputs": [
        {
          "internalType": "uint256",
          "name": "tokenId",
          "type": "uint256"
        }
      ],
      "name": "getApproved",
      "outputs": [
        {
          "internalType": "address",
          "name": "",
          "type": "address"
        }
      ],
      "stateMutability": "view",
      "type": "function"
    },
    {
      "inputs": [
        {
          "internalType": "uint256",
          "name": "tokenId",
          "type": "uint256"
        },
        {
          "internalType": "address",
          "name": "owner",
          "type": "address"
        }
      ],
      "name": "getFractionsOwned",
      "outputs": [
        {
          "internalType": "uint256",
          "name": "",
          "type": "uint256"
        }
      ],
      "stateMutability": "view",
      "type": "function"
    },
    {
      "inputs": [
        {
          "internalType": "uint256",
          "name": "tokenId",
          "type": "uint256"
        }
      ],
      "name": "getFractionsSold",
      "outputs": [
        {
          "internalType": "uint256",
          "name": "",
          "type": "uint256"
        }
      ],
      "stateMutability": "view",
      "type": "function"
    },
    {
      "inputs": [
        {
          "internalType": "uint256",
          "name": "",
          "type": "uint256"
        }
      ],
      "name": "highestOffer",
      "outputs": [
        {
          "internalType": "address",
          "name": "offerer",
          "type": "address"
        },
        {
          "internalType": "uint256",
          "name": "amount",
          "type": "uint256"
        },
        {
          "internalType": "bool",
          "name": "isActive",
          "type": "bool"
        }
      ],
      "stateMutability": "view",
      "type": "function"
    },
    {
      "inputs": [
        {
          "internalType": "address",
          "name": "owner",
          "type": "address"
        },
        {
          "internalType": "address",
          "name": "operator",
          "type": "address"
        }
      ],
      "name": "isApprovedForAll",
      "outputs": [
        {
          "internalType": "bool",
          "name": "",
          "type": "bool"
        }
      ],
      "stateMutability": "view",
      "type": "function"
    },
    {
      "inputs": [
        {
          "internalType": "uint256",
          "name": "tokenId",
          "type": "uint256"
        },
        {
          "internalType": "uint256",
          "name": "rentPricePerDay",
          "type": "uint256"
        }
      ],
      "name": "listPropertyForRent",
      "outputs": [],
      "stateMutability": "nonpayable",
      "type": "function"
    },
    {
      "inputs": [
        {
          "internalType": "uint256",
          "name": "tokenId",
          "type": "uint256"
        }
      ],
      "name": "makeOffer",
      "outputs": [],
      "stateMutability": "payable",
      "type": "function"
    },
    {
      "inputs": [],
      "name": "name",
      "outputs": [
        {
          "internalType": "string",
          "name": "",
          "type": "string"
        }
      ],
      "stateMutability": "view",
      "type": "function"
    },
    {
      "inputs": [],
      "name": "owner",
      "outputs": [
        {
          "internalType": "address",
          "name": "",
          "type": "address"
        }
      ],
      "stateMutability": "view",
      "type": "function"
    },
    {
      "inputs": [
        {
          "internalType": "uint256",
          "name": "tokenId",
          "type": "uint256"
        }
      ],
      "name": "ownerOf",
      "outputs": [
        {
          "internalType": "address",
          "name": "",
          "type": "address"
        }
      ],
      "stateMutability": "view",
      "type": "function"
    },
    {
      "inputs": [
        {
          "internalType": "address",
          "name": "",
          "type": "address"
        }
      ],
      "name": "pendingWithdrawals",
      "outputs": [
        {
          "internalType": "uint256",
          "name": "",
          "type": "uint256"
        }
      ],
      "stateMutability": "view",
      "type": "function"
    },
    {
      "inputs": [
        {
          "internalType": "uint256",
          "name": "tokenId",
          "type": "uint256"
        },
        {
          "internalType": "uint256",
          "name": "numberOfFractions",
          "type": "uint256"
        }
      ],
      "name": "purchaseFractions",
      "outputs": [],
      "stateMutability": "payable",
      "type": "function"
    },
    {
      "inputs": [
        {
          "internalType": "uint256",
          "name": "tokenId",
          "type": "uint256"
        },
        {
          "internalType": "uint8",
          "name": "rating",
          "type": "uint8"
        }
      ],
      "name": "rateRental",
      "outputs": [],
      "stateMutability": "nonpayable",
      "type": "function"
    },
    {
      "inputs": [],
      "name": "renounceOwnership",
      "outputs": [],
      "stateMutability": "nonpayable",
      "type": "function"
    },
    {
      "inputs": [
        {
          "internalType": "uint256",
          "name": "tokenId",
          "type": "uint256"
        },
        {
          "internalType": "uint256",
          "name": "durationInDays",
          "type": "uint256"
        }
      ],
      "name": "rentProperty",
      "outputs": [],
      "stateMutability": "payable",
      "type": "function"
    },
    {
      "inputs": [
        {
          "internalType": "uint256",
          "name": "",
          "type": "uint256"
        }
      ],
      "name": "rentalInfo",
      "outputs": [
        {
          "internalType": "address",
          "name": "tenant",
          "type": "address"
        },
        {
          "internalType": "uint256",
          "name": "rentPricePerDay",
          "type": "uint256"
        },
        {
          "internalType": "uint256",
          "name": "rentedUntil",
          "type": "uint256"
        },
        {
          "internalType": "bool",
          "name": "isListed",
          "type": "bool"
        }
      ],
      "stateMutability": "view",
      "type": "function"
    },
    {
      "inputs": [],
      "name": "reputationContract",
      "outputs": [
        {
          "internalType": "contract Reputation",
          "name": "",
          "type": "address"
        }
      ],
      "stateMutability": "view",
      "type": "function"
    },
    {
      "inputs": [
        {
          "internalType": "address",
          "name": "to",
          "type": "address"
        },
        {
          "internalType": "string",
          "name": "uri",
          "type": "string"
        }
      ],
      "name": "safeMint",
      "outputs": [],
      "stateMutability": "nonpayable",
      "type": "function"
    },
    {
      "inputs": [
        {
          "internalType": "address",
          "name": "from",
          "type": "address"
        },
        {
          "internalType": "address",
          "name": "to",
          "type": "address"
        },
        {
          "internalType": "uint256",
          "name": "tokenId",
          "type": "uint256"
        }
      ],
      "name": "safeTransferFrom",
      "outputs": [],
      "stateMutability": "nonpayable",
      "type": "function"
    },
    {
      "inputs": [
        {
          "internalType": "address",
          "name": "from",
          "type": "address"
        },
        {
          "internalType": "address",
          "name": "to",
          "type": "address"
        },
        {
          "internalType": "uint256",
          "name": "tokenId",
          "type": "uint256"
        },
        {
          "internalType": "bytes",
          "name": "data",
          "type": "bytes"
        }
      ],
      "name": "safeTransferFrom",
      "outputs": [],
      "stateMutability": "nonpayable",
      "type": "function"
    },
    {
      "inputs": [
        {
          "internalType": "address",
          "name": "operator",
          "type": "address"
        },
        {
          "internalType": "bool",
          "name": "approved",
          "type": "bool"
        }
      ],
      "name": "setApprovalForAll",
      "outputs": [],
      "stateMutability": "nonpayable",
      "type": "function"
    },
    {
      "inputs": [
        {
          "internalType": "uint256",
          "name": "tokenId",
          "type": "uint256"
        },
        {
          "internalType": "address",
          "name": "fractionContractAddress",
          "type": "address"
        }
      ],
      "name": "setFractionContract",
      "outputs": [],
      "stateMutability": "nonpayable",
      "type": "function"
    },
    {
      "inputs": [
        {
          "internalType": "address",
          "name": "_reputationContractAddress",
          "type": "address"
        }
      ],
      "name": "setReputationContract",
      "outputs": [],
      "stateMutability": "nonpayable",
      "type": "function"
    },
    {
      "inputs": [
        {
          "internalType": "bytes4",
          "name": "interfaceId",
          "type": "bytes4"
        }
      ],
      "name": "supportsInterface",
      "outputs": [
        {
          "internalType": "bool",
          "name": "",
          "type": "bool"
        }
      ],
      "stateMutability": "view",
      "type": "function"
    },
    {
      "inputs": [],
      "name": "symbol",
      "outputs": [
        {
          "internalType": "string",
          "name": "",
          "type": "string"
        }
      ],
      "stateMutability": "view",
      "type": "function"
    },
    {
      "inputs": [
        {
          "internalType": "uint256",
          "name": "index",
          "type": "uint256"
        }
      ],
      "name": "tokenByIndex",
      "outputs": [
        {
          "internalType": "uint256",
          "name": "",
          "type": "uint256"
        }
      ],
      "stateMutability": "view",
      "type": "function"
    },
    {
      "inputs": [
        {
          "internalType": "address",
          "name": "owner",
          "type": "address"
        },
        {
          "internalType": "uint256",
          "name": "index",
          "type": "uint256"
        }
      ],
      "name": "tokenOfOwnerByIndex",
      "outputs": [
        {
          "internalType": "uint256",
          "name": "",
          "type": "uint256"
        }
      ],
      "stateMutability": "view",
      "type": "function"
    },
    {
      "inputs": [
        {
          "internalType": "uint256",
          "name": "tokenId",
          "type": "uint256"
        }
      ],
      "name": "tokenURI",
      "outputs": [
        {
          "internalType": "string",
          "name": "",
          "type": "string"
        }
      ],
      "stateMutability": "view",
      "type": "function"
    },
    {
      "inputs": [],
      "name": "totalSupply",
      "outputs": [
        {
          "internalType": "uint256",
          "name": "",
          "type": "uint256"
        }
      ],
      "stateMutability": "view",
      "type": "function"
    },
    {
      "inputs": [
        {
          "internalType": "address",
          "name": "from",
          "type": "address"
        },
        {
          "internalType": "address",
          "name": "to",
          "type": "address"
        },
        {
          "internalType": "uint256",
          "name": "tokenId",
          "type": "uint256"
        }
      ],
      "name": "transferFrom",
      "outputs": [],
      "stateMutability": "nonpayable",
      "type": "function"
    },
    {
      "inputs": [
        {
          "internalType": "address",
          "name": "newOwner",
          "type": "address"
        }
      ],
      "name": "transferOwnership",
      "outputs": [],
      "stateMutability": "nonpayable",
      "type": "function"
    },
    {
      "inputs": [
        {
          "internalType": "uint256",
          "name": "tokenId",
          "type": "uint256"
        }
      ],
      "name": "unlistPropertyForRent",
      "outputs": [],
      "stateMutability": "nonpayable",
      "type": "function"
    },
    {
      "inputs": [
        {
          "internalType": "uint256",
          "name": "tokenId",
          "type": "uint256"
        }
      ],
      "name": "withdrawOffer",
      "outputs": [],
      "stateMutability": "nonpayable",
      "type": "function"
    },
    {
      "inputs": [],
      "name": "withdrawRent",
      "outputs": [],
      "stateMutability": "nonpayable",
      "type": "function"
    }
  ],
  "bytecode": "0x6080604052662386f26fc10000600e5534801561001b57600080fd5b5060405161352738038061352783398101604081905261003a9161012f565b806040518060400160405280600a8152602001692932b0b634a1b430b4b760b11b815250604051806040016040528060048152602001631491505360e21b815250816000908161008a91906101fe565b50600161009782826101fe565b5050506001600160a01b0381166100c857604051631e4fbdf760e01b81526000600482015260240160405180910390fd5b6100d1816100dd565b50506001600c556102bc565b600b80546001600160a01b038381166001600160a01b0319831681179093556040519116919082907f8be0079c531659141344cd1fd0a4f28419497f9722a3daafe3b4186f6b6457e090600090a35050565b60006020828403121561014157600080fd5b81516001600160a01b038116811461015857600080fd5b9392505050565b634e487b7160e01b600052604160045260246000fd5b600181811c9082168061018957607f821691505b6020821081036101a957634e487b7160e01b600052602260045260246000fd5b50919050565b601f8211156101f957806000526020600020601f840160051c810160208510156101d65750805b601f840160051c820191505b818110156101f657600081556001016101e2565b50505b505050565b81516001600160401b038111156102175761021761015f565b61022b816102258454610175565b846101af565b6020601f82116001811461025f57600083156102475750848201515b600019600385901b1c1916600184901b1784556101f6565b600084815260208120601f198516915b8281101561028f578785015182556020948501946001909201910161026f565b50848210156102ad5786840151600019600387901b60f8161c191681555b50505050600190811b01905550565b61325c806102cb6000396000f3fe6080604052600436106102515760003560e01c8063715018a611610139578063ac37a58d116100b6578063d204c45e1161007a578063d204c45e14610765578063de54a00c14610785578063e985e9c5146107f5578063f0d7e20e14610815578063f2fde38b14610842578063f3f437031461086257600080fd5b8063ac37a58d146106d2578063b88d4fde146106e5578063c4d5100714610705578063c815729d14610725578063c87b56dd1461074557600080fd5b806395d89b41116100fd57806395d89b411461064a5780639a2f64741461065f5780639d118c9514610672578063a22cb46514610692578063a7b2d792146106b257600080fd5b8063715018a6146105b75780638610f045146105cc57806387bc1425146105ec5780638da5cb5b1461060c5780639584660f1461062a57600080fd5b806336a56506116101d25780635837947d116101965780635837947d146104b15780636116f179146104c75780636322182e146105425780636352211e146105575780636503b36c1461057757806370a082311461059757600080fd5b806336a565061461041b57806337094179146104315780633ec4ebb71461045e57806342842e0e146104715780634f6ccce71461049157600080fd5b806317c6ab401161021957806317c6ab401461033d57806318160ddd1461038357806323b872dd146103985780632c104271146103b85780632f745c59146103fb57600080fd5b806301ffc9a71461025657806306fdde031461028b578063081812fc146102ad578063095ea7b3146102e557806312cda25414610307575b600080fd5b34801561026257600080fd5b50610276610271366004612c12565b61088f565b60405190151581526020015b60405180910390f35b34801561029757600080fd5b506102a06108a0565b6040516102829190612c7f565b3480156102b957600080fd5b506102cd6102c8366004612c92565b610932565b6040516001600160a01b039091168152602001610282565b3480156102f157600080fd5b50610305610300366004612cc7565b61095b565b005b34801561031357600080fd5b506102cd610322366004612c92565b6012602052600090815260409020546001600160a01b031681565b34801561034957600080fd5b50610375610358366004612cf1565b600f60209081526000928352604080842090915290825290205481565b604051908152602001610282565b34801561038f57600080fd5b50600854610375565b3480156103a457600080fd5b506103056103b3366004612d1d565b61096a565b3480156103c457600080fd5b506103756103d3366004612cf1565b6000918252600f602090815260408084206001600160a01b0393909316845291905290205490565b34801561040757600080fd5b50610375610416366004612cc7565b6109fa565b34801561042757600080fd5b50610375600e5481565b34801561043d57600080fd5b5061037561044c366004612c92565b60106020526000908152604090205481565b61030561046c366004612d5a565b610a5f565b34801561047d57600080fd5b5061030561048c366004612d1d565b610d9c565b34801561049d57600080fd5b506103756104ac366004612c92565b610dbc565b3480156104bd57600080fd5b506103756103e881565b3480156104d357600080fd5b506105166104e2366004612c92565b60146020526000908152604090208054600182015460028301546003909301546001600160a01b0390921692909160ff1684565b604080516001600160a01b03909516855260208501939093529183015215156060820152608001610282565b34801561054e57600080fd5b50610305610e15565b34801561056357600080fd5b506102cd610572366004612c92565b610f52565b34801561058357600080fd5b50610305610592366004612d5a565b610f5d565b3480156105a357600080fd5b506103756105b2366004612d7c565b611089565b3480156105c357600080fd5b506103056110d1565b3480156105d857600080fd5b506103056105e7366004612c92565b6110e3565b3480156105f857600080fd5b506013546102cd906001600160a01b031681565b34801561061857600080fd5b50600b546001600160a01b03166102cd565b34801561063657600080fd5b50610305610645366004612d7c565b6112b3565b34801561065657600080fd5b506102a06112dd565b61030561066d366004612c92565b6112ec565b34801561067e57600080fd5b5061030561068d366004612d97565b611575565b34801561069e57600080fd5b506103056106ad366004612dcd565b6117cb565b3480156106be57600080fd5b506103056106cd366004612c92565b6117d6565b6103056106e0366004612d5a565b611946565b3480156106f157600080fd5b50610305610700366004612e8e565b611b31565b34801561071157600080fd5b50610305610720366004612cf1565b611b49565b34801561073157600080fd5b50610305610740366004612c92565b611c50565b34801561075157600080fd5b506102a0610760366004612c92565b611e62565b34801561077157600080fd5b50610305610780366004612f0a565b611e6d565b34801561079157600080fd5b506107ce6107a0366004612c92565b6011602052600090815260409020805460018201546002909201546001600160a01b03909116919060ff1683565b604080516001600160a01b0390941684526020840192909252151590820152606001610282565b34801561080157600080fd5b50610276610810366004612f6c565b611e98565b34801561082157600080fd5b50610375610830366004612c92565b60009081526010602052604090205490565b34801561084e57600080fd5b5061030561085d366004612d7c565b611ec6565b34801561086e57600080fd5b5061037561087d366004612d7c565b60156020526000908152604090205481565b600061089a82611f01565b92915050565b6060600080546108af90612f96565b80601f01602080910402602001604051908101604052809291908181526020018280546108db90612f96565b80156109285780601f106108fd57610100808354040283529160200191610928565b820191906000526020600020905b81548152906001019060200180831161090b57829003601f168201915b5050505050905090565b600061093d82611f26565b506000828152600460205260409020546001600160a01b031661089a565b610966828233611f5f565b5050565b6001600160a01b03821661099957604051633250574960e11b8152600060048201526024015b60405180910390fd5b60006109a6838333611f6c565b9050836001600160a01b0316816001600160a01b0316146109f4576040516364283d7b60e01b81526001600160a01b0380861660048301526024820184905282166044820152606401610990565b50505050565b6000610a0583611089565b8210610a365760405163295f44f760e21b81526001600160a01b038416600482015260248101839052604401610990565b506001600160a01b03919091166000908152600660209081526040808320938352929052205490565b610a67611f81565b600d548210610a885760405162461bcd60e51b815260040161099090612fd0565b6000828152601460205260409020600381015460ff16610aea5760405162461bcd60e51b815260206004820181905260248201527f50726f7065727479206973206e6f74206c697374656420666f722072656e742e6044820152606401610990565b8060020154421015610b3e5760405162461bcd60e51b815260206004820152601d60248201527f50726f70657274792069732063757272656e746c792072656e7465642e0000006044820152606401610990565b60008211610b9e5760405162461bcd60e51b815260206004820152602760248201527f52656e74616c206475726174696f6e206d757374206265206174206c656173746044820152661018903230bc9760c91b6064820152608401610990565b6000828260010154610bb09190613015565b9050803414610c015760405162461bcd60e51b815260206004820181905260248201527f496e636f727265637420457468657220616d6f756e7420666f722072656e742e6044820152606401610990565b81546001600160a01b03191633178255610c1e8362015180613015565b610c28904261302c565b60028301556000848152601260205260409020546001600160a01b03168015610d08576000816001600160a01b03163460405160006040518083038185875af1925050503d8060008114610c98576040519150601f19603f3d011682016040523d82523d6000602084013e610c9d565b606091505b5050905080610d025760405162461bcd60e51b815260206004820152602b60248201527f4661696c656420746f20666f72776172642072656e7420746f2066726163746960448201526a1bdb8818dbdb9d1c9858dd60aa1b6064820152608401610990565b50610d47565b6000610d1386610f52565b6001600160a01b038116600090815260156020526040812080549293503492909190610d4090849061302c565b9091555050505b336001600160a01b0316857fddf30198c8f217b33732c1d9c4f25fef5319d97880bd3b5f777aad155eb665998560020154604051610d8791815260200190565b60405180910390a35050506109666001600c55565b610db783838360405180602001604052806000815250611b31565b505050565b6000610dc760085490565b8210610df05760405163295f44f760e21b81526000600482015260248101839052604401610990565b60088281548110610e0357610e0361303f565b90600052602060002001549050919050565b610e1d611f81565b3360009081526015602052604090205480610e715760405162461bcd60e51b81526020600482015260146024820152732737903932b73a103a37903bb4ba34323930bb9760611b6044820152606401610990565b336000818152601560205260408082208290555190919083908381818185875af1925050503d8060008114610ec2576040519150601f19603f3d011682016040523d82523d6000602084013e610ec7565b606091505b5050905080610f0f5760405162461bcd60e51b81526020600482015260146024820152732330b4b632b2103a379039b2b7321022ba3432b960611b6044820152606401610990565b60405182815233907ffeb9f3b8586fb3823735104fd243164bdb90fcd9e989f902e96eb5b26bed4e389060200160405180910390a25050610f506001600c55565b565b600061089a82611f26565b33610f6783610f52565b6001600160a01b031614610fd35760405162461bcd60e51b815260206004820152602d60248201527f4f6e6c79207468652070726f7065727479206f776e65722063616e206c69737460448201526c1034ba103337b9103932b73a1760991b6064820152608401610990565b600081116110235760405162461bcd60e51b815260206004820152601c60248201527f52656e74207072696365206d75737420626520706f7369746976652e000000006044820152606401610990565b6000828152601460205260409081902060018082018490556003909101805460ff191690911790555182907fd01a378ab4675d93041e3feb288811ad33f62a6ccfeab955d227ec109fd709109061107d9084815260200190565b60405180910390a25050565b60006001600160a01b0382166110b5576040516322718ad960e21b815260006004820152602401610990565b506001600160a01b031660009081526003602052604090205490565b6110d9611fab565b610f506000611fd8565b6110eb611f81565b600081815260116020526040902080546001600160a01b031633146111645760405162461bcd60e51b815260206004820152602960248201527f4f6e6c7920746865206f6666657265722063616e20776974686472617720746860448201526834b99037b33332b91760b91b6064820152608401610990565b600281015460ff166111b85760405162461bcd60e51b815260206004820152601c60248201527f4e6f20616374697665206f6666657220746f2077697468647261772e000000006044820152606401610990565b60018101805460028301805460ff1916905582546001600160a01b0319168355600091829055604051909190339083908381818185875af1925050503d8060008114611220576040519150601f19603f3d011682016040523d82523d6000602084013e611225565b606091505b50509050806112765760405162461bcd60e51b815260206004820152601960248201527f4661696c656420746f20726566756e64206f6666657265722e000000000000006044820152606401610990565b604051339085907fe6f4d8e39c4a3ade2f3812a17eb8f658c1cc293ceee263362516f01750847ac890600090a35050506112b06001600c55565b50565b6112bb611fab565b601380546001600160a01b0319166001600160a01b0392909216919091179055565b6060600180546108af90612f96565b6112f4611f81565b600d5481106113155760405162461bcd60e51b815260040161099090612fd0565b600034116113755760405162461bcd60e51b815260206004820152602760248201527f4f6666657220616d6f756e74206d75737420626520677265617465722074686160448201526637103d32b9379760c91b6064820152608401610990565b60008181526011602052604090206001015434116113fb5760405162461bcd60e51b815260206004820152603760248201527f4c61206f6665727461206465626520736572206d61796f7220717565206c612060448201527f6f6665727461206d617320616c74612061637475616c2e0000000000000000006064820152608401610990565b60008181526011602052604090206002015460ff16156114d557600081815260116020526040808220805460019091015491516001600160a01b0390911691908381818185875af1925050503d8060008114611473576040519150601f19603f3d011682016040523d82523d6000602084013e611478565b606091505b50509050806114d35760405162461bcd60e51b815260206004820152602160248201527f4661696c656420746f20726566756e642070726576696f7573206f66666572656044820152603960f91b6064820152608401610990565b505b60408051606081018252338082523460208084018281526001858701818152600089815260118552889020965187546001600160a01b0319166001600160a01b03909116178755915190860155516002909401805460ff19169415159490941790935592519283529183917fbdf1e76c2ba2a5c85b93bf78678a4a3b06d63b18422612dac8d7d5249ed46714910160405180910390a36112b06001600c55565b60008281526014602052604081209061158d84610f52565b905060008260020154116115e35760405162461bcd60e51b815260206004820152601760248201527f50726f706572747920776173206e6f742072656e7465640000000000000000006044820152606401610990565b816002015442116116445760405162461bcd60e51b815260206004820152602560248201527f43616e6e6f742072617465206265666f72652072656e74616c20706572696f6460448201526420656e647360d81b6064820152608401610990565b336001600160a01b0382161480611664575081546001600160a01b031633145b6116b05760405162461bcd60e51b815260206004820152601d60248201527f4f6e6c79206f776e6572206f722074656e616e742063616e20726174650000006044820152606401610990565b60006001600160a01b03821633036116d3575081546001600160a01b03166116d6565b50805b60008584600201546040516020016116f8929190918252602082015260400190565b60408051808303601f190181529082905280516020909101206013546304ad030360e51b83526001600160a01b03858116600485015260ff891660248501526044840183905291935016906395a0606090606401600060405180830381600087803b15801561176657600080fd5b505af115801561177a573d6000803e3d6000fd5b505060405160ff881681528892506001600160a01b038516915033907fc2363b6f9e825e68ba4dcddb059d6a52531daf48187786f4c3af1552306532ad9060200160405180910390a4505050505050565b61096633838361202a565b336117e082610f52565b6001600160a01b0316146118455760405162461bcd60e51b815260206004820152602660248201527f4f6e6c79207468652070726f7065727479206f776e65722063616e20756e6c6960448201526539ba1034ba1760d11b6064820152608401610990565b6000818152601460205260409020600381015460ff166118a75760405162461bcd60e51b815260206004820181905260248201527f50726f7065727479206973206e6f74206c697374656420666f722072656e742e6044820152606401610990565b806002015442101561190b5760405162461bcd60e51b815260206004820152602760248201527f43616e6e6f7420756e6c697374207768696c652070726f7065727479206973206044820152663932b73a32b21760c91b6064820152608401610990565b60038101805460ff1916905560405182907ff54225bfc9eb7890dbd448a5d29ed9c32e821c5e5aee0b05a7802e8372d04f1690600090a25050565b61194e611f81565b600d54821061196f5760405162461bcd60e51b815260040161099090612fd0565b600081116119cb5760405162461bcd60e51b8152602060048201526024808201527f4d757374207075726368617365206174206c65617374206f6e6520667261637460448201526334b7b71760e11b6064820152608401610990565b6000828152601060205260409020546103e8906119e990839061302c565b1115611a375760405162461bcd60e51b815260206004820152601f60248201527f4e6f7420656e6f756768206672616374696f6e7320617661696c61626c652e006044820152606401610990565b600081600e54611a479190613015565b9050803414611a985760405162461bcd60e51b815260206004820152601c60248201527f496e636f727265637420457468657220616d6f756e742073656e742e000000006044820152606401610990565b60008381526010602052604081208054849290611ab690849061302c565b90915550506000838152600f6020908152604080832033845290915281208054849290611ae490849061302c565b90915550506040805183815260208101839052339185917f4baafac02d651b8886d3212cc69aff0fb3c687080a4fe86b0674563ac1493e82910160405180910390a3506109666001600c55565b611b3c84848461096a565b6109f433858585856120c9565b33611b5383610f52565b6001600160a01b031614611b995760405162461bcd60e51b815260206004820152600d60248201526c2737ba103a34329037bbb732b960991b6044820152606401610990565b6000828152601260205260409020546001600160a01b031615611bf75760405162461bcd60e51b8152602060048201526016602482015275105b1c9958591e48199c9858dd1a5bdb985b1a5e995960521b6044820152606401610990565b60008281526012602052604080822080546001600160a01b0319166001600160a01b0385169081179091559051909184917fc231e91a72847bed4aa7fbf4a0541bca6938e13eeaddbf3b0a68691f358f39849190a35050565b611c58611f81565b33611c6282610f52565b6001600160a01b031614611cc45760405162461bcd60e51b815260206004820152602360248201527f4f6e6c7920746865206f776e65722063616e2061636365707420616e206f666660448201526232b91760e91b6064820152608401610990565b6000818152601160205260409020600281015460ff16611d265760405162461bcd60e51b815260206004820152601a60248201527f4e6f20616374697665206f6666657220746f206163636570742e0000000000006044820152606401610990565b805460018201805460028401805460ff191690556001600160a01b03198316845560009091556001600160a01b0390911690611d633383866121f4565b604051600090339083908381818185875af1925050503d8060008114611da5576040519150601f19603f3d011682016040523d82523d6000602084013e611daa565b606091505b5050905080611e065760405162461bcd60e51b815260206004820152602260248201527f4661696c656420746f2073656e6420457468657220746f20746865206f776e65604482015261391760f11b6064820152608401610990565b826001600160a01b0316336001600160a01b0316867fc67f49229cab3f614ad390c12432e0e671552dcfd15e24ddc005cf5a01a0213585604051611e4c91815260200190565b60405180910390a4505050506112b06001600c55565b606061089a826122a4565b600d805460009182611e7e83613055565b919050559050611e8e83826123ad565b610db781836123c7565b6001600160a01b03918216600090815260056020908152604080832093909416825291909152205460ff1690565b611ece611fab565b6001600160a01b038116611ef857604051631e4fbdf760e01b815260006004820152602401610990565b6112b081611fd8565b60006001600160e01b03198216632483248360e11b148061089a575061089a82612417565b6000818152600260205260408120546001600160a01b03168061089a57604051637e27328960e01b815260048101849052602401610990565b610db7838383600161243c565b6000611f79848484612542565b949350505050565b6002600c5403611fa457604051633ee5aeb560e01b815260040160405180910390fd5b6002600c55565b600b546001600160a01b03163314610f505760405163118cdaa760e01b8152336004820152602401610990565b600b80546001600160a01b038381166001600160a01b0319831681179093556040519116919082907f8be0079c531659141344cd1fd0a4f28419497f9722a3daafe3b4186f6b6457e090600090a35050565b6001600160a01b03821661205c57604051630b61174360e31b81526001600160a01b0383166004820152602401610990565b6001600160a01b03838116600081815260056020908152604080832094871680845294825291829020805460ff191686151590811790915591519182527f17307eab39ab6107e8899845ad3d59bd9653f200f220920489ca2b5937696c31910160405180910390a3505050565b6001600160a01b0383163b156121ed57604051630a85bd0160e11b81526001600160a01b0384169063150b7a029061210b90889088908790879060040161306e565b6020604051808303816000875af1925050508015612146575060408051601f3d908101601f19168201909252612143918101906130ab565b60015b6121af573d808015612174576040519150601f19603f3d011682016040523d82523d6000602084013e612179565b606091505b5080516000036121a757604051633250574960e11b81526001600160a01b0385166004820152602401610990565b805160208201fd5b6001600160e01b03198116630a85bd0160e11b146121eb57604051633250574960e11b81526001600160a01b0385166004820152602401610990565b505b5050505050565b6001600160a01b03821661221e57604051633250574960e11b815260006004820152602401610990565b600061222c83836000611f6c565b90506001600160a01b03811661225857604051637e27328960e01b815260048101839052602401610990565b836001600160a01b0316816001600160a01b0316146109f4576040516364283d7b60e01b81526001600160a01b0380861660048301526024820184905282166044820152606401610990565b60606122af82611f26565b506000828152600a6020526040812080546122c990612f96565b80601f01602080910402602001604051908101604052809291908181526020018280546122f590612f96565b80156123425780601f1061231757610100808354040283529160200191612342565b820191906000526020600020905b81548152906001019060200180831161232557829003601f168201915b50505050509050600061236060408051602081019091526000815290565b90508051600003612372575092915050565b8151156123a457808260405160200161238c9291906130c8565b60405160208183030381529060405292505050919050565b611f798461260f565b610966828260405180602001604052806000815250612684565b6000828152600a602052604090206123df828261313e565b506040518281527ff8e1a15aba9398e019f0b49df1a4fde98ee17ae345cb5f6b5e2c27f5033e8ce79060200160405180910390a15050565b60006001600160e01b0319821663780e9d6360e01b148061089a575061089a8261269c565b808061245057506001600160a01b03821615155b1561251257600061246084611f26565b90506001600160a01b0383161580159061248c5750826001600160a01b0316816001600160a01b031614155b801561249f575061249d8184611e98565b155b156124c85760405163a9fbf51f60e01b81526001600160a01b0384166004820152602401610990565b81156125105783856001600160a01b0316826001600160a01b03167f8c5be1e5ebec7d5bd14f71427d1e84f3dd0314c0f7b2291e5b200ac8c7c3b92560405160405180910390a45b505b5050600090815260046020526040902080546001600160a01b0319166001600160a01b0392909216919091179055565b6000806125508585856126ec565b90506001600160a01b0381166125ad576125a884600880546000838152600960205260408120829055600182018355919091527ff3f7a9fe364faab93b216da50a3214154f22a0a2b415b23a84c8169e8b636ee30155565b6125d0565b846001600160a01b0316816001600160a01b0316146125d0576125d081856127e5565b6001600160a01b0385166125ec576125e784612866565b611f79565b846001600160a01b0316816001600160a01b031614611f7957611f798585612915565b606061261a82611f26565b50600061263260408051602081019091526000815290565b90506000815111612652576040518060200160405280600081525061267d565b8061265c84612965565b60405160200161266d9291906130c8565b6040516020818303038152906040525b9392505050565b61268e83836129f8565b610db73360008585856120c9565b60006001600160e01b031982166380ac58cd60e01b14806126cd57506001600160e01b03198216635b5e139f60e01b145b8061089a57506301ffc9a760e01b6001600160e01b031983161461089a565b6000828152600260205260408120546001600160a01b039081169083161561271957612719818486612a5d565b6001600160a01b038116156127575761273660008560008061243c565b6001600160a01b038116600090815260036020526040902080546000190190555b6001600160a01b03851615612786576001600160a01b0385166000908152600360205260409020805460010190555b60008481526002602052604080822080546001600160a01b0319166001600160a01b0389811691821790925591518793918516917fddf252ad1be2c89b69c2b068fc378daa952ba7f163c4a11628f55a4df523b3ef91a4949350505050565b60006127f083611089565b6000838152600760209081526040808320546001600160a01b038816845260069092529091209192509081831461284757600083815260208281526040808320548584528184208190558352600790915290208290555b6000938452600760209081526040808620869055938552525081205550565b600854600090612878906001906131fd565b600083815260096020526040812054600880549394509092849081106128a0576128a061303f565b9060005260206000200154905080600883815481106128c1576128c161303f565b60009182526020808320909101929092558281526009909152604080822084905585825281205560088054806128f9576128f9613210565b6001900381819060005260206000200160009055905550505050565b6000600161292284611089565b61292c91906131fd565b6001600160a01b039093166000908152600660209081526040808320868452825280832085905593825260079052919091209190915550565b6060600061297283612ac1565b600101905060008167ffffffffffffffff81111561299257612992612dfe565b6040519080825280601f01601f1916602001820160405280156129bc576020820181803683370190505b5090508181016020015b600019016f181899199a1a9b1b9c1cb0b131b232b360811b600a86061a8153600a85049450846129c657509392505050565b6001600160a01b038216612a2257604051633250574960e11b815260006004820152602401610990565b6000612a3083836000611f6c565b90506001600160a01b03811615610db7576040516339e3563760e11b815260006004820152602401610990565b612a68838383612b99565b610db7576001600160a01b038316612a9657604051637e27328960e01b815260048101829052602401610990565b60405163177e802f60e01b81526001600160a01b038316600482015260248101829052604401610990565b60008072184f03e93ff9f4daa797ed6e38ed64bf6a1f0160401b8310612b005772184f03e93ff9f4daa797ed6e38ed64bf6a1f0160401b830492506040015b6d04ee2d6d415b85acef81000000008310612b2c576d04ee2d6d415b85acef8100000000830492506020015b662386f26fc100008310612b4a57662386f26fc10000830492506010015b6305f5e1008310612b62576305f5e100830492506008015b6127108310612b7657612710830492506004015b60648310612b88576064830492506002015b600a831061089a5760010192915050565b60006001600160a01b03831615801590611f795750826001600160a01b0316846001600160a01b03161480612bd35750612bd38484611e98565b80611f795750506000908152600460205260409020546001600160a01b03908116911614919050565b6001600160e01b0319811681146112b057600080fd5b600060208284031215612c2457600080fd5b813561267d81612bfc565b60005b83811015612c4a578181015183820152602001612c32565b50506000910152565b60008151808452612c6b816020860160208601612c2f565b601f01601f19169290920160200192915050565b60208152600061267d6020830184612c53565b600060208284031215612ca457600080fd5b5035919050565b80356001600160a01b0381168114612cc257600080fd5b919050565b60008060408385031215612cda57600080fd5b612ce383612cab565b946020939093013593505050565b60008060408385031215612d0457600080fd5b82359150612d1460208401612cab565b90509250929050565b600080600060608486031215612d3257600080fd5b612d3b84612cab565b9250612d4960208501612cab565b929592945050506040919091013590565b60008060408385031215612d6d57600080fd5b50508035926020909101359150565b600060208284031215612d8e57600080fd5b61267d82612cab565b60008060408385031215612daa57600080fd5b82359150602083013560ff81168114612dc257600080fd5b809150509250929050565b60008060408385031215612de057600080fd5b612de983612cab565b915060208301358015158114612dc257600080fd5b634e487b7160e01b600052604160045260246000fd5b60008067ffffffffffffffff841115612e2f57612e2f612dfe565b50604051601f19601f85018116603f0116810181811067ffffffffffffffff82111715612e5e57612e5e612dfe565b604052838152905080828401851015612e7657600080fd5b83836020830137600060208583010152509392505050565b60008060008060808587031215612ea457600080fd5b612ead85612cab565b9350612ebb60208601612cab565b925060408501359150606085013567ffffffffffffffff811115612ede57600080fd5b8501601f81018713612eef57600080fd5b612efe87823560208401612e14565b91505092959194509250565b60008060408385031215612f1d57600080fd5b612f2683612cab565b9150602083013567ffffffffffffffff811115612f4257600080fd5b8301601f81018513612f5357600080fd5b612f6285823560208401612e14565b9150509250929050565b60008060408385031215612f7f57600080fd5b612f8883612cab565b9150612d1460208401612cab565b600181811c90821680612faa57607f821691505b602082108103612fca57634e487b7160e01b600052602260045260246000fd5b50919050565b6020808252601590820152742a37b5b2b7103237b2b9903737ba1032bc34b9ba1760591b604082015260600190565b634e487b7160e01b600052601160045260246000fd5b808202811582820484141761089a5761089a612fff565b8082018082111561089a5761089a612fff565b634e487b7160e01b600052603260045260246000fd5b60006001820161306757613067612fff565b5060010190565b6001600160a01b03858116825284166020820152604081018390526080606082018190526000906130a190830184612c53565b9695505050505050565b6000602082840312156130bd57600080fd5b815161267d81612bfc565b600083516130da818460208801612c2f565b8351908301906130ee818360208801612c2f565b01949350505050565b601f821115610db757806000526020600020601f840160051c8101602085101561311e5750805b601f840160051c820191505b818110156121ed576000815560010161312a565b815167ffffffffffffffff81111561315857613158612dfe565b61316c816131668454612f96565b846130f7565b6020601f8211600181146131a057600083156131885750848201515b600019600385901b1c1916600184901b1784556121ed565b600084815260208120601f198516915b828110156131d057878501518255602094850194600190920191016131b0565b50848210156131ee5786840151600019600387901b60f8161c191681555b50505050600190811b01905550565b8181038181111561089a5761089a612fff565b634e487b7160e01b600052603160045260246000fdfea26469706673582212202ffc82097df6e8c5a24016c3a5053283d7947a0e4829bd2774cbbd757fddfaaa64736f6c634300081c0033",
  "linkReferences": {},
  "deployedLinkReferences": {}
}