{
  "_format": "hh-sol-artifact-1",
  "contractName": "RealEstate",
  "sourceName": "contracts/RealEstate.sol",
  "abi": [
    {
      "inputs": [
        {
          "internalType": "address",
          "name": "initialOwner",
          "type": "address"
        }
      ],
      "stateMutability": "nonpayable",
      "type": "constructor"
    },
    {
      "inputs": [],
      "name": "ERC721EnumerableForbiddenBatchMint",
      "type": "error"
    },
    {
      "inputs": [
        {
          "internalType": "address",
          "name": "sender",
          "type": "address"
        },
        {
          "internalType": "uint256",
          "name": "tokenId",
          "type": "uint256"
        },
        {
          "internalType": "address",
          "name": "owner",
          "type": "address"
        }
      ],
      "name": "ERC721IncorrectOwner",
      "type": "error"
    },
    {
      "inputs": [
        {
          "internalType": "address",
          "name": "operator",
          "type": "address"
        },
        {
          "internalType": "uint256",
          "name": "tokenId",
          "type": "uint256"
        }
      ],
      "name": "ERC721InsufficientApproval",
      "type": "error"
    },
    {
      "inputs": [
        {
          "internalType": "address",
          "name": "approver",
          "type": "address"
        }
      ],
      "name": "ERC721InvalidApprover",
      "type": "error"
    },
    {
      "inputs": [
        {
          "internalType": "address",
          "name": "operator",
          "type": "address"
        }
      ],
      "name": "ERC721InvalidOperator",
      "type": "error"
    },
    {
      "inputs": [
        {
          "internalType": "address",
          "name": "owner",
          "type": "address"
        }
      ],
      "name": "ERC721InvalidOwner",
      "type": "error"
    },
    {
      "inputs": [
        {
          "internalType": "address",
          "name": "receiver",
          "type": "address"
        }
      ],
      "name": "ERC721InvalidReceiver",
      "type": "error"
    },
    {
      "inputs": [
        {
          "internalType": "address",
          "name": "sender",
          "type": "address"
        }
      ],
      "name": "ERC721InvalidSender",
      "type": "error"
    },
    {
      "inputs": [
        {
          "internalType": "uint256",
          "name": "tokenId",
          "type": "uint256"
        }
      ],
      "name": "ERC721NonexistentToken",
      "type": "error"
    },
    {
      "inputs": [
        {
          "internalType": "address",
          "name": "owner",
          "type": "address"
        },
        {
          "internalType": "uint256",
          "name": "index",
          "type": "uint256"
        }
      ],
      "name": "ERC721OutOfBoundsIndex",
      "type": "error"
    },
    {
      "inputs": [
        {
          "internalType": "address",
          "name": "owner",
          "type": "address"
        }
      ],
      "name": "OwnableInvalidOwner",
      "type": "error"
    },
    {
      "inputs": [
        {
          "internalType": "address",
          "name": "account",
          "type": "address"
        }
      ],
      "name": "OwnableUnauthorizedAccount",
      "type": "error"
    },
    {
      "inputs": [],
      "name": "ReentrancyGuardReentrantCall",
      "type": "error"
    },
    {
      "anonymous": false,
      "inputs": [
        {
          "indexed": true,
          "internalType": "address",
          "name": "owner",
          "type": "address"
        },
        {
          "indexed": true,
          "internalType": "address",
          "name": "approved",
          "type": "address"
        },
        {
          "indexed": true,
          "internalType": "uint256",
          "name": "tokenId",
          "type": "uint256"
        }
      ],
      "name": "Approval",
      "type": "event"
    },
    {
      "anonymous": false,
      "inputs": [
        {
          "indexed": true,
          "internalType": "address",
          "name": "owner",
          "type": "address"
        },
        {
          "indexed": true,
          "internalType": "address",
          "name": "operator",
          "type": "address"
        },
        {
          "indexed": false,
          "internalType": "bool",
          "name": "approved",
          "type": "bool"
        }
      ],
      "name": "ApprovalForAll",
      "type": "event"
    },
    {
      "anonymous": false,
      "inputs": [
        {
          "indexed": false,
          "internalType": "uint256",
          "name": "_fromTokenId",
          "type": "uint256"
        },
        {
          "indexed": false,
          "internalType": "uint256",
          "name": "_toTokenId",
          "type": "uint256"
        }
      ],
      "name": "BatchMetadataUpdate",
      "type": "event"
    },
    {
      "anonymous": false,
      "inputs": [
        {
          "indexed": true,
          "internalType": "uint256",
          "name": "tokenId",
          "type": "uint256"
        },
        {
          "indexed": true,
          "internalType": "address",
          "name": "buyer",
          "type": "address"
        },
        {
          "indexed": false,
          "internalType": "uint256",
          "name": "count",
          "type": "uint256"
        },
        {
          "indexed": false,
          "internalType": "uint256",
          "name": "totalCost",
          "type": "uint256"
        }
      ],
      "name": "FractionsPurchased",
      "type": "event"
    },
    {
      "anonymous": false,
      "inputs": [
        {
          "indexed": false,
          "internalType": "uint256",
          "name": "_tokenId",
          "type": "uint256"
        }
      ],
      "name": "MetadataUpdate",
      "type": "event"
    },
    {
      "anonymous": false,
      "inputs": [
        {
          "indexed": true,
          "internalType": "uint256",
          "name": "tokenId",
          "type": "uint256"
        },
        {
          "indexed": true,
          "internalType": "address",
          "name": "owner",
          "type": "address"
        },
        {
          "indexed": true,
          "internalType": "address",
          "name": "offerer",
          "type": "address"
        },
        {
          "indexed": false,
          "internalType": "uint256",
          "name": "amount",
          "type": "uint256"
        }
      ],
      "name": "OfferAccepted",
      "type": "event"
    },
    {
      "anonymous": false,
      "inputs": [
        {
          "indexed": true,
          "internalType": "uint256",
          "name": "tokenId",
          "type": "uint256"
        },
        {
          "indexed": true,
          "internalType": "address",
          "name": "offerer",
          "type": "address"
        },
        {
          "indexed": false,
          "internalType": "uint256",
          "name": "amount",
          "type": "uint256"
        }
      ],
      "name": "OfferMade",
      "type": "event"
    },
    {
      "anonymous": false,
      "inputs": [
        {
          "indexed": true,
          "internalType": "uint256",
          "name": "tokenId",
          "type": "uint256"
        },
        {
          "indexed": true,
          "internalType": "address",
          "name": "offerer",
          "type": "address"
        }
      ],
      "name": "OfferWithdrawn",
      "type": "event"
    },
    {
      "anonymous": false,
      "inputs": [
        {
          "indexed": true,
          "internalType": "address",
          "name": "previousOwner",
          "type": "address"
        },
        {
          "indexed": true,
          "internalType": "address",
          "name": "newOwner",
          "type": "address"
        }
      ],
      "name": "OwnershipTransferred",
      "type": "event"
    },
    {
      "anonymous": false,
      "inputs": [
        {
          "indexed": true,
          "internalType": "uint256",
          "name": "tokenId",
          "type": "uint256"
        },
        {
          "indexed": true,
          "internalType": "address",
          "name": "fractionContract",
          "type": "address"
        }
      ],
      "name": "PropertyFractionalized",
      "type": "event"
    },
    {
      "anonymous": false,
      "inputs": [
        {
          "indexed": true,
          "internalType": "uint256",
          "name": "tokenId",
          "type": "uint256"
        },
        {
          "indexed": false,
          "internalType": "uint256",
          "name": "pricePerDay",
          "type": "uint256"
        }
      ],
      "name": "PropertyListedForRent",
      "type": "event"
    },
    {
      "anonymous": false,
      "inputs": [
        {
          "indexed": true,
          "internalType": "uint256",
          "name": "tokenId",
          "type": "uint256"
        },
        {
          "indexed": true,
          "internalType": "address",
          "name": "tenant",
          "type": "address"
        },
        {
          "indexed": false,
          "internalType": "uint256",
          "name": "rentedUntil",
          "type": "uint256"
        }
      ],
      "name": "PropertyRented",
      "type": "event"
    },
    {
      "anonymous": false,
      "inputs": [
        {
          "indexed": true,
          "internalType": "uint256",
          "name": "tokenId",
          "type": "uint256"
        }
      ],
      "name": "PropertyUnlistedForRent",
      "type": "event"
    },
    {
      "anonymous": false,
      "inputs": [
        {
          "indexed": true,
          "internalType": "address",
          "name": "owner",
          "type": "address"
        },
        {
          "indexed": false,
          "internalType": "uint256",
          "name": "amount",
          "type": "uint256"
        }
      ],
      "name": "RentWithdrawn",
      "type": "event"
    },
    {
      "anonymous": false,
      "inputs": [
        {
          "indexed": true,
          "internalType": "address",
          "name": "from",
          "type": "address"
        },
        {
          "indexed": true,
          "internalType": "address",
          "name": "to",
          "type": "address"
        },
        {
          "indexed": true,
          "internalType": "uint256",
          "name": "tokenId",
          "type": "uint256"
        }
      ],
      "name": "Transfer",
      "type": "event"
    },
    {
      "inputs": [],
      "name": "TOTAL_FRACTIONS_PER_PROPERTY",
      "outputs": [
        {
          "internalType": "uint256",
          "name": "",
          "type": "uint256"
        }
      ],
      "stateMutability": "view",
      "type": "function"
    },
    {
      "inputs": [
        {
          "internalType": "uint256",
          "name": "tokenId",
          "type": "uint256"
        }
      ],
      "name": "acceptOffer",
      "outputs": [],
      "stateMutability": "nonpayable",
      "type": "function"
    },
    {
      "inputs": [
        {
          "internalType": "address",
          "name": "to",
          "type": "address"
        },
        {
          "internalType": "uint256",
          "name": "tokenId",
          "type": "uint256"
        }
      ],
      "name": "approve",
      "outputs": [],
      "stateMutability": "nonpayable",
      "type": "function"
    },
    {
      "inputs": [
        {
          "internalType": "address",
          "name": "owner",
          "type": "address"
        }
      ],
      "name": "balanceOf",
      "outputs": [
        {
          "internalType": "uint256",
          "name": "",
          "type": "uint256"
        }
      ],
      "stateMutability": "view",
      "type": "function"
    },
    {
      "inputs": [
        {
          "internalType": "uint256",
          "name": "",
          "type": "uint256"
        }
      ],
      "name": "fractionContracts",
      "outputs": [
        {
          "internalType": "address",
          "name": "",
          "type": "address"
        }
      ],
      "stateMutability": "view",
      "type": "function"
    },
    {
      "inputs": [],
      "name": "fractionPriceInWei",
      "outputs": [
        {
          "internalType": "uint256",
          "name": "",
          "type": "uint256"
        }
      ],
      "stateMutability": "view",
      "type": "function"
    },
    {
      "inputs": [
        {
          "internalType": "uint256",
          "name": "",
          "type": "uint256"
        },
        {
          "internalType": "address",
          "name": "",
          "type": "address"
        }
      ],
      "name": "fractionalOwnership",
      "outputs": [
        {
          "internalType": "uint256",
          "name": "",
          "type": "uint256"
        }
      ],
      "stateMutability": "view",
      "type": "function"
    },
    {
      "inputs": [
        {
          "internalType": "uint256",
          "name": "",
          "type": "uint256"
        }
      ],
      "name": "fractionsSold",
      "outputs": [
        {
          "internalType": "uint256",
          "name": "",
          "type": "uint256"
        }
      ],
      "stateMutability": "view",
      "type": "function"
    },
    {
      "inputs": [
        {
          "internalType": "uint256",
          "name": "tokenId",
          "type": "uint256"
        }
      ],
      "name": "getApproved",
      "outputs": [
        {
          "internalType": "address",
          "name": "",
          "type": "address"
        }
      ],
      "stateMutability": "view",
      "type": "function"
    },
    {
      "inputs": [
        {
          "internalType": "uint256",
          "name": "tokenId",
          "type": "uint256"
        },
        {
          "internalType": "address",
          "name": "owner",
          "type": "address"
        }
      ],
      "name": "getFractionsOwned",
      "outputs": [
        {
          "internalType": "uint256",
          "name": "",
          "type": "uint256"
        }
      ],
      "stateMutability": "view",
      "type": "function"
    },
    {
      "inputs": [
        {
          "internalType": "uint256",
          "name": "tokenId",
          "type": "uint256"
        }
      ],
      "name": "getFractionsSold",
      "outputs": [
        {
          "internalType": "uint256",
          "name": "",
          "type": "uint256"
        }
      ],
      "stateMutability": "view",
      "type": "function"
    },
    {
      "inputs": [
        {
          "internalType": "uint256",
          "name": "",
          "type": "uint256"
        }
      ],
      "name": "highestOffer",
      "outputs": [
        {
          "internalType": "address",
          "name": "offerer",
          "type": "address"
        },
        {
          "internalType": "uint256",
          "name": "amount",
          "type": "uint256"
        },
        {
          "internalType": "bool",
          "name": "isActive",
          "type": "bool"
        }
      ],
      "stateMutability": "view",
      "type": "function"
    },
    {
      "inputs": [
        {
          "internalType": "address",
          "name": "owner",
          "type": "address"
        },
        {
          "internalType": "address",
          "name": "operator",
          "type": "address"
        }
      ],
      "name": "isApprovedForAll",
      "outputs": [
        {
          "internalType": "bool",
          "name": "",
          "type": "bool"
        }
      ],
      "stateMutability": "view",
      "type": "function"
    },
    {
      "inputs": [
        {
          "internalType": "uint256",
          "name": "tokenId",
          "type": "uint256"
        },
        {
          "internalType": "uint256",
          "name": "rentPricePerDay",
          "type": "uint256"
        }
      ],
      "name": "listPropertyForRent",
      "outputs": [],
      "stateMutability": "nonpayable",
      "type": "function"
    },
    {
      "inputs": [
        {
          "internalType": "uint256",
          "name": "tokenId",
          "type": "uint256"
        }
      ],
      "name": "makeOffer",
      "outputs": [],
      "stateMutability": "payable",
      "type": "function"
    },
    {
      "inputs": [],
      "name": "name",
      "outputs": [
        {
          "internalType": "string",
          "name": "",
          "type": "string"
        }
      ],
      "stateMutability": "view",
      "type": "function"
    },
    {
      "inputs": [],
      "name": "owner",
      "outputs": [
        {
          "internalType": "address",
          "name": "",
          "type": "address"
        }
      ],
      "stateMutability": "view",
      "type": "function"
    },
    {
      "inputs": [
        {
          "internalType": "uint256",
          "name": "tokenId",
          "type": "uint256"
        }
      ],
      "name": "ownerOf",
      "outputs": [
        {
          "internalType": "address",
          "name": "",
          "type": "address"
        }
      ],
      "stateMutability": "view",
      "type": "function"
    },
    {
      "inputs": [
        {
          "internalType": "address",
          "name": "",
          "type": "address"
        }
      ],
      "name": "pendingWithdrawals",
      "outputs": [
        {
          "internalType": "uint256",
          "name": "",
          "type": "uint256"
        }
      ],
      "stateMutability": "view",
      "type": "function"
    },
    {
      "inputs": [
        {
          "internalType": "uint256",
          "name": "tokenId",
          "type": "uint256"
        },
        {
          "internalType": "uint256",
          "name": "numberOfFractions",
          "type": "uint256"
        }
      ],
      "name": "purchaseFractions",
      "outputs": [],
      "stateMutability": "payable",
      "type": "function"
    },
    {
      "inputs": [],
      "name": "renounceOwnership",
      "outputs": [],
      "stateMutability": "nonpayable",
      "type": "function"
    },
    {
      "inputs": [
        {
          "internalType": "uint256",
          "name": "tokenId",
          "type": "uint256"
        },
        {
          "internalType": "uint256",
          "name": "durationInDays",
          "type": "uint256"
        }
      ],
      "name": "rentProperty",
      "outputs": [],
      "stateMutability": "payable",
      "type": "function"
    },
    {
      "inputs": [
        {
          "internalType": "uint256",
          "name": "",
          "type": "uint256"
        }
      ],
      "name": "rentalInfo",
      "outputs": [
        {
          "internalType": "address",
          "name": "tenant",
          "type": "address"
        },
        {
          "internalType": "uint256",
          "name": "rentPricePerDay",
          "type": "uint256"
        },
        {
          "internalType": "uint256",
          "name": "rentedUntil",
          "type": "uint256"
        },
        {
          "internalType": "bool",
          "name": "isListed",
          "type": "bool"
        }
      ],
      "stateMutability": "view",
      "type": "function"
    },
    {
      "inputs": [
        {
          "internalType": "address",
          "name": "to",
          "type": "address"
        },
        {
          "internalType": "string",
          "name": "uri",
          "type": "string"
        }
      ],
      "name": "safeMint",
      "outputs": [],
      "stateMutability": "nonpayable",
      "type": "function"
    },
    {
      "inputs": [
        {
          "internalType": "address",
          "name": "from",
          "type": "address"
        },
        {
          "internalType": "address",
          "name": "to",
          "type": "address"
        },
        {
          "internalType": "uint256",
          "name": "tokenId",
          "type": "uint256"
        }
      ],
      "name": "safeTransferFrom",
      "outputs": [],
      "stateMutability": "nonpayable",
      "type": "function"
    },
    {
      "inputs": [
        {
          "internalType": "address",
          "name": "from",
          "type": "address"
        },
        {
          "internalType": "address",
          "name": "to",
          "type": "address"
        },
        {
          "internalType": "uint256",
          "name": "tokenId",
          "type": "uint256"
        },
        {
          "internalType": "bytes",
          "name": "data",
          "type": "bytes"
        }
      ],
      "name": "safeTransferFrom",
      "outputs": [],
      "stateMutability": "nonpayable",
      "type": "function"
    },
    {
      "inputs": [
        {
          "internalType": "address",
          "name": "operator",
          "type": "address"
        },
        {
          "internalType": "bool",
          "name": "approved",
          "type": "bool"
        }
      ],
      "name": "setApprovalForAll",
      "outputs": [],
      "stateMutability": "nonpayable",
      "type": "function"
    },
    {
      "inputs": [
        {
          "internalType": "uint256",
          "name": "tokenId",
          "type": "uint256"
        },
        {
          "internalType": "address",
          "name": "fractionContractAddress",
          "type": "address"
        }
      ],
      "name": "setFractionContract",
      "outputs": [],
      "stateMutability": "nonpayable",
      "type": "function"
    },
    {
      "inputs": [
        {
          "internalType": "bytes4",
          "name": "interfaceId",
          "type": "bytes4"
        }
      ],
      "name": "supportsInterface",
      "outputs": [
        {
          "internalType": "bool",
          "name": "",
          "type": "bool"
        }
      ],
      "stateMutability": "view",
      "type": "function"
    },
    {
      "inputs": [],
      "name": "symbol",
      "outputs": [
        {
          "internalType": "string",
          "name": "",
          "type": "string"
        }
      ],
      "stateMutability": "view",
      "type": "function"
    },
    {
      "inputs": [
        {
          "internalType": "uint256",
          "name": "index",
          "type": "uint256"
        }
      ],
      "name": "tokenByIndex",
      "outputs": [
        {
          "internalType": "uint256",
          "name": "",
          "type": "uint256"
        }
      ],
      "stateMutability": "view",
      "type": "function"
    },
    {
      "inputs": [
        {
          "internalType": "address",
          "name": "owner",
          "type": "address"
        },
        {
          "internalType": "uint256",
          "name": "index",
          "type": "uint256"
        }
      ],
      "name": "tokenOfOwnerByIndex",
      "outputs": [
        {
          "internalType": "uint256",
          "name": "",
          "type": "uint256"
        }
      ],
      "stateMutability": "view",
      "type": "function"
    },
    {
      "inputs": [
        {
          "internalType": "uint256",
          "name": "tokenId",
          "type": "uint256"
        }
      ],
      "name": "tokenURI",
      "outputs": [
        {
          "internalType": "string",
          "name": "",
          "type": "string"
        }
      ],
      "stateMutability": "view",
      "type": "function"
    },
    {
      "inputs": [],
      "name": "totalSupply",
      "outputs": [
        {
          "internalType": "uint256",
          "name": "",
          "type": "uint256"
        }
      ],
      "stateMutability": "view",
      "type": "function"
    },
    {
      "inputs": [
        {
          "internalType": "address",
          "name": "from",
          "type": "address"
        },
        {
          "internalType": "address",
          "name": "to",
          "type": "address"
        },
        {
          "internalType": "uint256",
          "name": "tokenId",
          "type": "uint256"
        }
      ],
      "name": "transferFrom",
      "outputs": [],
      "stateMutability": "nonpayable",
      "type": "function"
    },
    {
      "inputs": [
        {
          "internalType": "address",
          "name": "newOwner",
          "type": "address"
        }
      ],
      "name": "transferOwnership",
      "outputs": [],
      "stateMutability": "nonpayable",
      "type": "function"
    },
    {
      "inputs": [
        {
          "internalType": "uint256",
          "name": "tokenId",
          "type": "uint256"
        }
      ],
      "name": "unlistPropertyForRent",
      "outputs": [],
      "stateMutability": "nonpayable",
      "type": "function"
    },
    {
      "inputs": [
        {
          "internalType": "uint256",
          "name": "tokenId",
          "type": "uint256"
        }
      ],
      "name": "withdrawOffer",
      "outputs": [],
      "stateMutability": "nonpayable",
      "type": "function"
    },
    {
      "inputs": [],
      "name": "withdrawRent",
      "outputs": [],
      "stateMutability": "nonpayable",
      "type": "function"
    }
  ],
  "bytecode": "0x6080604052662386f26fc10000600e5534801561001b57600080fd5b50604051615f5b380380615f5b833981810160405281019061003d9190610285565b806040518060400160405280600a81526020017f5265616c69436861696e000000000000000000000000000000000000000000008152506040518060400160405280600481526020017f5245414c0000000000000000000000000000000000000000000000000000000081525081600090816100b99190610502565b5080600190816100c99190610502565b505050600073ffffffffffffffffffffffffffffffffffffffff168173ffffffffffffffffffffffffffffffffffffffff160361013e5760006040517f1e4fbdf700000000000000000000000000000000000000000000000000000000815260040161013591906105e3565b60405180910390fd5b61014d8161015c60201b60201c565b506001600c81905550506105fe565b6000600b60009054906101000a900473ffffffffffffffffffffffffffffffffffffffff16905081600b60006101000a81548173ffffffffffffffffffffffffffffffffffffffff021916908373ffffffffffffffffffffffffffffffffffffffff1602179055508173ffffffffffffffffffffffffffffffffffffffff168173ffffffffffffffffffffffffffffffffffffffff167f8be0079c531659141344cd1fd0a4f28419497f9722a3daafe3b4186f6b6457e060405160405180910390a35050565b600080fd5b600073ffffffffffffffffffffffffffffffffffffffff82169050919050565b600061025282610227565b9050919050565b61026281610247565b811461026d57600080fd5b50565b60008151905061027f81610259565b92915050565b60006020828403121561029b5761029a610222565b5b60006102a984828501610270565b91505092915050565b600081519050919050565b7f4e487b7100000000000000000000000000000000000000000000000000000000600052604160045260246000fd5b7f4e487b7100000000000000000000000000000000000000000000000000000000600052602260045260246000fd5b6000600282049050600182168061033357607f821691505b602082108103610346576103456102ec565b5b50919050565b60008190508160005260206000209050919050565b60006020601f8301049050919050565b600082821b905092915050565b6000600883026103ae7fffffffffffffffffffffffffffffffffffffffffffffffffffffffffffffffff82610371565b6103b88683610371565b95508019841693508086168417925050509392505050565b6000819050919050565b6000819050919050565b60006103ff6103fa6103f5846103d0565b6103da565b6103d0565b9050919050565b6000819050919050565b610419836103e4565b61042d61042582610406565b84845461037e565b825550505050565b600090565b610442610435565b61044d818484610410565b505050565b5b818110156104715761046660008261043a565b600181019050610453565b5050565b601f8211156104b6576104878161034c565b61049084610361565b8101602085101561049f578190505b6104b36104ab85610361565b830182610452565b50505b505050565b600082821c905092915050565b60006104d9600019846008026104bb565b1980831691505092915050565b60006104f283836104c8565b9150826002028217905092915050565b61050b826102b2565b67ffffffffffffffff811115610524576105236102bd565b5b61052e825461031b565b610539828285610475565b600060209050601f83116001811461056c576000841561055a578287015190505b61056485826104e6565b8655506105cc565b601f19841661057a8661034c565b60005b828110156105a25784890151825560018201915060208501945060208101905061057d565b868310156105bf57848901516105bb601f8916826104c8565b8355505b6001600288020188555050505b505050505050565b6105dd81610247565b82525050565b60006020820190506105f860008301846105d4565b92915050565b61594e8061060d6000396000f3fe6080604052600436106102305760003560e01c80636503b36c1161012e578063b88d4fde116100ab578063de54a00c1161006f578063de54a00c1461085b578063e985e9c51461089a578063f0d7e20e146108d7578063f2fde38b14610914578063f3f437031461093d57610230565b8063b88d4fde1461077a578063c4d51007146107a3578063c815729d146107cc578063c87b56dd146107f5578063d204c45e1461083257610230565b806395d89b41116100f257806395d89b41146106c55780639a2f6474146106f0578063a22cb4651461070c578063a7b2d79214610735578063ac37a58d1461075e57610230565b80636503b36c146105f457806370a082311461061d578063715018a61461065a5780638610f045146106715780638da5cb5b1461069a57610230565b80632f745c59116101bc5780634f6ccce7116101805780634f6ccce7146104f85780635837947d146105355780636116f179146105605780636322182e146105a05780636352211e146105b757610230565b80632f745c591461040e57806336a565061461044b57806337094179146104765780633ec4ebb7146104b357806342842e0e146104cf57610230565b806312cda2541161020357806312cda2541461030357806317c6ab401461034057806318160ddd1461037d57806323b872dd146103a85780632c104271146103d157610230565b806301ffc9a71461023557806306fdde0314610272578063081812fc1461029d578063095ea7b3146102da575b600080fd5b34801561024157600080fd5b5061025c60048036038101906102579190613e73565b61097a565b6040516102699190613ebb565b60405180910390f35b34801561027e57600080fd5b5061028761098c565b6040516102949190613f66565b60405180910390f35b3480156102a957600080fd5b506102c460048036038101906102bf9190613fbe565b610a1e565b6040516102d1919061402c565b60405180910390f35b3480156102e657600080fd5b5061030160048036038101906102fc9190614073565b610a3a565b005b34801561030f57600080fd5b5061032a60048036038101906103259190613fbe565b610a50565b604051610337919061402c565b60405180910390f35b34801561034c57600080fd5b50610367600480360381019061036291906140b3565b610a83565b6040516103749190614102565b60405180910390f35b34801561038957600080fd5b50610392610aa8565b60405161039f9190614102565b60405180910390f35b3480156103b457600080fd5b506103cf60048036038101906103ca919061411d565b610ab5565b005b3480156103dd57600080fd5b506103f860048036038101906103f391906140b3565b610bb7565b6040516104059190614102565b60405180910390f35b34801561041a57600080fd5b5061043560048036038101906104309190614073565b610c12565b6040516104429190614102565b60405180910390f35b34801561045757600080fd5b50610460610cbb565b60405161046d9190614102565b60405180910390f35b34801561048257600080fd5b5061049d60048036038101906104989190613fbe565b610cc1565b6040516104aa9190614102565b60405180910390f35b6104cd60048036038101906104c89190614170565b610cd9565b005b3480156104db57600080fd5b506104f660048036038101906104f1919061411d565b6110b7565b005b34801561050457600080fd5b5061051f600480360381019061051a9190613fbe565b6110d7565b60405161052c9190614102565b60405180910390f35b34801561054157600080fd5b5061054a61114d565b6040516105579190614102565b60405180910390f35b34801561056c57600080fd5b5061058760048036038101906105829190613fbe565b611153565b60405161059794939291906141b0565b60405180910390f35b3480156105ac57600080fd5b506105b56111b0565b005b3480156105c357600080fd5b506105de60048036038101906105d99190613fbe565b61138a565b6040516105eb919061402c565b60405180910390f35b34801561060057600080fd5b5061061b60048036038101906106169190614170565b61139c565b005b34801561062957600080fd5b50610644600480360381019061063f91906141f5565b6114db565b6040516106519190614102565b60405180910390f35b34801561066657600080fd5b5061066f611595565b005b34801561067d57600080fd5b5061069860048036038101906106939190613fbe565b6115a9565b005b3480156106a657600080fd5b506106af61181d565b6040516106bc919061402c565b60405180910390f35b3480156106d157600080fd5b506106da611847565b6040516106e79190613f66565b60405180910390f35b61070a60048036038101906107059190613fbe565b6118d9565b005b34801561071857600080fd5b50610733600480360381019061072e919061424e565b611bf8565b005b34801561074157600080fd5b5061075c60048036038101906107579190613fbe565b611c0e565b005b61077860048036038101906107739190614170565b611d81565b005b34801561078657600080fd5b506107a1600480360381019061079c91906143c3565b611fb6565b005b3480156107af57600080fd5b506107ca60048036038101906107c591906140b3565b611fdb565b005b3480156107d857600080fd5b506107f360048036038101906107ee9190613fbe565b61218d565b005b34801561080157600080fd5b5061081c60048036038101906108179190613fbe565b61243c565b6040516108299190613f66565b60405180910390f35b34801561083e57600080fd5b50610859600480360381019061085491906144e7565b61244e565b005b34801561086757600080fd5b50610882600480360381019061087d9190613fbe565b612482565b60405161089193929190614543565b60405180910390f35b3480156108a657600080fd5b506108c160048036038101906108bc919061457a565b6124d9565b6040516108ce9190613ebb565b60405180910390f35b3480156108e357600080fd5b506108fe60048036038101906108f99190613fbe565b61256d565b60405161090b9190614102565b60405180910390f35b34801561092057600080fd5b5061093b600480360381019061093691906141f5565b61258a565b005b34801561094957600080fd5b50610964600480360381019061095f91906141f5565b612610565b6040516109719190614102565b60405180910390f35b600061098582612628565b9050919050565b60606000805461099b906145e9565b80601f01602080910402602001604051908101604052809291908181526020018280546109c7906145e9565b8015610a145780601f106109e957610100808354040283529160200191610a14565b820191906000526020600020905b8154815290600101906020018083116109f757829003601f168201915b5050505050905090565b6000610a2982612689565b50610a3382612711565b9050919050565b610a4c8282610a4761274e565b612756565b5050565b60126020528060005260406000206000915054906101000a900473ffffffffffffffffffffffffffffffffffffffff1681565b600f602052816000526040600020602052806000526040600020600091509150505481565b6000600880549050905090565b600073ffffffffffffffffffffffffffffffffffffffff168273ffffffffffffffffffffffffffffffffffffffff1603610b275760006040517f64a0ae92000000000000000000000000000000000000000000000000000000008152600401610b1e919061402c565b60405180910390fd5b6000610b3b8383610b3661274e565b612768565b90508373ffffffffffffffffffffffffffffffffffffffff168173ffffffffffffffffffffffffffffffffffffffff1614610bb1578382826040517f64283d7b000000000000000000000000000000000000000000000000000000008152600401610ba89392919061461a565b60405180910390fd5b50505050565b6000600f600084815260200190815260200160002060008373ffffffffffffffffffffffffffffffffffffffff1673ffffffffffffffffffffffffffffffffffffffff16815260200190815260200160002054905092915050565b6000610c1d836114db565b8210610c625782826040517fa57d13dc000000000000000000000000000000000000000000000000000000008152600401610c59929190614651565b60405180910390fd5b600660008473ffffffffffffffffffffffffffffffffffffffff1673ffffffffffffffffffffffffffffffffffffffff168152602001908152602001600020600083815260200190815260200160002054905092915050565b600e5481565b60106020528060005260406000206000915090505481565b610ce161277e565b600d548210610d25576040517f08c379a0000000000000000000000000000000000000000000000000000000008152600401610d1c906146c6565b60405180910390fd5b60006013600084815260200190815260200160002090508060030160009054906101000a900460ff16610d8d576040517f08c379a0000000000000000000000000000000000000000000000000000000008152600401610d8490614732565b60405180910390fd5b8060020154421015610dd4576040517f08c379a0000000000000000000000000000000000000000000000000000000008152600401610dcb9061479e565b60405180910390fd5b60008211610e17576040517f08c379a0000000000000000000000000000000000000000000000000000000008152600401610e0e90614830565b60405180910390fd5b6000828260010154610e29919061487f565b9050803414610e6d576040517f08c379a0000000000000000000000000000000000000000000000000000000008152600401610e649061490d565b60405180910390fd5b338260000160006101000a81548173ffffffffffffffffffffffffffffffffffffffff021916908373ffffffffffffffffffffffffffffffffffffffff1602179055506201518083610ebf919061487f565b42610eca919061492d565b826002018190555060006012600086815260200190815260200160002060009054906101000a900473ffffffffffffffffffffffffffffffffffffffff169050600073ffffffffffffffffffffffffffffffffffffffff168173ffffffffffffffffffffffffffffffffffffffff1614610ff05760008173ffffffffffffffffffffffffffffffffffffffff1634604051610f6490614992565b60006040518083038185875af1925050503d8060008114610fa1576040519150601f19603f3d011682016040523d82523d6000602084013e610fa6565b606091505b5050905080610fea576040517f08c379a0000000000000000000000000000000000000000000000000000000008152600401610fe190614a19565b60405180910390fd5b50611055565b6000610ffb8661138a565b905034601460008373ffffffffffffffffffffffffffffffffffffffff1673ffffffffffffffffffffffffffffffffffffffff168152602001908152602001600020600082825461104c919061492d565b92505081905550505b3373ffffffffffffffffffffffffffffffffffffffff16857fddf30198c8f217b33732c1d9c4f25fef5319d97880bd3b5f777aad155eb6659985600201546040516110a09190614102565b60405180910390a35050506110b36127c4565b5050565b6110d283838360405180602001604052806000815250611fb6565b505050565b60006110e1610aa8565b8210611127576000826040517fa57d13dc00000000000000000000000000000000000000000000000000000000815260040161111e929190614651565b60405180910390fd5b6008828154811061113b5761113a614a39565b5b90600052602060002001549050919050565b6103e881565b60136020528060005260406000206000915090508060000160009054906101000a900473ffffffffffffffffffffffffffffffffffffffff16908060010154908060020154908060030160009054906101000a900460ff16905084565b6111b861277e565b6000601460003373ffffffffffffffffffffffffffffffffffffffff1673ffffffffffffffffffffffffffffffffffffffff1681526020019081526020016000205490506000811161123f576040517f08c379a000000000000000000000000000000000000000000000000000000000815260040161123690614ab4565b60405180910390fd5b6000601460003373ffffffffffffffffffffffffffffffffffffffff1673ffffffffffffffffffffffffffffffffffffffff1681526020019081526020016000208190555060003373ffffffffffffffffffffffffffffffffffffffff16826040516112aa90614992565b60006040518083038185875af1925050503d80600081146112e7576040519150601f19603f3d011682016040523d82523d6000602084013e6112ec565b606091505b5050905080611330576040517f08c379a000000000000000000000000000000000000000000000000000000000815260040161132790614b20565b60405180910390fd5b3373ffffffffffffffffffffffffffffffffffffffff167ffeb9f3b8586fb3823735104fd243164bdb90fcd9e989f902e96eb5b26bed4e38836040516113769190614102565b60405180910390a250506113886127c4565b565b600061139582612689565b9050919050565b3373ffffffffffffffffffffffffffffffffffffffff166113bc8361138a565b73ffffffffffffffffffffffffffffffffffffffff1614611412576040517f08c379a000000000000000000000000000000000000000000000000000000000815260040161140990614bb2565b60405180910390fd5b60008111611455576040517f08c379a000000000000000000000000000000000000000000000000000000000815260040161144c90614c1e565b60405180910390fd5b80601360008481526020019081526020016000206001018190555060016013600084815260200190815260200160002060030160006101000a81548160ff021916908315150217905550817fd01a378ab4675d93041e3feb288811ad33f62a6ccfeab955d227ec109fd70910826040516114cf9190614102565b60405180910390a25050565b60008073ffffffffffffffffffffffffffffffffffffffff168273ffffffffffffffffffffffffffffffffffffffff160361154e5760006040517f89c62b64000000000000000000000000000000000000000000000000000000008152600401611545919061402c565b60405180910390fd5b600360008373ffffffffffffffffffffffffffffffffffffffff1673ffffffffffffffffffffffffffffffffffffffff168152602001908152602001600020549050919050565b61159d6127ce565b6115a76000612855565b565b6115b161277e565b60006011600083815260200190815260200160002090503373ffffffffffffffffffffffffffffffffffffffff168160000160009054906101000a900473ffffffffffffffffffffffffffffffffffffffff1673ffffffffffffffffffffffffffffffffffffffff161461165a576040517f08c379a000000000000000000000000000000000000000000000000000000000815260040161165190614cb0565b60405180910390fd5b8060020160009054906101000a900460ff166116ab576040517f08c379a00000000000000000000000000000000000000000000000000000000081526004016116a290614d1c565b60405180910390fd5b60008160010154905060008260020160006101000a81548160ff02191690831515021790555060008260000160006101000a81548173ffffffffffffffffffffffffffffffffffffffff021916908373ffffffffffffffffffffffffffffffffffffffff1602179055506000826001018190555060003373ffffffffffffffffffffffffffffffffffffffff168260405161174590614992565b60006040518083038185875af1925050503d8060008114611782576040519150601f19603f3d011682016040523d82523d6000602084013e611787565b606091505b50509050806117cb576040517f08c379a00000000000000000000000000000000000000000000000000000000081526004016117c290614d88565b60405180910390fd5b3373ffffffffffffffffffffffffffffffffffffffff16847fe6f4d8e39c4a3ade2f3812a17eb8f658c1cc293ceee263362516f01750847ac860405160405180910390a350505061181a6127c4565b50565b6000600b60009054906101000a900473ffffffffffffffffffffffffffffffffffffffff16905090565b606060018054611856906145e9565b80601f0160208091040260200160405190810160405280929190818152602001828054611882906145e9565b80156118cf5780601f106118a4576101008083540402835291602001916118cf565b820191906000526020600020905b8154815290600101906020018083116118b257829003601f168201915b5050505050905090565b6118e161277e565b600d548110611925576040517f08c379a000000000000000000000000000000000000000000000000000000000815260040161191c906146c6565b60405180910390fd5b60003411611968576040517f08c379a000000000000000000000000000000000000000000000000000000000815260040161195f90614e1a565b60405180910390fd5b601160008281526020019081526020016000206001015434116119c0576040517f08c379a00000000000000000000000000000000000000000000000000000000081526004016119b790614eac565b60405180910390fd5b6011600082815260200190815260200160002060020160009054906101000a900460ff1615611ae35760006011600083815260200190815260200160002060000160009054906101000a900473ffffffffffffffffffffffffffffffffffffffff1673ffffffffffffffffffffffffffffffffffffffff166011600084815260200190815260200160002060010154604051611a5b90614992565b60006040518083038185875af1925050503d8060008114611a98576040519150601f19603f3d011682016040523d82523d6000602084013e611a9d565b606091505b5050905080611ae1576040517f08c379a0000000000000000000000000000000000000000000000000000000008152600401611ad890614f3e565b60405180910390fd5b505b60405180606001604052803373ffffffffffffffffffffffffffffffffffffffff168152602001348152602001600115158152506011600083815260200190815260200160002060008201518160000160006101000a81548173ffffffffffffffffffffffffffffffffffffffff021916908373ffffffffffffffffffffffffffffffffffffffff1602179055506020820151816001015560408201518160020160006101000a81548160ff0219169083151502179055509050503373ffffffffffffffffffffffffffffffffffffffff16817fbdf1e76c2ba2a5c85b93bf78678a4a3b06d63b18422612dac8d7d5249ed4671434604051611be59190614102565b60405180910390a3611bf56127c4565b50565b611c0a611c0361274e565b838361291b565b5050565b3373ffffffffffffffffffffffffffffffffffffffff16611c2e8261138a565b73ffffffffffffffffffffffffffffffffffffffff1614611c84576040517f08c379a0000000000000000000000000000000000000000000000000000000008152600401611c7b90614fd0565b60405180910390fd5b60006013600083815260200190815260200160002090508060030160009054906101000a900460ff16611cec576040517f08c379a0000000000000000000000000000000000000000000000000000000008152600401611ce390614732565b60405180910390fd5b8060020154421015611d33576040517f08c379a0000000000000000000000000000000000000000000000000000000008152600401611d2a90615062565b60405180910390fd5b60008160030160006101000a81548160ff021916908315150217905550817ff54225bfc9eb7890dbd448a5d29ed9c32e821c5e5aee0b05a7802e8372d04f1660405160405180910390a25050565b611d8961277e565b600d548210611dcd576040517f08c379a0000000000000000000000000000000000000000000000000000000008152600401611dc4906146c6565b60405180910390fd5b60008111611e10576040517f08c379a0000000000000000000000000000000000000000000000000000000008152600401611e07906150f4565b60405180910390fd5b6103e8816010600085815260200190815260200160002054611e32919061492d565b1115611e73576040517f08c379a0000000000000000000000000000000000000000000000000000000008152600401611e6a90615160565b60405180910390fd5b600081600e54611e83919061487f565b9050803414611ec7576040517f08c379a0000000000000000000000000000000000000000000000000000000008152600401611ebe906151cc565b60405180910390fd5b81601060008581526020019081526020016000206000828254611eea919061492d565b9250508190555081600f600085815260200190815260200160002060003373ffffffffffffffffffffffffffffffffffffffff1673ffffffffffffffffffffffffffffffffffffffff1681526020019081526020016000206000828254611f51919061492d565b925050819055503373ffffffffffffffffffffffffffffffffffffffff16837f4baafac02d651b8886d3212cc69aff0fb3c687080a4fe86b0674563ac1493e828484604051611fa19291906151ec565b60405180910390a350611fb26127c4565b5050565b611fc1848484610ab5565b611fd5611fcc61274e565b85858585612a8a565b50505050565b3373ffffffffffffffffffffffffffffffffffffffff16611ffb8361138a565b73ffffffffffffffffffffffffffffffffffffffff1614612051576040517f08c379a000000000000000000000000000000000000000000000000000000000815260040161204890615261565b60405180910390fd5b600073ffffffffffffffffffffffffffffffffffffffff166012600084815260200190815260200160002060009054906101000a900473ffffffffffffffffffffffffffffffffffffffff1673ffffffffffffffffffffffffffffffffffffffff16146120f3576040517f08c379a00000000000000000000000000000000000000000000000000000000081526004016120ea906152cd565b60405180910390fd5b806012600084815260200190815260200160002060006101000a81548173ffffffffffffffffffffffffffffffffffffffff021916908373ffffffffffffffffffffffffffffffffffffffff1602179055508073ffffffffffffffffffffffffffffffffffffffff16827fc231e91a72847bed4aa7fbf4a0541bca6938e13eeaddbf3b0a68691f358f398460405160405180910390a35050565b61219561277e565b3373ffffffffffffffffffffffffffffffffffffffff166121b58261138a565b73ffffffffffffffffffffffffffffffffffffffff161461220b576040517f08c379a00000000000000000000000000000000000000000000000000000000081526004016122029061535f565b60405180910390fd5b60006011600083815260200190815260200160002090508060020160009054906101000a900460ff16612273576040517f08c379a000000000000000000000000000000000000000000000000000000000815260040161226a906153cb565b60405180910390fd5b60008160000160009054906101000a900473ffffffffffffffffffffffffffffffffffffffff16905060008260010154905060008360020160006101000a81548160ff02191690831515021790555060008360000160006101000a81548173ffffffffffffffffffffffffffffffffffffffff021916908373ffffffffffffffffffffffffffffffffffffffff1602179055506000836001018190555061231b338386612c3b565b60003373ffffffffffffffffffffffffffffffffffffffff168260405161234190614992565b60006040518083038185875af1925050503d806000811461237e576040519150601f19603f3d011682016040523d82523d6000602084013e612383565b606091505b50509050806123c7576040517f08c379a00000000000000000000000000000000000000000000000000000000081526004016123be9061545d565b60405180910390fd5b8273ffffffffffffffffffffffffffffffffffffffff163373ffffffffffffffffffffffffffffffffffffffff16867fc67f49229cab3f614ad390c12432e0e671552dcfd15e24ddc005cf5a01a02135856040516124259190614102565b60405180910390a4505050506124396127c4565b50565b606061244782612da8565b9050919050565b6000600d60008154809291906124639061547d565b9190505590506124738382612ebb565b61247d8183612ed9565b505050565b60116020528060005260406000206000915090508060000160009054906101000a900473ffffffffffffffffffffffffffffffffffffffff16908060010154908060020160009054906101000a900460ff16905083565b6000600560008473ffffffffffffffffffffffffffffffffffffffff1673ffffffffffffffffffffffffffffffffffffffff16815260200190815260200160002060008373ffffffffffffffffffffffffffffffffffffffff1673ffffffffffffffffffffffffffffffffffffffff16815260200190815260200160002060009054906101000a900460ff16905092915050565b600060106000838152602001908152602001600020549050919050565b6125926127ce565b600073ffffffffffffffffffffffffffffffffffffffff168173ffffffffffffffffffffffffffffffffffffffff16036126045760006040517f1e4fbdf70000000000000000000000000000000000000000000000000000000081526004016125fb919061402c565b60405180910390fd5b61260d81612855565b50565b60146020528060005260406000206000915090505481565b6000634906490660e01b7bffffffffffffffffffffffffffffffffffffffffffffffffffffffff1916827bffffffffffffffffffffffffffffffffffffffffffffffffffffffff19161480612682575061268182612f35565b5b9050919050565b60008061269583612faf565b9050600073ffffffffffffffffffffffffffffffffffffffff168173ffffffffffffffffffffffffffffffffffffffff160361270857826040517f7e2732890000000000000000000000000000000000000000000000000000000081526004016126ff9190614102565b60405180910390fd5b80915050919050565b60006004600083815260200190815260200160002060009054906101000a900473ffffffffffffffffffffffffffffffffffffffff169050919050565b600033905090565b6127638383836001612fec565b505050565b60006127758484846131b1565b90509392505050565b6002600c54036127ba576040517f3ee5aeb500000000000000000000000000000000000000000000000000000000815260040160405180910390fd5b6002600c81905550565b6001600c81905550565b6127d661274e565b73ffffffffffffffffffffffffffffffffffffffff166127f461181d565b73ffffffffffffffffffffffffffffffffffffffff16146128535761281761274e565b6040517f118cdaa700000000000000000000000000000000000000000000000000000000815260040161284a919061402c565b60405180910390fd5b565b6000600b60009054906101000a900473ffffffffffffffffffffffffffffffffffffffff16905081600b60006101000a81548173ffffffffffffffffffffffffffffffffffffffff021916908373ffffffffffffffffffffffffffffffffffffffff1602179055508173ffffffffffffffffffffffffffffffffffffffff168173ffffffffffffffffffffffffffffffffffffffff167f8be0079c531659141344cd1fd0a4f28419497f9722a3daafe3b4186f6b6457e060405160405180910390a35050565b600073ffffffffffffffffffffffffffffffffffffffff168273ffffffffffffffffffffffffffffffffffffffff160361298c57816040517f5b08ba18000000000000000000000000000000000000000000000000000000008152600401612983919061402c565b60405180910390fd5b80600560008573ffffffffffffffffffffffffffffffffffffffff1673ffffffffffffffffffffffffffffffffffffffff16815260200190815260200160002060008473ffffffffffffffffffffffffffffffffffffffff1673ffffffffffffffffffffffffffffffffffffffff16815260200190815260200160002060006101000a81548160ff0219169083151502179055508173ffffffffffffffffffffffffffffffffffffffff168373ffffffffffffffffffffffffffffffffffffffff167f17307eab39ab6107e8899845ad3d59bd9653f200f220920489ca2b5937696c3183604051612a7d9190613ebb565b60405180910390a3505050565b60008373ffffffffffffffffffffffffffffffffffffffff163b1115612c34578273ffffffffffffffffffffffffffffffffffffffff1663150b7a02868685856040518563ffffffff1660e01b8152600401612ae9949392919061551a565b6020604051808303816000875af1925050508015612b2557506040513d601f19601f82011682018060405250810190612b22919061557b565b60015b612ba9573d8060008114612b55576040519150601f19603f3d011682016040523d82523d6000602084013e612b5a565b606091505b506000815103612ba157836040517f64a0ae92000000000000000000000000000000000000000000000000000000008152600401612b98919061402c565b60405180910390fd5b805160208201fd5b63150b7a0260e01b7bffffffffffffffffffffffffffffffffffffffffffffffffffffffff1916817bffffffffffffffffffffffffffffffffffffffffffffffffffffffff191614612c3257836040517f64a0ae92000000000000000000000000000000000000000000000000000000008152600401612c29919061402c565b60405180910390fd5b505b5050505050565b600073ffffffffffffffffffffffffffffffffffffffff168273ffffffffffffffffffffffffffffffffffffffff1603612cad5760006040517f64a0ae92000000000000000000000000000000000000000000000000000000008152600401612ca4919061402c565b60405180910390fd5b6000612cbb83836000612768565b9050600073ffffffffffffffffffffffffffffffffffffffff168173ffffffffffffffffffffffffffffffffffffffff1603612d2e57816040517f7e273289000000000000000000000000000000000000000000000000000000008152600401612d259190614102565b60405180910390fd5b8373ffffffffffffffffffffffffffffffffffffffff168173ffffffffffffffffffffffffffffffffffffffff1614612da2578382826040517f64283d7b000000000000000000000000000000000000000000000000000000008152600401612d999392919061461a565b60405180910390fd5b50505050565b6060612db382612689565b506000600a60008481526020019081526020016000208054612dd4906145e9565b80601f0160208091040260200160405190810160405280929190818152602001828054612e00906145e9565b8015612e4d5780601f10612e2257610100808354040283529160200191612e4d565b820191906000526020600020905b815481529060010190602001808311612e3057829003601f168201915b505050505090506000612e5e6132ce565b90506000815103612e73578192505050612eb6565b600082511115612ea8578082604051602001612e909291906155e4565b60405160208183030381529060405292505050612eb6565b612eb1846132e5565b925050505b919050565b612ed582826040518060200160405280600081525061334e565b5050565b80600a60008481526020019081526020016000209081612ef991906157b4565b507ff8e1a15aba9398e019f0b49df1a4fde98ee17ae345cb5f6b5e2c27f5033e8ce782604051612f299190614102565b60405180910390a15050565b60007f780e9d63000000000000000000000000000000000000000000000000000000007bffffffffffffffffffffffffffffffffffffffffffffffffffffffff1916827bffffffffffffffffffffffffffffffffffffffffffffffffffffffff19161480612fa85750612fa782613372565b5b9050919050565b60006002600083815260200190815260200160002060009054906101000a900473ffffffffffffffffffffffffffffffffffffffff169050919050565b80806130255750600073ffffffffffffffffffffffffffffffffffffffff168273ffffffffffffffffffffffffffffffffffffffff1614155b1561315957600061303584612689565b9050600073ffffffffffffffffffffffffffffffffffffffff168373ffffffffffffffffffffffffffffffffffffffff16141580156130a057508273ffffffffffffffffffffffffffffffffffffffff168173ffffffffffffffffffffffffffffffffffffffff1614155b80156130b357506130b181846124d9565b155b156130f557826040517fa9fbf51f0000000000000000000000000000000000000000000000000000000081526004016130ec919061402c565b60405180910390fd5b811561315757838573ffffffffffffffffffffffffffffffffffffffff168273ffffffffffffffffffffffffffffffffffffffff167f8c5be1e5ebec7d5bd14f71427d1e84f3dd0314c0f7b2291e5b200ac8c7c3b92560405160405180910390a45b505b836004600085815260200190815260200160002060006101000a81548173ffffffffffffffffffffffffffffffffffffffff021916908373ffffffffffffffffffffffffffffffffffffffff16021790555050505050565b6000806131bf858585613454565b9050600073ffffffffffffffffffffffffffffffffffffffff168173ffffffffffffffffffffffffffffffffffffffff1603613203576131fe8461366e565b613242565b8473ffffffffffffffffffffffffffffffffffffffff168173ffffffffffffffffffffffffffffffffffffffff16146132415761324081856136b7565b5b5b600073ffffffffffffffffffffffffffffffffffffffff168573ffffffffffffffffffffffffffffffffffffffff16036132845761327f846137a2565b6132c3565b8473ffffffffffffffffffffffffffffffffffffffff168173ffffffffffffffffffffffffffffffffffffffff16146132c2576132c18585613873565b5b5b809150509392505050565b606060405180602001604052806000815250905090565b60606132f082612689565b5060006132fb6132ce565b9050600081511161331b5760405180602001604052806000815250613346565b80613325846138fe565b6040516020016133369291906155e4565b6040516020818303038152906040525b915050919050565b61335883836139cc565b61336d61336361274e565b6000858585612a8a565b505050565b60007f80ac58cd000000000000000000000000000000000000000000000000000000007bffffffffffffffffffffffffffffffffffffffffffffffffffffffff1916827bffffffffffffffffffffffffffffffffffffffffffffffffffffffff1916148061343d57507f5b5e139f000000000000000000000000000000000000000000000000000000007bffffffffffffffffffffffffffffffffffffffffffffffffffffffff1916827bffffffffffffffffffffffffffffffffffffffffffffffffffffffff1916145b8061344d575061344c82613ac5565b5b9050919050565b60008061346084612faf565b9050600073ffffffffffffffffffffffffffffffffffffffff168373ffffffffffffffffffffffffffffffffffffffff16146134a2576134a1818486613b2f565b5b600073ffffffffffffffffffffffffffffffffffffffff168173ffffffffffffffffffffffffffffffffffffffff1614613533576134e4600085600080612fec565b6001600360008373ffffffffffffffffffffffffffffffffffffffff1673ffffffffffffffffffffffffffffffffffffffff168152602001908152602001600020600082825403925050819055505b600073ffffffffffffffffffffffffffffffffffffffff168573ffffffffffffffffffffffffffffffffffffffff16146135b6576001600360008773ffffffffffffffffffffffffffffffffffffffff1673ffffffffffffffffffffffffffffffffffffffff168152602001908152602001600020600082825401925050819055505b846002600086815260200190815260200160002060006101000a81548173ffffffffffffffffffffffffffffffffffffffff021916908373ffffffffffffffffffffffffffffffffffffffff160217905550838573ffffffffffffffffffffffffffffffffffffffff168273ffffffffffffffffffffffffffffffffffffffff167fddf252ad1be2c89b69c2b068fc378daa952ba7f163c4a11628f55a4df523b3ef60405160405180910390a4809150509392505050565b6008805490506009600083815260200190815260200160002081905550600881908060018154018082558091505060019003906000526020600020016000909190919091505550565b60006136c2836114db565b90506000600760008481526020019081526020016000205490506000600660008673ffffffffffffffffffffffffffffffffffffffff1673ffffffffffffffffffffffffffffffffffffffff168152602001908152602001600020905082821461376e5760008160008581526020019081526020016000205490508082600085815260200190815260200160002081905550826007600083815260200190815260200160002081905550505b6007600085815260200190815260200160002060009055806000848152602001908152602001600020600090555050505050565b600060016008805490506137b69190615886565b90506000600960008481526020019081526020016000205490506000600883815481106137e6576137e5614a39565b5b90600052602060002001549050806008838154811061380857613807614a39565b5b906000526020600020018190555081600960008381526020019081526020016000208190555060096000858152602001908152602001600020600090556008805480613857576138566158ba565b5b6001900381819060005260206000200160009055905550505050565b60006001613880846114db565b61388a9190615886565b905081600660008573ffffffffffffffffffffffffffffffffffffffff1673ffffffffffffffffffffffffffffffffffffffff168152602001908152602001600020600083815260200190815260200160002081905550806007600084815260200190815260200160002081905550505050565b60606000600161390d84613bf3565b01905060008167ffffffffffffffff81111561392c5761392b614298565b5b6040519080825280601f01601f19166020018201604052801561395e5781602001600182028036833780820191505090505b509050600082602083010190505b6001156139c1578080600190039150507f3031323334353637383961626364656600000000000000000000000000000000600a86061a8153600a85816139b5576139b46158e9565b5b0494506000850361396c575b819350505050919050565b600073ffffffffffffffffffffffffffffffffffffffff168273ffffffffffffffffffffffffffffffffffffffff1603613a3e5760006040517f64a0ae92000000000000000000000000000000000000000000000000000000008152600401613a35919061402c565b60405180910390fd5b6000613a4c83836000612768565b9050600073ffffffffffffffffffffffffffffffffffffffff168173ffffffffffffffffffffffffffffffffffffffff1614613ac05760006040517f73c6ac6e000000000000000000000000000000000000000000000000000000008152600401613ab7919061402c565b60405180910390fd5b505050565b60007f01ffc9a7000000000000000000000000000000000000000000000000000000007bffffffffffffffffffffffffffffffffffffffffffffffffffffffff1916827bffffffffffffffffffffffffffffffffffffffffffffffffffffffff1916149050919050565b613b3a838383613d46565b613bee57600073ffffffffffffffffffffffffffffffffffffffff168373ffffffffffffffffffffffffffffffffffffffff1603613baf57806040517f7e273289000000000000000000000000000000000000000000000000000000008152600401613ba69190614102565b60405180910390fd5b81816040517f177e802f000000000000000000000000000000000000000000000000000000008152600401613be5929190614651565b60405180910390fd5b505050565b600080600090507a184f03e93ff9f4daa797ed6e38ed64bf6a1f0100000000000000008310613c51577a184f03e93ff9f4daa797ed6e38ed64bf6a1f0100000000000000008381613c4757613c466158e9565b5b0492506040810190505b6d04ee2d6d415b85acef81000000008310613c8e576d04ee2d6d415b85acef81000000008381613c8457613c836158e9565b5b0492506020810190505b662386f26fc100008310613cbd57662386f26fc100008381613cb357613cb26158e9565b5b0492506010810190505b6305f5e1008310613ce6576305f5e1008381613cdc57613cdb6158e9565b5b0492506008810190505b6127108310613d0b576127108381613d0157613d006158e9565b5b0492506004810190505b60648310613d2e5760648381613d2457613d236158e9565b5b0492506002810190505b600a8310613d3d576001810190505b80915050919050565b60008073ffffffffffffffffffffffffffffffffffffffff168373ffffffffffffffffffffffffffffffffffffffff1614158015613dfe57508273ffffffffffffffffffffffffffffffffffffffff168473ffffffffffffffffffffffffffffffffffffffff161480613dbf5750613dbe84846124d9565b5b80613dfd57508273ffffffffffffffffffffffffffffffffffffffff16613de583612711565b73ffffffffffffffffffffffffffffffffffffffff16145b5b90509392505050565b6000604051905090565b600080fd5b600080fd5b60007fffffffff0000000000000000000000000000000000000000000000000000000082169050919050565b613e5081613e1b565b8114613e5b57600080fd5b50565b600081359050613e6d81613e47565b92915050565b600060208284031215613e8957613e88613e11565b5b6000613e9784828501613e5e565b91505092915050565b60008115159050919050565b613eb581613ea0565b82525050565b6000602082019050613ed06000830184613eac565b92915050565b600081519050919050565b600082825260208201905092915050565b60005b83811015613f10578082015181840152602081019050613ef5565b60008484015250505050565b6000601f19601f8301169050919050565b6000613f3882613ed6565b613f428185613ee1565b9350613f52818560208601613ef2565b613f5b81613f1c565b840191505092915050565b60006020820190508181036000830152613f808184613f2d565b905092915050565b6000819050919050565b613f9b81613f88565b8114613fa657600080fd5b50565b600081359050613fb881613f92565b92915050565b600060208284031215613fd457613fd3613e11565b5b6000613fe284828501613fa9565b91505092915050565b600073ffffffffffffffffffffffffffffffffffffffff82169050919050565b600061401682613feb565b9050919050565b6140268161400b565b82525050565b6000602082019050614041600083018461401d565b92915050565b6140508161400b565b811461405b57600080fd5b50565b60008135905061406d81614047565b92915050565b6000806040838503121561408a57614089613e11565b5b60006140988582860161405e565b92505060206140a985828601613fa9565b9150509250929050565b600080604083850312156140ca576140c9613e11565b5b60006140d885828601613fa9565b92505060206140e98582860161405e565b9150509250929050565b6140fc81613f88565b82525050565b600060208201905061411760008301846140f3565b92915050565b60008060006060848603121561413657614135613e11565b5b60006141448682870161405e565b93505060206141558682870161405e565b925050604061416686828701613fa9565b9150509250925092565b6000806040838503121561418757614186613e11565b5b600061419585828601613fa9565b92505060206141a685828601613fa9565b9150509250929050565b60006080820190506141c5600083018761401d565b6141d260208301866140f3565b6141df60408301856140f3565b6141ec6060830184613eac565b95945050505050565b60006020828403121561420b5761420a613e11565b5b60006142198482850161405e565b91505092915050565b61422b81613ea0565b811461423657600080fd5b50565b60008135905061424881614222565b92915050565b6000806040838503121561426557614264613e11565b5b60006142738582860161405e565b925050602061428485828601614239565b9150509250929050565b600080fd5b600080fd5b7f4e487b7100000000000000000000000000000000000000000000000000000000600052604160045260246000fd5b6142d082613f1c565b810181811067ffffffffffffffff821117156142ef576142ee614298565b5b80604052505050565b6000614302613e07565b905061430e82826142c7565b919050565b600067ffffffffffffffff82111561432e5761432d614298565b5b61433782613f1c565b9050602081019050919050565b82818337600083830152505050565b600061436661436184614313565b6142f8565b90508281526020810184848401111561438257614381614293565b5b61438d848285614344565b509392505050565b600082601f8301126143aa576143a961428e565b5b81356143ba848260208601614353565b91505092915050565b600080600080608085870312156143dd576143dc613e11565b5b60006143eb8782880161405e565b94505060206143fc8782880161405e565b935050604061440d87828801613fa9565b925050606085013567ffffffffffffffff81111561442e5761442d613e16565b5b61443a87828801614395565b91505092959194509250565b600067ffffffffffffffff82111561446157614460614298565b5b61446a82613f1c565b9050602081019050919050565b600061448a61448584614446565b6142f8565b9050828152602081018484840111156144a6576144a5614293565b5b6144b1848285614344565b509392505050565b600082601f8301126144ce576144cd61428e565b5b81356144de848260208601614477565b91505092915050565b600080604083850312156144fe576144fd613e11565b5b600061450c8582860161405e565b925050602083013567ffffffffffffffff81111561452d5761452c613e16565b5b614539858286016144b9565b9150509250929050565b6000606082019050614558600083018661401d565b61456560208301856140f3565b6145726040830184613eac565b949350505050565b6000806040838503121561459157614590613e11565b5b600061459f8582860161405e565b92505060206145b08582860161405e565b9150509250929050565b7f4e487b7100000000000000000000000000000000000000000000000000000000600052602260045260246000fd5b6000600282049050600182168061460157607f821691505b602082108103614614576146136145ba565b5b50919050565b600060608201905061462f600083018661401d565b61463c60208301856140f3565b614649604083018461401d565b949350505050565b6000604082019050614666600083018561401d565b61467360208301846140f3565b9392505050565b7f546f6b656e20646f6573206e6f742065786973742e0000000000000000000000600082015250565b60006146b0601583613ee1565b91506146bb8261467a565b602082019050919050565b600060208201905081810360008301526146df816146a3565b9050919050565b7f50726f7065727479206973206e6f74206c697374656420666f722072656e742e600082015250565b600061471c602083613ee1565b9150614727826146e6565b602082019050919050565b6000602082019050818103600083015261474b8161470f565b9050919050565b7f50726f70657274792069732063757272656e746c792072656e7465642e000000600082015250565b6000614788601d83613ee1565b915061479382614752565b602082019050919050565b600060208201905081810360008301526147b78161477b565b9050919050565b7f52656e74616c206475726174696f6e206d757374206265206174206c6561737460008201527f2031206461792e00000000000000000000000000000000000000000000000000602082015250565b600061481a602783613ee1565b9150614825826147be565b604082019050919050565b600060208201905081810360008301526148498161480d565b9050919050565b7f4e487b7100000000000000000000000000000000000000000000000000000000600052601160045260246000fd5b600061488a82613f88565b915061489583613f88565b92508282026148a381613f88565b915082820484148315176148ba576148b9614850565b5b5092915050565b7f496e636f727265637420457468657220616d6f756e7420666f722072656e742e600082015250565b60006148f7602083613ee1565b9150614902826148c1565b602082019050919050565b60006020820190508181036000830152614926816148ea565b9050919050565b600061493882613f88565b915061494383613f88565b925082820190508082111561495b5761495a614850565b5b92915050565b600081905092915050565b50565b600061497c600083614961565b91506149878261496c565b600082019050919050565b600061499d8261496f565b9150819050919050565b7f4661696c656420746f20666f72776172642072656e7420746f2066726163746960008201527f6f6e20636f6e7472616374000000000000000000000000000000000000000000602082015250565b6000614a03602b83613ee1565b9150614a0e826149a7565b604082019050919050565b60006020820190508181036000830152614a32816149f6565b9050919050565b7f4e487b7100000000000000000000000000000000000000000000000000000000600052603260045260246000fd5b7f4e6f2072656e7420746f2077697468647261772e000000000000000000000000600082015250565b6000614a9e601483613ee1565b9150614aa982614a68565b602082019050919050565b60006020820190508181036000830152614acd81614a91565b9050919050565b7f4661696c656420746f2073656e64204574686572000000000000000000000000600082015250565b6000614b0a601483613ee1565b9150614b1582614ad4565b602082019050919050565b60006020820190508181036000830152614b3981614afd565b9050919050565b7f4f6e6c79207468652070726f7065727479206f776e65722063616e206c69737460008201527f20697420666f722072656e742e00000000000000000000000000000000000000602082015250565b6000614b9c602d83613ee1565b9150614ba782614b40565b604082019050919050565b60006020820190508181036000830152614bcb81614b8f565b9050919050565b7f52656e74207072696365206d75737420626520706f7369746976652e00000000600082015250565b6000614c08601c83613ee1565b9150614c1382614bd2565b602082019050919050565b60006020820190508181036000830152614c3781614bfb565b9050919050565b7f4f6e6c7920746865206f6666657265722063616e20776974686472617720746860008201527f6973206f666665722e0000000000000000000000000000000000000000000000602082015250565b6000614c9a602983613ee1565b9150614ca582614c3e565b604082019050919050565b60006020820190508181036000830152614cc981614c8d565b9050919050565b7f4e6f20616374697665206f6666657220746f2077697468647261772e00000000600082015250565b6000614d06601c83613ee1565b9150614d1182614cd0565b602082019050919050565b60006020820190508181036000830152614d3581614cf9565b9050919050565b7f4661696c656420746f20726566756e64206f6666657265722e00000000000000600082015250565b6000614d72601983613ee1565b9150614d7d82614d3c565b602082019050919050565b60006020820190508181036000830152614da181614d65565b9050919050565b7f4f6666657220616d6f756e74206d75737420626520677265617465722074686160008201527f6e207a65726f2e00000000000000000000000000000000000000000000000000602082015250565b6000614e04602783613ee1565b9150614e0f82614da8565b604082019050919050565b60006020820190508181036000830152614e3381614df7565b9050919050565b7f4c61206f6665727461206465626520736572206d61796f7220717565206c612060008201527f6f6665727461206d617320616c74612061637475616c2e000000000000000000602082015250565b6000614e96603783613ee1565b9150614ea182614e3a565b604082019050919050565b60006020820190508181036000830152614ec581614e89565b9050919050565b7f4661696c656420746f20726566756e642070726576696f7573206f666665726560008201527f7200000000000000000000000000000000000000000000000000000000000000602082015250565b6000614f28602183613ee1565b9150614f3382614ecc565b604082019050919050565b60006020820190508181036000830152614f5781614f1b565b9050919050565b7f4f6e6c79207468652070726f7065727479206f776e65722063616e20756e6c6960008201527f73742069742e0000000000000000000000000000000000000000000000000000602082015250565b6000614fba602683613ee1565b9150614fc582614f5e565b604082019050919050565b60006020820190508181036000830152614fe981614fad565b9050919050565b7f43616e6e6f7420756e6c697374207768696c652070726f70657274792069732060008201527f72656e7465642e00000000000000000000000000000000000000000000000000602082015250565b600061504c602783613ee1565b915061505782614ff0565b604082019050919050565b6000602082019050818103600083015261507b8161503f565b9050919050565b7f4d757374207075726368617365206174206c65617374206f6e6520667261637460008201527f696f6e2e00000000000000000000000000000000000000000000000000000000602082015250565b60006150de602483613ee1565b91506150e982615082565b604082019050919050565b6000602082019050818103600083015261510d816150d1565b9050919050565b7f4e6f7420656e6f756768206672616374696f6e7320617661696c61626c652e00600082015250565b600061514a601f83613ee1565b915061515582615114565b602082019050919050565b600060208201905081810360008301526151798161513d565b9050919050565b7f496e636f727265637420457468657220616d6f756e742073656e742e00000000600082015250565b60006151b6601c83613ee1565b91506151c182615180565b602082019050919050565b600060208201905081810360008301526151e5816151a9565b9050919050565b600060408201905061520160008301856140f3565b61520e60208301846140f3565b9392505050565b7f4e6f7420746865206f776e657200000000000000000000000000000000000000600082015250565b600061524b600d83613ee1565b915061525682615215565b602082019050919050565b6000602082019050818103600083015261527a8161523e565b9050919050565b7f416c7265616479206672616374696f6e616c697a656400000000000000000000600082015250565b60006152b7601683613ee1565b91506152c282615281565b602082019050919050565b600060208201905081810360008301526152e6816152aa565b9050919050565b7f4f6e6c7920746865206f776e65722063616e2061636365707420616e206f666660008201527f65722e0000000000000000000000000000000000000000000000000000000000602082015250565b6000615349602383613ee1565b9150615354826152ed565b604082019050919050565b600060208201905081810360008301526153788161533c565b9050919050565b7f4e6f20616374697665206f6666657220746f206163636570742e000000000000600082015250565b60006153b5601a83613ee1565b91506153c08261537f565b602082019050919050565b600060208201905081810360008301526153e4816153a8565b9050919050565b7f4661696c656420746f2073656e6420457468657220746f20746865206f776e6560008201527f722e000000000000000000000000000000000000000000000000000000000000602082015250565b6000615447602283613ee1565b9150615452826153eb565b604082019050919050565b600060208201905081810360008301526154768161543a565b9050919050565b600061548882613f88565b91507fffffffffffffffffffffffffffffffffffffffffffffffffffffffffffffffff82036154ba576154b9614850565b5b600182019050919050565b600081519050919050565b600082825260208201905092915050565b60006154ec826154c5565b6154f681856154d0565b9350615506818560208601613ef2565b61550f81613f1c565b840191505092915050565b600060808201905061552f600083018761401d565b61553c602083018661401d565b61554960408301856140f3565b818103606083015261555b81846154e1565b905095945050505050565b60008151905061557581613e47565b92915050565b60006020828403121561559157615590613e11565b5b600061559f84828501615566565b91505092915050565b600081905092915050565b60006155be82613ed6565b6155c881856155a8565b93506155d8818560208601613ef2565b80840191505092915050565b60006155f082856155b3565b91506155fc82846155b3565b91508190509392505050565b60008190508160005260206000209050919050565b60006020601f8301049050919050565b600082821b905092915050565b60006008830261566a7fffffffffffffffffffffffffffffffffffffffffffffffffffffffffffffffff8261562d565b615674868361562d565b95508019841693508086168417925050509392505050565b6000819050919050565b60006156b16156ac6156a784613f88565b61568c565b613f88565b9050919050565b6000819050919050565b6156cb83615696565b6156df6156d7826156b8565b84845461563a565b825550505050565b600090565b6156f46156e7565b6156ff8184846156c2565b505050565b5b81811015615723576157186000826156ec565b600181019050615705565b5050565b601f8211156157685761573981615608565b6157428461561d565b81016020851015615751578190505b61576561575d8561561d565b830182615704565b50505b505050565b600082821c905092915050565b600061578b6000198460080261576d565b1980831691505092915050565b60006157a4838361577a565b9150826002028217905092915050565b6157bd82613ed6565b67ffffffffffffffff8111156157d6576157d5614298565b5b6157e082546145e9565b6157eb828285615727565b600060209050601f83116001811461581e576000841561580c578287015190505b6158168582615798565b86555061587e565b601f19841661582c86615608565b60005b828110156158545784890151825560018201915060208501945060208101905061582f565b86831015615871578489015161586d601f89168261577a565b8355505b6001600288020188555050505b505050505050565b600061589182613f88565b915061589c83613f88565b92508282039050818111156158b4576158b3614850565b5b92915050565b7f4e487b7100000000000000000000000000000000000000000000000000000000600052603160045260246000fd5b7f4e487b7100000000000000000000000000000000000000000000000000000000600052601260045260246000fdfea264697066735822122070e319d4402b31059a0591aaa1054b472d94db83fb80308e52c879ba20c665f364736f6c634300081c0033",
  "linkReferences": {},
  "deployedLinkReferences": {}
}