{
  "_format": "hh-sol-artifact-1",
  "contractName": "Reputation",
  "sourceName": "contracts/Reputation.sol",
  "abi": [
    {
      "inputs": [],
      "stateMutability": "nonpayable",
      "type": "constructor"
    },
    {
      "inputs": [
        {
          "internalType": "address",
          "name": "_user",
          "type": "address"
        },
        {
          "internalType": "uint8",
          "name": "_rating",
          "type": "uint8"
        },
        {
          "internalType": "uint256",
          "name": "_transactionId",
          "type": "uint256"
        }
      ],
      "name": "addRating",
      "outputs": [],
      "stateMutability": "nonpayable",
      "type": "function"
    },
    {
      "inputs": [
        {
          "internalType": "address",
          "name": "_user",
          "type": "address"
        }
      ],
      "name": "getAverageRating",
      "outputs": [
        {
          "internalType": "uint256",
          "name": "",
          "type": "uint256"
        }
      ],
      "stateMutability": "view",
      "type": "function"
    },
    {
      "inputs": [
        {
          "internalType": "bytes32",
          "name": "",
          "type": "bytes32"
        }
      ],
      "name": "hasRated",
      "outputs": [
        {
          "internalType": "bool",
          "name": "",
          "type": "bool"
        }
      ],
      "stateMutability": "view",
      "type": "function"
    },
    {
      "inputs": [],
      "name": "owner",
      "outputs": [
        {
          "internalType": "address",
          "name": "",
          "type": "address"
        }
      ],
      "stateMutability": "view",
      "type": "function"
    },
    {
      "inputs": [
        {
          "internalType": "address",
          "name": "",
          "type": "address"
        }
      ],
      "name": "reputations",
      "outputs": [
        {
          "internalType": "uint256",
          "name": "totalRating",
          "type": "uint256"
        },
        {
          "internalType": "uint256",
          "name": "ratingCount",
          "type": "uint256"
        }
      ],
      "stateMutability": "view",
      "type": "function"
    }
  ],
  "bytecode": "0x6080604052348015600f57600080fd5b50600280546001600160a01b0319163317905561043c806100316000396000f3fe608060405234801561001057600080fd5b50600436106100575760003560e01c806306fa15a71461005c5780638253b9ec1461009d5780638da5cb5b146100d057806395a06060146100fb578063c8b6752214610110575b600080fd5b61008361006a366004610323565b6000602081905290815260409020805460019091015482565b604080519283526020830191909152015b60405180910390f35b6100c06100ab36600461033e565b60016020526000908152604090205460ff1681565b6040519015158152602001610094565b6002546100e3906001600160a01b031681565b6040516001600160a01b039091168152602001610094565b61010e610109366004610357565b610131565b005b61012361011e366004610323565b6102c3565b604051908152602001610094565b6040516bffffffffffffffffffffffff1933606090811b8216602084015285901b1660348201526048810182905260009060680160408051601f1981840301815291815281516020928301206000818152600190935291205490915060ff16156101e25760405162461bcd60e51b815260206004820152601960248201527f5472616e73616374696f6e20616c72656164792072617465640000000000000060448201526064015b60405180910390fd5b60018360ff16101580156101fa575060058360ff1611155b6102465760405162461bcd60e51b815260206004820152601e60248201527f526174696e67206d757374206265206265747765656e203120616e642035000060448201526064016101d9565b6001600160a01b0384166000908152602081905260408120805460ff861692906102719084906103b2565b90915550506001600160a01b038416600090815260208190526040812060010180549161029d836103cb565b90915550506000908152600160208190526040909120805460ff19169091179055505050565b6001600160a01b0381166000908152602081905260408120600181015482036102ef5750600092915050565b6001810154815461030091906103e4565b9392505050565b80356001600160a01b038116811461031e57600080fd5b919050565b60006020828403121561033557600080fd5b61030082610307565b60006020828403121561035057600080fd5b5035919050565b60008060006060848603121561036c57600080fd5b61037584610307565b9250602084013560ff8116811461038b57600080fd5b929592945050506040919091013590565b634e487b7160e01b600052601160045260246000fd5b808201808211156103c5576103c561039c565b92915050565b6000600182016103dd576103dd61039c565b5060010190565b60008261040157634e487b7160e01b600052601260045260246000fd5b50049056fea2646970667358221220be8e66271f359fa9bf2d00eb20ac0804d78c15eb3815474fe6399f6d533c54b764736f6c634300081c0033",
  "linkReferences": {},
  "deployedLinkReferences": {}
}