{
  "_format": "hh-sol-artifact-1",
  "contractName": "RealEstate",
  "sourceName": "contracts/RealEstate.sol",
  "abi": [
    {
      "inputs": [
        {
          "internalType": "address",
          "name": "initialOwner",
          "type": "address"
        }
      ],
      "stateMutability": "nonpayable",
      "type": "constructor"
    },
    {
      "inputs": [
        {
          "internalType": "address",
          "name": "sender",
          "type": "address"
        },
        {
          "internalType": "uint256",
          "name": "tokenId",
          "type": "uint256"
        },
        {
          "internalType": "address",
          "name": "owner",
          "type": "address"
        }
      ],
      "name": "ERC721IncorrectOwner",
      "type": "error"
    },
    {
      "inputs": [
        {
          "internalType": "address",
          "name": "operator",
          "type": "address"
        },
        {
          "internalType": "uint256",
          "name": "tokenId",
          "type": "uint256"
        }
      ],
      "name": "ERC721InsufficientApproval",
      "type": "error"
    },
    {
      "inputs": [
        {
          "internalType": "address",
          "name": "approver",
          "type": "address"
        }
      ],
      "name": "ERC721InvalidApprover",
      "type": "error"
    },
    {
      "inputs": [
        {
          "internalType": "address",
          "name": "operator",
          "type": "address"
        }
      ],
      "name": "ERC721InvalidOperator",
      "type": "error"
    },
    {
      "inputs": [
        {
          "internalType": "address",
          "name": "owner",
          "type": "address"
        }
      ],
      "name": "ERC721InvalidOwner",
      "type": "error"
    },
    {
      "inputs": [
        {
          "internalType": "address",
          "name": "receiver",
          "type": "address"
        }
      ],
      "name": "ERC721InvalidReceiver",
      "type": "error"
    },
    {
      "inputs": [
        {
          "internalType": "address",
          "name": "sender",
          "type": "address"
        }
      ],
      "name": "ERC721InvalidSender",
      "type": "error"
    },
    {
      "inputs": [
        {
          "internalType": "uint256",
          "name": "tokenId",
          "type": "uint256"
        }
      ],
      "name": "ERC721NonexistentToken",
      "type": "error"
    },
    {
      "inputs": [
        {
          "internalType": "address",
          "name": "owner",
          "type": "address"
        }
      ],
      "name": "OwnableInvalidOwner",
      "type": "error"
    },
    {
      "inputs": [
        {
          "internalType": "address",
          "name": "account",
          "type": "address"
        }
      ],
      "name": "OwnableUnauthorizedAccount",
      "type": "error"
    },
    {
      "anonymous": false,
      "inputs": [
        {
          "indexed": true,
          "internalType": "address",
          "name": "owner",
          "type": "address"
        },
        {
          "indexed": true,
          "internalType": "address",
          "name": "approved",
          "type": "address"
        },
        {
          "indexed": true,
          "internalType": "uint256",
          "name": "tokenId",
          "type": "uint256"
        }
      ],
      "name": "Approval",
      "type": "event"
    },
    {
      "anonymous": false,
      "inputs": [
        {
          "indexed": true,
          "internalType": "address",
          "name": "owner",
          "type": "address"
        },
        {
          "indexed": true,
          "internalType": "address",
          "name": "operator",
          "type": "address"
        },
        {
          "indexed": false,
          "internalType": "bool",
          "name": "approved",
          "type": "bool"
        }
      ],
      "name": "ApprovalForAll",
      "type": "event"
    },
    {
      "anonymous": false,
      "inputs": [
        {
          "indexed": false,
          "internalType": "uint256",
          "name": "_fromTokenId",
          "type": "uint256"
        },
        {
          "indexed": false,
          "internalType": "uint256",
          "name": "_toTokenId",
          "type": "uint256"
        }
      ],
      "name": "BatchMetadataUpdate",
      "type": "event"
    },
    {
      "anonymous": false,
      "inputs": [
        {
          "indexed": false,
          "internalType": "uint256",
          "name": "_tokenId",
          "type": "uint256"
        }
      ],
      "name": "MetadataUpdate",
      "type": "event"
    },
    {
      "anonymous": false,
      "inputs": [
        {
          "indexed": true,
          "internalType": "address",
          "name": "previousOwner",
          "type": "address"
        },
        {
          "indexed": true,
          "internalType": "address",
          "name": "newOwner",
          "type": "address"
        }
      ],
      "name": "OwnershipTransferred",
      "type": "event"
    },
    {
      "anonymous": false,
      "inputs": [
        {
          "indexed": true,
          "internalType": "address",
          "name": "from",
          "type": "address"
        },
        {
          "indexed": true,
          "internalType": "address",
          "name": "to",
          "type": "address"
        },
        {
          "indexed": true,
          "internalType": "uint256",
          "name": "tokenId",
          "type": "uint256"
        }
      ],
      "name": "Transfer",
      "type": "event"
    },
    {
      "inputs": [
        {
          "internalType": "address",
          "name": "to",
          "type": "address"
        },
        {
          "internalType": "uint256",
          "name": "tokenId",
          "type": "uint256"
        }
      ],
      "name": "approve",
      "outputs": [],
      "stateMutability": "nonpayable",
      "type": "function"
    },
    {
      "inputs": [
        {
          "internalType": "address",
          "name": "owner",
          "type": "address"
        }
      ],
      "name": "balanceOf",
      "outputs": [
        {
          "internalType": "uint256",
          "name": "",
          "type": "uint256"
        }
      ],
      "stateMutability": "view",
      "type": "function"
    },
    {
      "inputs": [
        {
          "internalType": "uint256",
          "name": "tokenId",
          "type": "uint256"
        }
      ],
      "name": "getApproved",
      "outputs": [
        {
          "internalType": "address",
          "name": "",
          "type": "address"
        }
      ],
      "stateMutability": "view",
      "type": "function"
    },
    {
      "inputs": [
        {
          "internalType": "address",
          "name": "owner",
          "type": "address"
        },
        {
          "internalType": "address",
          "name": "operator",
          "type": "address"
        }
      ],
      "name": "isApprovedForAll",
      "outputs": [
        {
          "internalType": "bool",
          "name": "",
          "type": "bool"
        }
      ],
      "stateMutability": "view",
      "type": "function"
    },
    {
      "inputs": [],
      "name": "name",
      "outputs": [
        {
          "internalType": "string",
          "name": "",
          "type": "string"
        }
      ],
      "stateMutability": "view",
      "type": "function"
    },
    {
      "inputs": [],
      "name": "owner",
      "outputs": [
        {
          "internalType": "address",
          "name": "",
          "type": "address"
        }
      ],
      "stateMutability": "view",
      "type": "function"
    },
    {
      "inputs": [
        {
          "internalType": "uint256",
          "name": "tokenId",
          "type": "uint256"
        }
      ],
      "name": "ownerOf",
      "outputs": [
        {
          "internalType": "address",
          "name": "",
          "type": "address"
        }
      ],
      "stateMutability": "view",
      "type": "function"
    },
    {
      "inputs": [],
      "name": "renounceOwnership",
      "outputs": [],
      "stateMutability": "nonpayable",
      "type": "function"
    },
    {
      "inputs": [
        {
          "internalType": "address",
          "name": "to",
          "type": "address"
        },
        {
          "internalType": "string",
          "name": "uri",
          "type": "string"
        }
      ],
      "name": "safeMint",
      "outputs": [],
      "stateMutability": "nonpayable",
      "type": "function"
    },
    {
      "inputs": [
        {
          "internalType": "address",
          "name": "from",
          "type": "address"
        },
        {
          "internalType": "address",
          "name": "to",
          "type": "address"
        },
        {
          "internalType": "uint256",
          "name": "tokenId",
          "type": "uint256"
        }
      ],
      "name": "safeTransferFrom",
      "outputs": [],
      "stateMutability": "nonpayable",
      "type": "function"
    },
    {
      "inputs": [
        {
          "internalType": "address",
          "name": "from",
          "type": "address"
        },
        {
          "internalType": "address",
          "name": "to",
          "type": "address"
        },
        {
          "internalType": "uint256",
          "name": "tokenId",
          "type": "uint256"
        },
        {
          "internalType": "bytes",
          "name": "data",
          "type": "bytes"
        }
      ],
      "name": "safeTransferFrom",
      "outputs": [],
      "stateMutability": "nonpayable",
      "type": "function"
    },
    {
      "inputs": [
        {
          "internalType": "address",
          "name": "operator",
          "type": "address"
        },
        {
          "internalType": "bool",
          "name": "approved",
          "type": "bool"
        }
      ],
      "name": "setApprovalForAll",
      "outputs": [],
      "stateMutability": "nonpayable",
      "type": "function"
    },
    {
      "inputs": [
        {
          "internalType": "bytes4",
          "name": "interfaceId",
          "type": "bytes4"
        }
      ],
      "name": "supportsInterface",
      "outputs": [
        {
          "internalType": "bool",
          "name": "",
          "type": "bool"
        }
      ],
      "stateMutability": "view",
      "type": "function"
    },
    {
      "inputs": [],
      "name": "symbol",
      "outputs": [
        {
          "internalType": "string",
          "name": "",
          "type": "string"
        }
      ],
      "stateMutability": "view",
      "type": "function"
    },
    {
      "inputs": [
        {
          "internalType": "uint256",
          "name": "tokenId",
          "type": "uint256"
        }
      ],
      "name": "tokenURI",
      "outputs": [
        {
          "internalType": "string",
          "name": "",
          "type": "string"
        }
      ],
      "stateMutability": "view",
      "type": "function"
    },
    {
      "inputs": [],
      "name": "totalSupply",
      "outputs": [
        {
          "internalType": "uint256",
          "name": "",
          "type": "uint256"
        }
      ],
      "stateMutability": "view",
      "type": "function"
    },
    {
      "inputs": [
        {
          "internalType": "address",
          "name": "from",
          "type": "address"
        },
        {
          "internalType": "address",
          "name": "to",
          "type": "address"
        },
        {
          "internalType": "uint256",
          "name": "tokenId",
          "type": "uint256"
        }
      ],
      "name": "transferFrom",
      "outputs": [],
      "stateMutability": "nonpayable",
      "type": "function"
    },
    {
      "inputs": [
        {
          "internalType": "address",
          "name": "newOwner",
          "type": "address"
        }
      ],
      "name": "transferOwnership",
      "outputs": [],
      "stateMutability": "nonpayable",
      "type": "function"
    }
  ],
  "bytecode": "0x608060405234801561001057600080fd5b50604051612cb9380380612cb983398181016040528101906100329190610272565b806040518060400160405280600a81526020017f5265616c69436861696e000000000000000000000000000000000000000000008152506040518060400160405280600481526020017f5245414c0000000000000000000000000000000000000000000000000000000081525081600090816100ae91906104ef565b5080600190816100be91906104ef565b505050600073ffffffffffffffffffffffffffffffffffffffff168173ffffffffffffffffffffffffffffffffffffffff16036101335760006040517f1e4fbdf700000000000000000000000000000000000000000000000000000000815260040161012a91906105d0565b60405180910390fd5b6101428161014960201b60201c565b50506105eb565b6000600760009054906101000a900473ffffffffffffffffffffffffffffffffffffffff16905081600760006101000a81548173ffffffffffffffffffffffffffffffffffffffff021916908373ffffffffffffffffffffffffffffffffffffffff1602179055508173ffffffffffffffffffffffffffffffffffffffff168173ffffffffffffffffffffffffffffffffffffffff167f8be0079c531659141344cd1fd0a4f28419497f9722a3daafe3b4186f6b6457e060405160405180910390a35050565b600080fd5b600073ffffffffffffffffffffffffffffffffffffffff82169050919050565b600061023f82610214565b9050919050565b61024f81610234565b811461025a57600080fd5b50565b60008151905061026c81610246565b92915050565b6000602082840312156102885761028761020f565b5b60006102968482850161025d565b91505092915050565b600081519050919050565b7f4e487b7100000000000000000000000000000000000000000000000000000000600052604160045260246000fd5b7f4e487b7100000000000000000000000000000000000000000000000000000000600052602260045260246000fd5b6000600282049050600182168061032057607f821691505b602082108103610333576103326102d9565b5b50919050565b60008190508160005260206000209050919050565b60006020601f8301049050919050565b600082821b905092915050565b60006008830261039b7fffffffffffffffffffffffffffffffffffffffffffffffffffffffffffffffff8261035e565b6103a5868361035e565b95508019841693508086168417925050509392505050565b6000819050919050565b6000819050919050565b60006103ec6103e76103e2846103bd565b6103c7565b6103bd565b9050919050565b6000819050919050565b610406836103d1565b61041a610412826103f3565b84845461036b565b825550505050565b600090565b61042f610422565b61043a8184846103fd565b505050565b5b8181101561045e57610453600082610427565b600181019050610440565b5050565b601f8211156104a35761047481610339565b61047d8461034e565b8101602085101561048c578190505b6104a06104988561034e565b83018261043f565b50505b505050565b600082821c905092915050565b60006104c6600019846008026104a8565b1980831691505092915050565b60006104df83836104b5565b9150826002028217905092915050565b6104f88261029f565b67ffffffffffffffff811115610511576105106102aa565b5b61051b8254610308565b610526828285610462565b600060209050601f8311600181146105595760008415610547578287015190505b61055185826104d3565b8655506105b9565b601f19841661056786610339565b60005b8281101561058f5784890151825560018201915060208501945060208101905061056a565b868310156105ac57848901516105a8601f8916826104b5565b8355505b6001600288020188555050505b505050505050565b6105ca81610234565b82525050565b60006020820190506105e560008301846105c1565b92915050565b6126bf806105fa6000396000f3fe608060405234801561001057600080fd5b50600436106101165760003560e01c8063715018a6116100a2578063b88d4fde11610071578063b88d4fde146102cd578063c87b56dd146102e9578063d204c45e14610319578063e985e9c514610335578063f2fde38b1461036557610116565b8063715018a61461026b5780638da5cb5b1461027557806395d89b4114610293578063a22cb465146102b157610116565b806318160ddd116100e957806318160ddd146101b557806323b872dd146101d357806342842e0e146101ef5780636352211e1461020b57806370a082311461023b57610116565b806301ffc9a71461011b57806306fdde031461014b578063081812fc14610169578063095ea7b314610199575b600080fd5b61013560048036038101906101309190611b17565b610381565b6040516101429190611b5f565b60405180910390f35b610153610393565b6040516101609190611c0a565b60405180910390f35b610183600480360381019061017e9190611c62565b610425565b6040516101909190611cd0565b60405180910390f35b6101b360048036038101906101ae9190611d17565b610441565b005b6101bd610457565b6040516101ca9190611d66565b60405180910390f35b6101ed60048036038101906101e89190611d81565b610461565b005b61020960048036038101906102049190611d81565b610563565b005b61022560048036038101906102209190611c62565b610583565b6040516102329190611cd0565b60405180910390f35b61025560048036038101906102509190611dd4565b610595565b6040516102629190611d66565b60405180910390f35b61027361064f565b005b61027d610663565b60405161028a9190611cd0565b60405180910390f35b61029b61068d565b6040516102a89190611c0a565b60405180910390f35b6102cb60048036038101906102c69190611e2d565b61071f565b005b6102e760048036038101906102e29190611fa2565b610735565b005b61030360048036038101906102fe9190611c62565b61075a565b6040516103109190611c0a565b60405180910390f35b610333600480360381019061032e91906120c6565b61076c565b005b61034f600480360381019061034a9190612122565b6107ac565b60405161035c9190611b5f565b60405180910390f35b61037f600480360381019061037a9190611dd4565b610840565b005b600061038c826108c6565b9050919050565b6060600080546103a290612191565b80601f01602080910402602001604051908101604052809291908181526020018280546103ce90612191565b801561041b5780601f106103f05761010080835404028352916020019161041b565b820191906000526020600020905b8154815290600101906020018083116103fe57829003601f168201915b5050505050905090565b600061043082610927565b5061043a826109af565b9050919050565b610453828261044e6109ec565b6109f4565b5050565b6000600854905090565b600073ffffffffffffffffffffffffffffffffffffffff168273ffffffffffffffffffffffffffffffffffffffff16036104d35760006040517f64a0ae920000000000000000000000000000000000000000000000000000000081526004016104ca9190611cd0565b60405180910390fd5b60006104e783836104e26109ec565b610a06565b90508373ffffffffffffffffffffffffffffffffffffffff168173ffffffffffffffffffffffffffffffffffffffff161461055d578382826040517f64283d7b000000000000000000000000000000000000000000000000000000008152600401610554939291906121c2565b60405180910390fd5b50505050565b61057e83838360405180602001604052806000815250610735565b505050565b600061058e82610927565b9050919050565b60008073ffffffffffffffffffffffffffffffffffffffff168273ffffffffffffffffffffffffffffffffffffffff16036106085760006040517f89c62b640000000000000000000000000000000000000000000000000000000081526004016105ff9190611cd0565b60405180910390fd5b600360008373ffffffffffffffffffffffffffffffffffffffff1673ffffffffffffffffffffffffffffffffffffffff168152602001908152602001600020549050919050565b610657610c20565b6106616000610ca7565b565b6000600760009054906101000a900473ffffffffffffffffffffffffffffffffffffffff16905090565b60606001805461069c90612191565b80601f01602080910402602001604051908101604052809291908181526020018280546106c890612191565b80156107155780601f106106ea57610100808354040283529160200191610715565b820191906000526020600020905b8154815290600101906020018083116106f857829003601f168201915b5050505050905090565b61073161072a6109ec565b8383610d6d565b5050565b610740848484610461565b61075461074b6109ec565b85858585610edc565b50505050565b60606107658261108d565b9050919050565b610774610c20565b600060085490506008600081548092919061078e90612228565b919050555061079d83826111a0565b6107a781836111be565b505050565b6000600560008473ffffffffffffffffffffffffffffffffffffffff1673ffffffffffffffffffffffffffffffffffffffff16815260200190815260200160002060008373ffffffffffffffffffffffffffffffffffffffff1673ffffffffffffffffffffffffffffffffffffffff16815260200190815260200160002060009054906101000a900460ff16905092915050565b610848610c20565b600073ffffffffffffffffffffffffffffffffffffffff168173ffffffffffffffffffffffffffffffffffffffff16036108ba5760006040517f1e4fbdf70000000000000000000000000000000000000000000000000000000081526004016108b19190611cd0565b60405180910390fd5b6108c381610ca7565b50565b6000634906490660e01b7bffffffffffffffffffffffffffffffffffffffffffffffffffffffff1916827bffffffffffffffffffffffffffffffffffffffffffffffffffffffff19161480610920575061091f8261121a565b5b9050919050565b600080610933836112fc565b9050600073ffffffffffffffffffffffffffffffffffffffff168173ffffffffffffffffffffffffffffffffffffffff16036109a657826040517f7e27328900000000000000000000000000000000000000000000000000000000815260040161099d9190611d66565b60405180910390fd5b80915050919050565b60006004600083815260200190815260200160002060009054906101000a900473ffffffffffffffffffffffffffffffffffffffff169050919050565b600033905090565b610a018383836001611339565b505050565b600080610a12846112fc565b9050600073ffffffffffffffffffffffffffffffffffffffff168373ffffffffffffffffffffffffffffffffffffffff1614610a5457610a538184866114fe565b5b600073ffffffffffffffffffffffffffffffffffffffff168173ffffffffffffffffffffffffffffffffffffffff1614610ae557610a96600085600080611339565b6001600360008373ffffffffffffffffffffffffffffffffffffffff1673ffffffffffffffffffffffffffffffffffffffff168152602001908152602001600020600082825403925050819055505b600073ffffffffffffffffffffffffffffffffffffffff168573ffffffffffffffffffffffffffffffffffffffff1614610b68576001600360008773ffffffffffffffffffffffffffffffffffffffff1673ffffffffffffffffffffffffffffffffffffffff168152602001908152602001600020600082825401925050819055505b846002600086815260200190815260200160002060006101000a81548173ffffffffffffffffffffffffffffffffffffffff021916908373ffffffffffffffffffffffffffffffffffffffff160217905550838573ffffffffffffffffffffffffffffffffffffffff168273ffffffffffffffffffffffffffffffffffffffff167fddf252ad1be2c89b69c2b068fc378daa952ba7f163c4a11628f55a4df523b3ef60405160405180910390a4809150509392505050565b610c286109ec565b73ffffffffffffffffffffffffffffffffffffffff16610c46610663565b73ffffffffffffffffffffffffffffffffffffffff1614610ca557610c696109ec565b6040517f118cdaa7000000000000000000000000000000000000000000000000000000008152600401610c9c9190611cd0565b60405180910390fd5b565b6000600760009054906101000a900473ffffffffffffffffffffffffffffffffffffffff16905081600760006101000a81548173ffffffffffffffffffffffffffffffffffffffff021916908373ffffffffffffffffffffffffffffffffffffffff1602179055508173ffffffffffffffffffffffffffffffffffffffff168173ffffffffffffffffffffffffffffffffffffffff167f8be0079c531659141344cd1fd0a4f28419497f9722a3daafe3b4186f6b6457e060405160405180910390a35050565b600073ffffffffffffffffffffffffffffffffffffffff168273ffffffffffffffffffffffffffffffffffffffff1603610dde57816040517f5b08ba18000000000000000000000000000000000000000000000000000000008152600401610dd59190611cd0565b60405180910390fd5b80600560008573ffffffffffffffffffffffffffffffffffffffff1673ffffffffffffffffffffffffffffffffffffffff16815260200190815260200160002060008473ffffffffffffffffffffffffffffffffffffffff1673ffffffffffffffffffffffffffffffffffffffff16815260200190815260200160002060006101000a81548160ff0219169083151502179055508173ffffffffffffffffffffffffffffffffffffffff168373ffffffffffffffffffffffffffffffffffffffff167f17307eab39ab6107e8899845ad3d59bd9653f200f220920489ca2b5937696c3183604051610ecf9190611b5f565b60405180910390a3505050565b60008373ffffffffffffffffffffffffffffffffffffffff163b1115611086578273ffffffffffffffffffffffffffffffffffffffff1663150b7a02868685856040518563ffffffff1660e01b8152600401610f3b94939291906122c5565b6020604051808303816000875af1925050508015610f7757506040513d601f19601f82011682018060405250810190610f749190612326565b60015b610ffb573d8060008114610fa7576040519150601f19603f3d011682016040523d82523d6000602084013e610fac565b606091505b506000815103610ff357836040517f64a0ae92000000000000000000000000000000000000000000000000000000008152600401610fea9190611cd0565b60405180910390fd5b805160208201fd5b63150b7a0260e01b7bffffffffffffffffffffffffffffffffffffffffffffffffffffffff1916817bffffffffffffffffffffffffffffffffffffffffffffffffffffffff19161461108457836040517f64a0ae9200000000000000000000000000000000000000000000000000000000815260040161107b9190611cd0565b60405180910390fd5b505b5050505050565b606061109882610927565b5060006006600084815260200190815260200160002080546110b990612191565b80601f01602080910402602001604051908101604052809291908181526020018280546110e590612191565b80156111325780601f1061110757610100808354040283529160200191611132565b820191906000526020600020905b81548152906001019060200180831161111557829003601f168201915b5050505050905060006111436115c2565b9050600081510361115857819250505061119b565b60008251111561118d57808260405160200161117592919061238f565b6040516020818303038152906040529250505061119b565b611196846115d9565b925050505b919050565b6111ba828260405180602001604052806000815250611642565b5050565b806006600084815260200190815260200160002090816111de919061255f565b507ff8e1a15aba9398e019f0b49df1a4fde98ee17ae345cb5f6b5e2c27f5033e8ce78260405161120e9190611d66565b60405180910390a15050565b60007f80ac58cd000000000000000000000000000000000000000000000000000000007bffffffffffffffffffffffffffffffffffffffffffffffffffffffff1916827bffffffffffffffffffffffffffffffffffffffffffffffffffffffff191614806112e557507f5b5e139f000000000000000000000000000000000000000000000000000000007bffffffffffffffffffffffffffffffffffffffffffffffffffffffff1916827bffffffffffffffffffffffffffffffffffffffffffffffffffffffff1916145b806112f557506112f482611666565b5b9050919050565b60006002600083815260200190815260200160002060009054906101000a900473ffffffffffffffffffffffffffffffffffffffff169050919050565b80806113725750600073ffffffffffffffffffffffffffffffffffffffff168273ffffffffffffffffffffffffffffffffffffffff1614155b156114a657600061138284610927565b9050600073ffffffffffffffffffffffffffffffffffffffff168373ffffffffffffffffffffffffffffffffffffffff16141580156113ed57508273ffffffffffffffffffffffffffffffffffffffff168173ffffffffffffffffffffffffffffffffffffffff1614155b801561140057506113fe81846107ac565b155b1561144257826040517fa9fbf51f0000000000000000000000000000000000000000000000000000000081526004016114399190611cd0565b60405180910390fd5b81156114a457838573ffffffffffffffffffffffffffffffffffffffff168273ffffffffffffffffffffffffffffffffffffffff167f8c5be1e5ebec7d5bd14f71427d1e84f3dd0314c0f7b2291e5b200ac8c7c3b92560405160405180910390a45b505b836004600085815260200190815260200160002060006101000a81548173ffffffffffffffffffffffffffffffffffffffff021916908373ffffffffffffffffffffffffffffffffffffffff16021790555050505050565b6115098383836116d0565b6115bd57600073ffffffffffffffffffffffffffffffffffffffff168373ffffffffffffffffffffffffffffffffffffffff160361157e57806040517f7e2732890000000000000000000000000000000000000000000000000000000081526004016115759190611d66565b60405180910390fd5b81816040517f177e802f0000000000000000000000000000000000000000000000000000000081526004016115b4929190612631565b60405180910390fd5b505050565b606060405180602001604052806000815250905090565b60606115e482610927565b5060006115ef6115c2565b9050600081511161160f576040518060200160405280600081525061163a565b8061161984611791565b60405160200161162a92919061238f565b6040516020818303038152906040525b915050919050565b61164c838361185f565b6116616116576109ec565b6000858585610edc565b505050565b60007f01ffc9a7000000000000000000000000000000000000000000000000000000007bffffffffffffffffffffffffffffffffffffffffffffffffffffffff1916827bffffffffffffffffffffffffffffffffffffffffffffffffffffffff1916149050919050565b60008073ffffffffffffffffffffffffffffffffffffffff168373ffffffffffffffffffffffffffffffffffffffff161415801561178857508273ffffffffffffffffffffffffffffffffffffffff168473ffffffffffffffffffffffffffffffffffffffff161480611749575061174884846107ac565b5b8061178757508273ffffffffffffffffffffffffffffffffffffffff1661176f836109af565b73ffffffffffffffffffffffffffffffffffffffff16145b5b90509392505050565b6060600060016117a084611958565b01905060008167ffffffffffffffff8111156117bf576117be611e77565b5b6040519080825280601f01601f1916602001820160405280156117f15781602001600182028036833780820191505090505b509050600082602083010190505b600115611854578080600190039150507f3031323334353637383961626364656600000000000000000000000000000000600a86061a8153600a85816118485761184761265a565b5b049450600085036117ff575b819350505050919050565b600073ffffffffffffffffffffffffffffffffffffffff168273ffffffffffffffffffffffffffffffffffffffff16036118d15760006040517f64a0ae920000000000000000000000000000000000000000000000000000000081526004016118c89190611cd0565b60405180910390fd5b60006118df83836000610a06565b9050600073ffffffffffffffffffffffffffffffffffffffff168173ffffffffffffffffffffffffffffffffffffffff16146119535760006040517f73c6ac6e00000000000000000000000000000000000000000000000000000000815260040161194a9190611cd0565b60405180910390fd5b505050565b600080600090507a184f03e93ff9f4daa797ed6e38ed64bf6a1f01000000000000000083106119b6577a184f03e93ff9f4daa797ed6e38ed64bf6a1f01000000000000000083816119ac576119ab61265a565b5b0492506040810190505b6d04ee2d6d415b85acef810000000083106119f3576d04ee2d6d415b85acef810000000083816119e9576119e861265a565b5b0492506020810190505b662386f26fc100008310611a2257662386f26fc100008381611a1857611a1761265a565b5b0492506010810190505b6305f5e1008310611a4b576305f5e1008381611a4157611a4061265a565b5b0492506008810190505b6127108310611a70576127108381611a6657611a6561265a565b5b0492506004810190505b60648310611a935760648381611a8957611a8861265a565b5b0492506002810190505b600a8310611aa2576001810190505b80915050919050565b6000604051905090565b600080fd5b600080fd5b60007fffffffff0000000000000000000000000000000000000000000000000000000082169050919050565b611af481611abf565b8114611aff57600080fd5b50565b600081359050611b1181611aeb565b92915050565b600060208284031215611b2d57611b2c611ab5565b5b6000611b3b84828501611b02565b91505092915050565b60008115159050919050565b611b5981611b44565b82525050565b6000602082019050611b746000830184611b50565b92915050565b600081519050919050565b600082825260208201905092915050565b60005b83811015611bb4578082015181840152602081019050611b99565b60008484015250505050565b6000601f19601f8301169050919050565b6000611bdc82611b7a565b611be68185611b85565b9350611bf6818560208601611b96565b611bff81611bc0565b840191505092915050565b60006020820190508181036000830152611c248184611bd1565b905092915050565b6000819050919050565b611c3f81611c2c565b8114611c4a57600080fd5b50565b600081359050611c5c81611c36565b92915050565b600060208284031215611c7857611c77611ab5565b5b6000611c8684828501611c4d565b91505092915050565b600073ffffffffffffffffffffffffffffffffffffffff82169050919050565b6000611cba82611c8f565b9050919050565b611cca81611caf565b82525050565b6000602082019050611ce56000830184611cc1565b92915050565b611cf481611caf565b8114611cff57600080fd5b50565b600081359050611d1181611ceb565b92915050565b60008060408385031215611d2e57611d2d611ab5565b5b6000611d3c85828601611d02565b9250506020611d4d85828601611c4d565b9150509250929050565b611d6081611c2c565b82525050565b6000602082019050611d7b6000830184611d57565b92915050565b600080600060608486031215611d9a57611d99611ab5565b5b6000611da886828701611d02565b9350506020611db986828701611d02565b9250506040611dca86828701611c4d565b9150509250925092565b600060208284031215611dea57611de9611ab5565b5b6000611df884828501611d02565b91505092915050565b611e0a81611b44565b8114611e1557600080fd5b50565b600081359050611e2781611e01565b92915050565b60008060408385031215611e4457611e43611ab5565b5b6000611e5285828601611d02565b9250506020611e6385828601611e18565b9150509250929050565b600080fd5b600080fd5b7f4e487b7100000000000000000000000000000000000000000000000000000000600052604160045260246000fd5b611eaf82611bc0565b810181811067ffffffffffffffff82111715611ece57611ecd611e77565b5b80604052505050565b6000611ee1611aab565b9050611eed8282611ea6565b919050565b600067ffffffffffffffff821115611f0d57611f0c611e77565b5b611f1682611bc0565b9050602081019050919050565b82818337600083830152505050565b6000611f45611f4084611ef2565b611ed7565b905082815260208101848484011115611f6157611f60611e72565b5b611f6c848285611f23565b509392505050565b600082601f830112611f8957611f88611e6d565b5b8135611f99848260208601611f32565b91505092915050565b60008060008060808587031215611fbc57611fbb611ab5565b5b6000611fca87828801611d02565b9450506020611fdb87828801611d02565b9350506040611fec87828801611c4d565b925050606085013567ffffffffffffffff81111561200d5761200c611aba565b5b61201987828801611f74565b91505092959194509250565b600067ffffffffffffffff8211156120405761203f611e77565b5b61204982611bc0565b9050602081019050919050565b600061206961206484612025565b611ed7565b90508281526020810184848401111561208557612084611e72565b5b612090848285611f23565b509392505050565b600082601f8301126120ad576120ac611e6d565b5b81356120bd848260208601612056565b91505092915050565b600080604083850312156120dd576120dc611ab5565b5b60006120eb85828601611d02565b925050602083013567ffffffffffffffff81111561210c5761210b611aba565b5b61211885828601612098565b9150509250929050565b6000806040838503121561213957612138611ab5565b5b600061214785828601611d02565b925050602061215885828601611d02565b9150509250929050565b7f4e487b7100000000000000000000000000000000000000000000000000000000600052602260045260246000fd5b600060028204905060018216806121a957607f821691505b6020821081036121bc576121bb612162565b5b50919050565b60006060820190506121d76000830186611cc1565b6121e46020830185611d57565b6121f16040830184611cc1565b949350505050565b7f4e487b7100000000000000000000000000000000000000000000000000000000600052601160045260246000fd5b600061223382611c2c565b91507fffffffffffffffffffffffffffffffffffffffffffffffffffffffffffffffff8203612265576122646121f9565b5b600182019050919050565b600081519050919050565b600082825260208201905092915050565b600061229782612270565b6122a1818561227b565b93506122b1818560208601611b96565b6122ba81611bc0565b840191505092915050565b60006080820190506122da6000830187611cc1565b6122e76020830186611cc1565b6122f46040830185611d57565b8181036060830152612306818461228c565b905095945050505050565b60008151905061232081611aeb565b92915050565b60006020828403121561233c5761233b611ab5565b5b600061234a84828501612311565b91505092915050565b600081905092915050565b600061236982611b7a565b6123738185612353565b9350612383818560208601611b96565b80840191505092915050565b600061239b828561235e565b91506123a7828461235e565b91508190509392505050565b60008190508160005260206000209050919050565b60006020601f8301049050919050565b600082821b905092915050565b6000600883026124157fffffffffffffffffffffffffffffffffffffffffffffffffffffffffffffffff826123d8565b61241f86836123d8565b95508019841693508086168417925050509392505050565b6000819050919050565b600061245c61245761245284611c2c565b612437565b611c2c565b9050919050565b6000819050919050565b61247683612441565b61248a61248282612463565b8484546123e5565b825550505050565b600090565b61249f612492565b6124aa81848461246d565b505050565b5b818110156124ce576124c3600082612497565b6001810190506124b0565b5050565b601f821115612513576124e4816123b3565b6124ed846123c8565b810160208510156124fc578190505b612510612508856123c8565b8301826124af565b50505b505050565b600082821c905092915050565b600061253660001984600802612518565b1980831691505092915050565b600061254f8383612525565b9150826002028217905092915050565b61256882611b7a565b67ffffffffffffffff81111561258157612580611e77565b5b61258b8254612191565b6125968282856124d2565b600060209050601f8311600181146125c957600084156125b7578287015190505b6125c18582612543565b865550612629565b601f1984166125d7866123b3565b60005b828110156125ff578489015182556001820191506020850194506020810190506125da565b8683101561261c5784890151612618601f891682612525565b8355505b6001600288020188555050505b505050505050565b60006040820190506126466000830185611cc1565b6126536020830184611d57565b9392505050565b7f4e487b7100000000000000000000000000000000000000000000000000000000600052601260045260246000fdfea26469706673582212209f0b3050719da3e0524eb34b1633aad51d53caa71648f400336d1e22f24a80d764736f6c634300081c0033",
  "linkReferences": {},
  "deployedLinkReferences": {}
}